:100000000C9462000C945F050C9438050C948A00E3
:100010000C948A000C948A000C948A000C948A0038
:100020000C948A000C948A000C948A000C948A0028
:100030000C948A000C94DE050C948A000C948A00BF
:100040000C94EE040C948A000C94AC050C94860578
:100050000C948A000C948A000C948A000C948A00F8
:100060000C948A000C948A000000000024002700F1
:100070002A0000000000250028002B0000000000DE
:1000800023002600290004040404040404040202DA
:100090000202020203030303030301020408102007
:1000A0004080010204081020010204081020000012
:1000B0000008000201000003040700000000000027
:1000C0000000270611241FBECFEFD8E0DEBFCDBF52
:1000D00011E0A0E0B1E0EAECF3E202C005900D927D
:1000E000AE37B107D9F722E0AEE7B1E001C01D920B
:1000F000AE3EB207E1F710E0C2E6D0E004C02197BF
:10010000FE010E94730EC136D107C9F70E941A077B
:100110000C94E3110C940000833081F028F48130BA
:1001200099F08230A9F008958730A9F08830C9F09D
:100130008430B1F4809180008F7D03C08091800075
:100140008F7780938000089584B58F7784BD08955C
:1001500084B58F7DFBCF8091B0008F778093B00006
:1001600008958091B0008F7DF9CFCF93DF93282F32
:1001700030E0F901E255FF4F8491F901E656FF4F57
:10018000D491F901EA57FF4FC491CC23A1F081111A
:100190000E948C00EC2FF0E0EE0FFF1FE458FF4FA1
:1001A000A591B491EC91ED2381E090E009F480E019
:1001B000DF91CF91089580E090E0FACF1F93CF9325
:1001C000DF93282F30E0F901E255FF4F8491F901C8
:1001D000E656FF4FD491F901EA57FF4FC491CC2363
:1001E000A9F0162F81110E948C00EC2FF0E0EE0F89
:1001F000FF1FEE58FF4FA591B4918FB7F894EC9183
:10020000111108C0D095DE23DC938FBFDF91CF9111
:100210001F910895DE2BF8CFCF93DF9390E0FC0180
:10022000E656FF4F24918A579F4FFC018491882303
:10023000C9F090E0880F991FFC01E859FF4FA59184
:10024000B491FC01EE58FF4FC591D49161110DC0DE
:100250009FB7F8948C91209582238C9388812823D2
:1002600028839FBFDF91CF910895623051F49FB7EB
:10027000F8943C91822F809583238C93E8812E2BD8
:10028000EFCF8FB7F894EC912E2B2C938FBFEACF42
:100290008E50806480937C0080917A00806480938B
:1002A0007A0080917A0086FDFCCF80917800909151
:1002B000790008953FB7F8948091E3019091E401AB
:1002C000A091E501B091E60126B5A89B05C02F3F9E
:1002D00019F00196A11DB11D3FBFBA2FA92F982F6C
:1002E0008827BC01CD01620F711D811D911D42E067
:1002F000660F771F881F991F4A95D1F708952FB76A
:10030000F8946091DF017091E0018091E10190919A
:10031000E2012FBF08950895AF92BF92CF92DF926E
:10032000EF92FF920F931F93CF93DF936C017B01AA
:100330008B01040F151FEB015E01AE18BF08C0173B
:10034000D10759F06991D601ED91FC910190F081AE
:10035000E02DC6010995892B79F7C501DF91CF9171
:100360001F910F91FF90EF90DF90CF90BF90AF90D3
:100370000895FC01538D448D252F30E0842F90E0AB
:10038000821B930B541710F0CF9608950197089590
:10039000FC01918D828D981761F0A28DAE0FBF2F59
:1003A000B11D5D968C91928D9F5F9F73928F90E0AF
:1003B00008958FEF9FEF0895FC01918D828D98171E
:1003C00031F0828DE80FF11D858D90E008958FEF5B
:1003D0009FEF0895FC01918D228D892F90E0805C24
:1003E0009F4F821B91098F739927089587EE91E0A3
:1003F0000E94EA0121E0892B09F420E0822F089570
:1004000080E090E0892B29F00E94F60181110C9484
:1004100000000895FC01A48DA80FB92FB11DA35AA7
:10042000BF4F2C91848D90E001968F739927848F14
:10043000A689B7892C93A089B1898C918370806437
:100440008C93938D848D981306C00288F389E02DD8
:1004500080818F7D80830895EF92FF920F931F9389
:10046000CF93DF93EC0181E0888F9B8D8C8D981367
:100470001AC0E889F989808185FF15C09FB7F89473
:10048000EE89FF896083E889F989808183708064BF
:1004900080839FBF81E090E0DF91CF911F910F910A
:1004A000FF90EF900895F62E0B8D10E00F5F1F4F19
:1004B0000F731127E02E8C8D8E110CC00FB607FC28
:1004C000FACFE889F989808185FFF5CFCE010E94B6
:1004D0000A02F1CFEB8DEC0FFD2FF11DE35AFF4F18
:1004E000F0829FB7F8940B8FEA89FB898081806244
:1004F000CFCFCF93DF93EC01888D8823B9F0AA8901
:10050000BB89E889F9898C9185FD03C0808186FDCE
:100510000DC00FB607FCF7CF8C9185FFF2CF80811D
:1005200085FFEDCFCE010E940A02E9CFDF91CF9186
:1005300008951F93CF93DF93EC01162FE881F98183
:100540000280F381E02D0995198B1886E881F981E5
:100550000190F081E02DCE010995882319F088855E
:10056000836088870E947F016A837B838C839D835D
:10057000DF91CF911F910895FC01808580FD04C01B
:1005800082FB882780F9089580E00895862F642FE4
:100590000C940C01FC0181890E94B50021E0892B9B
:1005A00009F420E0822F0895CF92DF92EF92FF921C
:1005B00080918402909185029093850080938400BD
:1005C00081E0809302018091DD01882321F08091F8
:1005D0007F01811182C080910B0190E001966091B2
:1005E000070170E00E945F0EF82E80930B018111CD
:1005F00008C08091CD0190E0019681709927809389
:10060000CD0161E08DE00E94DE0080E090E8A0E096
:10061000B0E09C01AD0104C05595479537952795ED
:10062000FA94D2F769017A018091E6029091E7028B
:10063000B0E0A0E082239D21A423BF21892B8A2B37
:100640008B2B21F061E085E00E94DE008091CE01DD
:10065000882319F18091CD0181111AC08091E402A3
:100660009091E502B0E0A0E08C219D21AE21BF2158
:10067000892B8A2B8B2B89F161E086E00E94DE00BA
:1006800061E087E0FF90EF90DF90CF900C94DE0068
:100690008091E2029091E302E5CF8091E402909193
:1006A000E502B0E0A0E08C219D21AE21BF21892B85
:1006B0008A2B8B2B21F061E086E00E94DE00809186
:1006C000E2029091E302B0E0A0E08C219D21AE21F6
:1006D000BF21892B8A2B8B2B99F6FF90EF90DF900F
:1006E000CF900895CF938091DD018130A9F482E00D
:1006F0000E94B500892B81F0C0910801C13061F4DE
:1007000010928101109280011092020110927F01DB
:100710000E94D402C0937F01CF910895CF92DF92BF
:10072000EF92FF929C01205F3F4F70E060E0FC0180
:1007300041915191CF01640F751F2E173F07B9F7F3
:1007400090E080E00E94950F20E030E040E05EE322
:100750000E9428106B017C0120E030E0A9010E947A
:10076000231020E030E040E05FE387FD0CC0C701CC
:10077000B6010E94810E0E945F0FCB01FF90EF90A7
:10078000DF90CF900895C701B6010E94800EF3CF8D
:100790000F931F93CF93DF938EE00E944801C09187
:1007A0007E010C2F10E0000F111F0E571E4FBC01D1
:1007B000990F880B990B39E0660F771F881F991FD7
:1007C0003A95D1F72FEF33E040E050E00E94E80D7A
:1007D000265C3F4F4F4F5F4FF80131832083CF5F3F
:1007E000C770C0937E0182E891E00E948E03EC0105
:1007F0008091090190910A01C817D90730F49C0132
:100800002C1B3D0B2330310548F48C179D07B8F4A1
:100810009E01281B390B2330310588F00E947F018F
:1008200068517C4F8F4F9F4F6093D0017093D101DF
:100830008093D2019093D30181E08093D401D0932F
:100840000A01C093090180910001909101018C1768
:100850009D0719F18C1B9D0B0297F8F0BE0190E0EB
:1008600080E00E94950F9B01AC0160EC71EE84E684
:100870009AE40E94ED0E9B01AC0160E070E080E81C
:1008800097E40E94800E0E94660F7093810160932E
:100890008001D0930101C0930001DF91CF911F919E
:1008A0000F910895CF92DF92EF92FF920F931F93D3
:1008B000CF93DF9300D0CDB7DEB769834A83880F2B
:1008C000991F0091DE021091DF02000F111FE8E86E
:1008D000F2E09F01285832402017310714F411929A
:1008E000F8CF2981FC01E857FD4F21838A8180835D
:1008F00060E08091DC020E94DE001016110604F513
:1009000001501109F801E857FD4FE080D090DA025C
:10091000C090D80288E0F82E6E2D661F6627661FED
:100920008C2D0E94DE00EE0C61E08D2D0E94DE0019
:1009300060E08D2D0E94DE00FA94F110EDCFDDCF46
:1009400061E08091DC020F900F90DF91CF911F91B9
:100950000F91FF90EF90DF90CF900C94DE00EF921C
:10096000FF920F931F93CF937C018C0183E0000FC4
:10097000111F8A95E1F708561D4FC1E0F801119249
:100980008F0140E06C2FC7010E945204CF5FC93035
:10099000A9F7CF911F910F91FF90EF900895CF93FA
:1009A000DF93FC0101900020E9F73197AF01481B6C
:1009B000590BBC0187EE91E00E948C01EC0142E0F2
:1009C00050E066E471E087EE91E00E948C018C0FAC
:1009D0009D1FDF91CF9108950E94DE111F920F920B
:1009E0000FB60F9211242F933F938F939F93AF9342
:1009F000BF938091DF019091E001A091E101B0915E
:100A0000E2013091DE0123E0230F2D3758F50196E6
:100A1000A11DB11D2093DE018093DF019093E001C1
:100A2000A093E101B093E2018091E3019091E40190
:100A3000A091E501B091E6010196A11DB11D809341
:100A4000E3019093E401A093E501B093E601BF9127
:100A5000AF919F918F913F912F910F900FBE0F906B
:100A60001F90189526E8230F0296A11DB11DD2CF25
:100A70001F920F920FB60F9211242F933F934F9313
:100A80005F936F937F938F939F93AF93BF93EF93F6
:100A9000FF93E0910501F09106010995FF91EF9117
:100AA000BF91AF919F918F917F916F915F914F9186
:100AB0003F912F910F900FBE0F901F9018951F928E
:100AC0000F920FB60F9211242F933F934F935F9382
:100AD0006F937F938F939F93AF93BF93EF93FF9306
:100AE000E0910301F09104010995FF91EF91BF910D
:100AF000AF919F918F917F916F915F914F913F91B6
:100B00002F910F900FBE0F901F9018951F920F926C
:100B10000FB60F9211242F933F934F935F936F93D0
:100B20007F938F939F93AF93BF93EF93FF9387EE42
:100B300091E00E940A02FF91EF91BF91AF919F91C6
:100B40008F917F916F915F914F913F912F910F9076
:100B50000FBE0F901F9018951F920F920FB60F9215
:100B600011242F938F939F93EF93FF93E091F701BD
:100B7000F091F8018081E091FD01F091FE0182FD8C
:100B80001BC09081809100028F5F8F7320910102C2
:100B9000821741F0E0910002F0E0E951FE4F958F9D
:100BA00080930002FF91EF919F918F912F910F9071
:100BB0000FBE0F901F9018958081F4CF1F920F9257
:100BC0000FB60F9211242F933F934F935F936F9320
:100BD0007F938F939F93AF93BF93EF93FF938091F6
:100BE0000201811113C00E94D402FF91EF91BF91C5
:100BF000AF919F918F917F916F915F914F913F91B5
:100C00002F910F900FBE0F901F9018951092020118
:100C1000809180019091810120918602309187021C
:100C2000820F931F909385008093840060E08DE095
:100C30000E94DE0060E085E00E94DE0060E086E069
:100C40000E94DE0060E087E00E94DE00CECFCF93FE
:100C5000DF931092EA011092E90188EE93E0A0E0A0
:100C6000B0E08093EB019093EC01A093ED01B09381
:100C7000EE018AE191E09093E8018093E70185EC31
:100C800090E09093F4018093F30184EC90E09093D2
:100C9000F6018093F50180EC90E09093F801809349
:100CA000F70181EC90E09093FA018093F90182ECD6
:100CB00090E09093FC018093FB0186EC90E0909390
:100CC000FE018093FD011092000210920102109229
:100CD00002021092030285E595E59093E902809364
:100CE000E8028AEA9AEA9093E7028093E6028FEF9D
:100CF0009FEF9093E5028093E40288E898E8909350
:100D0000E3028093E2028AE590E00E94B910FC01C0
:100D10009C01265A3F4FCAE0D0E04CE251E01282DB
:100D2000138214821582D783C68310865183408331
:100D3000118A72962E173F0791F79093E1028093E4
:100D4000E002D093D902C093D80288E090E090935B
:100D5000DB028093DA0229E030E03093DD02209359
:100D6000DC029093DF028093DE0261E08AE00E9461
:100D70000C0161E08091DA020E940C0161E0809137
:100D8000DC020E940C0161E08091DC020E94DE0026
:100D9000D093D902C093D802E8E9F2E088ED92E05E
:100DA00011928E179F07E1F7D0E0C0E08091DE023C
:100DB0009091DF02C817D90774F540E06FE0CE01CB
:100DC0000E9452048091DE029091DF02C817D90779
:100DD0002CF447E06BE0CE010E94520440E069E051
:100DE000CE010E9452048091DE029091DF02C8176A
:100DF000D9071CF4CE010E94AF048091DE029091CD
:100E0000DF02C817D9072CF440E06CE0CE010E9445
:100E100052042196CBCF8BEB90E090938702809386
:100E2000860285E49FEF9093850280938402DF9190
:100E3000CF910895CF93DF9300D000D0CDB7DEB728
:100E4000789484B5826084BD84B5816084BD85B5A5
:100E5000826085BD85B5816085BD80916E008160B1
:100E600080936E0010928100809181008260809357
:100E70008100809181008160809381008091800059
:100E80008160809380008091B10084608093B10084
:100E90008091B00081608093B00080917A0084607E
:100EA00080937A0080917A00826080937A008091AA
:100EB0007A00816080937A0080917A0080688093C4
:100EC0007A001092C100E091F701F091F80182E000
:100ED0008083E091F301F091F4011082E091F5013B
:100EE000F091F6018FEC80831092FF01E091FB01FD
:100EF000F091FC0186E08083E091F901F091FA0124
:100F0000808180618083E091F901F091FA01808114
:100F100088608083E091F901F091FA018081806816
:100F20008083E091F901F091FA0180818F7D8083C7
:100F300089E491E00E94CF0462E084E00E940C0109
:100F400061E085E00E940C0161E086E00E940C01F6
:100F500061E087E00E940C0161E08AE00E940C01E0
:100F600061E088E00E940C0161E089E00E940C01D0
:100F700061E08DE00E940C0162E082E10E940C01C0
:100F80008091E0029091E10242E050E060E170E087
:100F9000885B9F4F0E9499028091E0029091E1024C
:100FA00050E040E062E070E0C6960E94990242E0A4
:100FB00050E06CE070E08091E0029091E1020E94CC
:100FC00099028091E0029091E10242E050E063E0FA
:100FD00070E042960E9499028091E0029091E102B5
:100FE00042E050E06BE070E084960E949902E0914C
:100FF000E002F091E10289E190E097838683918F8E
:10100000808F93A782A795AF84AFE85BFF4F97834C
:10101000868322E831E03A83298315EAC12E11E064
:10102000D12E06EBE02E01E0F02E02E911E082E97C
:10103000A82E81E0B82E44244A9493E0592E612CC6
:10104000712C8EE00E944801BC01990F880B990B0E
:10105000B9E0660F771F881F991FBA95D1F7A301D2
:1010600092010E94E80D265C3F4F4F4F5F4FA981D0
:10107000BA812D933D93BA83A98381E10E944801EF
:1010800027E030E0DC010E94790EA30192010E946A
:10109000E80D2F5F3F4F4F4F5F4FF6012193319384
:1010A0006F018FE00E9448012FE030E0DC010E94D8
:1010B000790EA30192010E94E80D2F5F3F4F4F4F21
:1010C0005F4FD7012D933D937D0183E10E9448013D
:1010D0002FE230E0DC010E94790EA30192010E9410
:1010E000E80DF801219331938F0129813A81A216ED
:1010F000B30609F0A6CF8091DE029091DF021816A8
:10110000190634F441E06CE090E080E00E94520463
:101110008091DE029091DF021816190634F441E046
:101120006AE090E080E00E9452048091DE0290919B
:10113000DF021816190624F490E080E00E94AF0444
:101140008BE591E00E94CF0484E00E94B50091E01D
:1011500089278093DD0182E793E0909304018093D7
:101160000301809169008C7F816080936900E89A17
:101170008091DD01811102C00E94C803F894109291
:10118000800010928100809184029091850290935A
:101190008500809384008091810084608093810029
:1011A00080916F00816080936F0078948DE691E06C
:1011B0000E94CF04CC24CA94F3E0DF2EE12CF12C62
:1011C000A4E62A2E312CBB24B39484E00E94B500FF
:1011D000982F9B259093DD01813011F40E94C80364
:1011E0008091CC01882309F4E0C183E10E94480189
:1011F0002BE030E0DC010E94790EA70196010E94ED
:10120000E80D8091A3019091A4012B30310539F0B4
:10121000220F331FF901E05DFE4F80819181909391
:10122000E9028093E80210E000E0E091E002F09132
:10123000E102E00FF11FFA83E98380858B7F8087CD
:10124000DF010190F081E02D0190F081E02DCD01D2
:101250000995A82EE981FA81808586958170A81666
:1012600009F4DFC10E947F01A981BA8112966D93B2
:101270007D938D939C93159718968C91B2E08B2754
:10128000E981FA8180870E5E1F4F0A35110569F6E4
:101290000091E0021091E102C80184960E94BC0214
:1012A000882389F02091CB018091CC01882309F417
:1012B0000BC28091E8029091E9022111FEC1909346
:1012C000E7028093E602C8010E94BC0281111092DD
:1012D0000B018FE00E944801A090C6016A2D70E0CA
:1012E000660F771F6A547E4F7A8369832FE030E060
:1012F000DC010E94790EA70196010E94E80D2F5F84
:101300003F4F4F4F5F4FA981BA812D933C9381E0AE
:101310008A0D87708093C60186EB91E00E948E0350
:10132000898380910701B981B81789F00E947F01F4
:1013300068517C4F8F4F9F4F6093D0017093D101C4
:101340008093D2019093D301E2E0E093D401F9813C
:10135000F093070181E10E944801A090B5012A2D78
:1013600030E0220F331F2B553E4F3A83298327E06D
:1013700030E0DC010E94790EA70196010E94E80D81
:101380002F5F3F4F4F4F5F4FA981BA812D933C9301
:1013900081E08A0D87708093B50185EA91E00E9413
:1013A0008E03898380910801B981B81789F00E9462
:1013B0007F0168517C4F8F4F9F4F6093D001709396
:1013C000D1018093D2019093D30183E08093D40123
:1013D000E981E0930801D8015A968C91809581703B
:1013E0008093CC01C80142960E94BC02882361F020
:1013F0000E94900D2FEF3FEF40E050E00E94E80D7B
:101400007093A4016093A30182E10E94B50021E0E2
:10141000892B09F420E02093CE014091D4014111A1
:1014200086C18091E6029091E7029093DC0180935F
:10143000DB011092DA018091E4029091E502909331
:10144000D9018093D8011092D7018091E202909146
:10145000E3029093D6018093D50150910B01252F83
:1014600026952695269530E0E7E0F0E0E21BF30BA9
:101470004091CF0160E8469FC0011124577002C01F
:10148000959587955A95E2F7EB52FE4F5081582774
:1014900050835091CE01552309F4B2C25091CD0131
:1014A000E4E0F0E0552311F0E1E0F0E0E21BF30BA3
:1014B000EB52FE4F9081892780834B254093CF01CB
:1014C0008091CC01882309F4A5C28091E802909113
:1014D000E9022091CB017DEF7203F0011124EB5260
:1014E000FE4F978386831092CA0121E030E03A8351
:1014F00029838091DE029091DF02181619067CF490
:10150000E981FA81EC52FE4F4081E981FA81E85786
:10151000FD4F4787698190E080E00E945204498135
:101520005A814F5F5F4F5A8349834930510509F70C
:101530000E945A0169837A838B839C8384E1482EBD
:10154000512C612C712C0E945A0129813A814B81C6
:101550005C81621B730B840B950B683E73408105A5
:10156000910588F351E0451A5108610871086981B5
:101570007A818B819C8168517C4F8F4F9F4F69830B
:101580007A838B839C834114510461047104D9F6DE
:1015900080E090E0892B09F418CE0E94F6018823A0
:1015A00009F413CE0E9400000ECE83E10E94480190
:1015B0001091A201412F50E0440F551F4E565E4F2F
:1015C0005A8349832FE230E0DC010E94790EA701A3
:1015D00096010E94E80DA981BA812D933C931F5F6B
:1015E00017701093A20182E991E00E948E03382FB8
:1015F000292F60E170E00E945F0E482F8093C801A0
:10160000832F922F97FD0F9664E0959587956A95A5
:10161000E1F78093CB01442309F405CE1092CA016F
:1016200002CE0E947F01A981BA8112964D905D90F1
:101630006D907C901597AB01BC0144195509660962
:10164000770916968D919C91B0E0A0E04817590754
:101650006A077B0708F417CEE981FA8180858170DB
:10166000A81609F410CE0E947F01A981BA811296B2
:101670006D937D938D939C93159718968C911897E5
:101680008B25846018968C930E947F01E981FA81F2
:1016900041845284638474846419750986099709A6
:1016A000658776878787908B0E947F01E981FA8121
:1016B0006187728783879487E6CD213099F590936F
:1016C000E5028093E402FFCD8091C80140E050E83C
:1016D00060E070E004C075956795579547958A95C9
:1016E000D2F7CA0121110BC04091E6025091E702E6
:1016F000482759275093E7024093E602E4CD213072
:1017000059F42091E4023091E502242739273093DF
:10171000E5022093E402D7CD2091E2023091E3026A
:10172000822793279093E3028093E202CCCD41304D
:1017300031F48090090190900A0120E014C04330F8
:1017400009F053C08091080120E088248394912CF3
:10175000813049F0882E912C21E0863020F0B4E0D1
:101760008B1A910822E01092D5011092D6011092A6
:10177000D7011092D8011092D9011092DA0110927B
:10178000DB011092DC01C401B1010E944B0E6330F9
:10179000710509F441C080F56130710509F442C05A
:1017A0006230710509F43BC0433009F4B7C0309191
:1017B000DB012091D901C401B1010E944B0E6AE006
:1017C00070E00E944B0EFB013197E930F10570F596
:1017D000E451F44F0C94730E3B0C410C4B0C520C27
:1017E000590C630C650C6F0C7E0C423009F0A5CFD0
:1017F00080900701912CA1CF6530710539F048F038
:101800006630710589F680E88093D70180E880937F
:10181000D80180E88093D90180E88093DA0180E8DC
:101820008093DB0180E88093DC01BECF3E63309380
:10183000DB018091DA0182628093DA012E632093CA
:10184000D9012091D701C4016AE070E00E944B0EDB
:10185000FC013197E930F10508F06CC0EE5CF34F04
:101860000C94730EA20CA70CC60CCB0CD00CD80C8D
:10187000DA0CE30CF20C38603093DB01822F8061CC
:10188000DBCF3E623093DB018091DA018A62809384
:10189000DA012A63D4CF3A623093DB018091DA0116
:1018A0008A62CACF38633093DB018091DA018860A5
:1018B000C3CF3A633093DB018091DA018A6280936F
:1018C000DA012E62BCCF3E63F5CF30623093DB018C
:1018D000822F80628093DA012E632093D901809158
:1018E000DB018E638093DB018091DA018A62809351
:1018F000DA018091D9018E638093D9018091DB0157
:101900008A638093DB018091DA018A628093DA0135
:101910008091D9018E638093D90193CF8091D901B1
:1019200084612130C1F3223009F08BCF8091D9013D
:101930008860F1CF2E632093D70182E28093D60195
:101940008EE30CC028602093D70180E1F7CF2E6290
:101950002093D7018AE28093D6018AE38093D50150
:10196000442309F47ACD0E947F010091D0011091A7
:10197000D1012091D2013091D30106171707280712
:10198000390708F0B2CD1092D401AFCD2A6220936E
:10199000D7018AE2D3CF28632093D70188E0CECF46
:1019A0002A632093D7018AE28093D6018EE2D6CFB4
:1019B0002E63F7CF20622093D70180E28093D60177
:1019C0008EE38093D5018091D7018E638093D701F8
:1019D0008091D6018A628093D6018091D5018E6371
:1019E0008093D5018091D7018A638093D70180913C
:1019F000D6018A628093D6018091D5018E63AECFE5
:101A0000E4E0F0E0E21BF30BEB52FE4F90819827ED
:101A100090834ACD8091C901882391F18091CA01B8
:101A200091E0980F9093CA01823308F05ECD209127
:101A3000C8013091CB01822F86958695869590E0DE
:101A4000A3E03A9F800D911D1124E7E0F0E0E81B30
:101A5000F90B3091C701EB52FE4FB0E83B9FC0013C
:101A60001124277002C0959587952A95E2F79081F9
:101A7000892780833B253093C7011092C90135CD5A
:101A8000E1E0E093C90131CD8F929F92AF92BF9276
:101A9000CF92DF92EF92FF92CF93DF93EC016881B8
:101AA00079818A819B81611571058105910521F4F8
:101AB00064E279ED8BE597E02DE133EF41E050E012
:101AC0000E94E80D49015A019B01AC01A7EAB1E46B
:101AD0000E94070E6B017C01ACEEB4EFA5019401EE
:101AE0000E94150EC60ED71EE81EF91EF7FE06C090
:101AF00081E0C81AD108E10880E8F80AC882D982D2
:101B0000EA82FB82C701B6019F77DF91CF91FF90F8
:101B1000EF90DF90CF90BF90AF909F908F900895FF
:101B20008F929F92AF92BF92CF92DF92EF92FF92ED
:101B300060910C0170910D0180910E0190910F0147
:101B4000611571058105910521F464E279ED8BE55C
:101B500097E02DE133EF41E050E00E94E80D4901AC
:101B60005A019B01AC01A7EAB1E40E94070E6B0188
:101B70007C01ACEEB4EFA50194010E94150EC60ED7
:101B8000D71EE81EF91EF7FE06C081E0C81AD1086C
:101B9000E10880E8F80AC0920C01D0920D01E092B1
:101BA0000E01F0920F01C701B6019F77FF90EF90F1
:101BB000DF90CF90BF90AF909F908F9008956093EB
:101BC0000C0170930D0180930E0190930F01089505
:101BD000052E97FB1EF400940E94FF0D57FD07D0C1
:101BE0000E941A0E07FC03D04EF40C94FF0D509582
:101BF0004095309521953F4F4F4F5F4F08959095F9
:101C00008095709561957F4F8F4F9F4F08950E94EB
:101C10003C0EA59F900DB49F900DA49F800D911D2B
:101C200011240895B7FF0C94070E0E94070E821B23
:101C3000930B0895A1E21A2EAA1BBB1BFD010DC038
:101C4000AA1FBB1FEE1FFF1FA217B307E407F5076C
:101C500020F0A21BB30BE40BF50B661F771F881F48
:101C6000991F1A9469F760957095809590959B01DE
:101C7000AC01BD01CF010895A29FB001B39FC00187
:101C8000A39F700D811D1124911DB29F700D811DA8
:101C90001124911D0895AA1BBB1B51E107C0AA1F67
:101CA000BB1FA617B70710F0A61BB70B881F991FFD
:101CB0005A95A9F780959095BC01CD01089597FBA1
:101CC000072E16F4009407D077FD09D00E944B0E22
:101CD00007FC05D03EF4909581959F4F089570952F
:101CE00061957F4F0895EE0FFF1F0590F491E02D51
:101CF00009940E943C0EB7FF0895821B930B089530
:101D00005058BB27AA270E94980E0C94E90F0E94F6
:101D1000DB0F38F00E94E20F20F039F49F3F19F4F6
:101D200026F40C94D80F0EF4E095E7FB0C94D20F38
:101D3000E92F0E94FA0F58F3BA1762077307840756
:101D4000950720F079F4A6F50C941C100EF4E0959C
:101D50000B2EBA2FA02D0B01B90190010C01CA0165
:101D6000A0011124FF27591B99F0593F50F4503E10
:101D700068F11A16F040A22F232F342F4427585F02
:101D8000F3CF469537952795A795F0405395C9F71A
:101D90007EF41F16BA0B620B730B840BBAF09150D2
:101DA000A1F0FF0FBB1F661F771F881FC2F70EC071
:101DB000BA0F621F731F841F48F487957795679544
:101DC000B795F7959E3F08F0B0CF9395880F08F030
:101DD0009927EE0F9795879508950E94010F0C940F
:101DE000E90F0E94E20F58F00E94DB0F40F029F447
:101DF0005F3F29F00C94D20F51110C941D100C94DC
:101E0000D80F0E94FA0F68F39923B1F3552391F389
:101E1000951B550BBB27AA2762177307840738F059
:101E20009F5F5F4F220F331F441FAA1FA9F335D0B6
:101E30000E2E3AF0E0E832D091505040E695001C6A
:101E4000CAF72BD0FE2F29D0660F771F881FBB1F24
:101E5000261737074807AB07B0E809F0BB0B802D02
:101E6000BF01FF2793585F4F3AF09E3F510578F02E
:101E70000C94D20F0C941D105F3FE4F3983ED4F302
:101E8000869577956795B795F7959F5FC9F7880F02
:101E9000911D9695879597F90895E1E0660F771F54
:101EA000881FBB1F621773078407BA0720F0621BE5
:101EB000730B840BBA0BEE1F88F7E09508950E9410
:101EC000660F6894B1110C941D1008950E940210C1
:101ED00088F09F5798F0B92F9927B751B0F0E1F0EB
:101EE000660F771F881F991F1AF0BA95C9F714C09B
:101EF000B13091F00E941C10B1E008950C941C10B8
:101F0000672F782F8827B85F39F0B93FCCF38695D3
:101F100077956795B395D9F73EF490958095709530
:101F200061957F4F8F4F9F4F0895E89409C097FBAD
:101F30003EF490958095709561957F4F8F4F9F4FA0
:101F40009923A9F0F92F96E9BB279395F6958795E4
:101F500077956795B795F111F8CFFAF4BB0F11F4A7
:101F600060FF1BC06F5F7F4F8F4F9F4F16C088234E
:101F700011F096E911C0772321F09EE8872F762F84
:101F800005C0662371F096E8862F70E060E02AF0C5
:101F90009A95660F771F881FDAF7880F96958795B1
:101FA00097F9089597F99F6780E870E060E00895D9
:101FB0009FEF80EC089500240A9416161706180661
:101FC0000906089500240A9412161306140605063D
:101FD0000895092E0394000C11F4882352F0BB0FCE
:101FE00040F4BF2B11F460FF04C06F5F7F4F8F4F31
:101FF0009F4F089557FD9058440F551F59F05F3F6C
:1020000071F04795880F97FB991F61F09F3F79F01A
:1020100087950895121613061406551FF2CF46959C
:10202000F1DF08C0161617061806991FF1CF86951E
:102030007105610508940895E894BB276627772702
:10204000CB0197F908950E94951008F48FEF089539
:102050000E943B100C94E90F0E94DB0F38F00E94A5
:10206000E20F20F0952311F00C94D20F0C94D80FAE
:1020700011240C941D100E94FA0F70F3959FC1F368
:10208000950F50E0551F629FF001729FBB27F00D26
:10209000B11D639FAA27F00DB11DAA1F649F66277B
:1020A000B00DA11D661F829F2227B00DA11D621FCA
:1020B000739FB00DA11D621F839FA00D611D221F84
:1020C000749F3327A00D611D231F849F600D211D68
:1020D000822F762F6A2F11249F5750409AF0F1F0EB
:1020E00088234AF0EE0FFF1FBB1F661F771F881F54
:1020F00091505040A9F79E3F510580F00C94D20FAB
:102100000C941D105F3FE4F3983ED4F386957795C9
:102110006795B795F795E7959F5FC1F7FE2B880FF9
:10212000911D9695879597F90895990F0008550F79
:10213000AA0BE0E8FEEF16161706E807F907C0F04D
:1021400012161306E407F50798F0621B730B840B55
:10215000950B39F40A2661F0232B242B252B21F42F
:1021600008950A2609F4A140A6958FEF811D811DCF
:1021700008950F931F93CF93DF938230910510F44E
:1021800082E090E0E091EC02F091ED0230E020E09E
:10219000B0E0A0E0309799F42115310509F44AC068
:1021A000281B390B24303105D8F58A819B816115B4
:1021B000710589F1FB0193838283FE0111C0408187
:1021C00051810281138148175907E0F048175907D8
:1021D00099F4109761F012960C93129713961C9332
:1021E0003296CF01DF91CF911F910F910895009307
:1021F000EC021093ED02F4CF2115310551F0421796
:10220000530738F0A901DB019A01BD01DF01F80194
:10221000C1CFEF01F9CF9093ED028093EC02CDCFC7
:10222000FE01E20FF31F819391932250310939830C
:102230002883D7CF2091EA023091EB02232B41F47F
:1022400020911201309113013093EB022093EA02A6
:1022500020911001309111012115310541F42DB764
:102260003EB74091140150911501241B350BE091AC
:10227000EA02F091EB02E217F307A0F42E1B3F0BEA
:102280002817390778F0AC014E5F5F4F24173507E8
:1022900048F04E0F5F1F5093EB024093EA02819388
:1022A00091939FCFF0E0E0E09CCFCF93DF93009736
:1022B000E9F0FC01329713821282A091EC02B091F6
:1022C000ED02ED0130E020E01097A1F42081318192
:1022D000820F931F2091EA023091EB0228173907F1
:1022E00009F061C0F093EB02E093EA02DF91CF9135
:1022F0000895EA01CE17DF07E8F54A815B819E0168
:1023000041155105B1F7E901FB83EA8349915991E0
:10231000C40FD51FEC17FD0761F4808191810296EF
:10232000840F951FE90199838883828193819B8320
:102330008A83F0E0E0E012968D919C9113970097CC
:10234000B9F52D913C911197CD010296820F931F03
:102350002091EA023091EB022817390739F63097BD
:1023600051F51092ED021092EC02B093EB02A093A3
:10237000EA02BCCFD383C28340815181840F951F71
:10238000C817D90761F44E5F5F4F88819981480F64
:10239000591F518340838A819B81938382832115B6
:1023A000310509F0B0CFF093ED02E093EC029ECF3F
:1023B000FD01DC01C0CF13821282D7CF81E090E013
:0A23C000F8940C94E311F894FFCF99
:1023CA007700018B018B010F0136010F010000001C
:1023DA000000EE028000000000002C028C01B9010E
:1023EA007902EA01C801DC0100000000CA02C60243
:1023FA000000FFFFAAAA8888555522221111CCCCC9
:10240A009393B0B0C4C40D0A0053746172742E2E33
:10241A002E6C6574277320676F21004D6174726991
:10242A007820736574757020646F6E650054696DE9
:0E243A00657220736574757020646F6E6500A6
:00000001FF
