:100000000C9462000C94C3040C949C040C948A001D
:100010000C948A000C948A000C948A000C948A0038
:100020000C948A000C948A000C948A000C948A0028
:100030000C948A000C9442050C948A000C948A005B
:100040000C9452040C948A000C9410050C94EA044D
:100050000C948A000C948A000C948A000C948A00F8
:100060000C948A000C948A000000000024002700F1
:100070002A0000000000250028002B0000000000DE
:1000800023002600290004040404040404040202DA
:100090000202020203030303030301020408102007
:1000A0004080010204081020010204081020000012
:1000B0000008000201000003040700000000000027
:1000C0000000140611241FBECFEFD8E0DEBFCDBF65
:1000D00011E0A0E0B1E0EAECF2E202C005900D927E
:1000E000AE37B107D9F722E0AEE7B1E001C01D920B
:1000F000AB3EB207E1F710E0C2E6D0E004C02197C2
:10010000FE010E94F30DC136D107C9F70E94010715
:100110000C9463110C940000833081F028F481303A
:1001200099F08230A9F008958730A9F08830C9F09D
:100130008430B1F4809180008F7D03C08091800075
:100140008F7780938000089584B58F7784BD08955C
:1001500084B58F7DFBCF8091B0008F778093B00006
:1001600008958091B0008F7DF9CFCF93DF93282F32
:1001700030E0F901E255FF4F8491F901E656FF4F57
:10018000D491F901EA57FF4FC491CC23A1F081111A
:100190000E948C00EC2FF0E0EE0FFF1FE458FF4FA1
:1001A000A591B491EC91ED2381E090E009F480E019
:1001B000DF91CF91089580E090E0FACF1F93CF9325
:1001C000DF93282F30E0F901E255FF4F8491F901C8
:1001D000E656FF4FD491F901EA57FF4FC491CC2363
:1001E000A9F0162F81110E948C00EC2FF0E0EE0F89
:1001F000FF1FEE58FF4FA591B4918FB7F894EC9183
:10020000111108C0D095DE23DC938FBFDF91CF9111
:100210001F910895DE2BF8CFCF93DF9390E0FC0180
:10022000E656FF4F24918A579F4FFC018491882303
:10023000C9F090E0880F991FFC01E859FF4FA59184
:10024000B491FC01EE58FF4FC591D49161110DC0DE
:100250009FB7F8948C91209582238C9388812823D2
:1002600028839FBFDF91CF910895623051F49FB7EB
:10027000F8943C91822F809583238C93E8812E2BD8
:10028000EFCF8FB7F894EC912E2B2C938FBFEACF42
:100290008E50806480937C0080917A00806480938B
:1002A0007A0080917A0086FDFCCF80917800909151
:1002B000790008953FB7F8948091E2019091E301AD
:1002C000A091E401B091E50126B5A89B05C02F3FA0
:1002D00019F00196A11DB11D3FBFBA2FA92F982F6C
:1002E0008827BC01CD01620F711D811D911D42E067
:1002F000660F771F881F991F4A95D1F708952FB76A
:10030000F8946091DE017091DF018091E00190919D
:10031000E1012FBF08950895AF92BF92CF92DF926F
:10032000EF92FF920F931F93CF93DF936C017B01AA
:100330008B01040F151FEB015E01AE18BF08C0173B
:10034000D10759F06991D601ED91FC910190F081AE
:10035000E02DC6010995892B79F7C501DF91CF9171
:100360001F910F91FF90EF90DF90CF90BF90AF90D3
:100370000895FC01538D448D252F30E0842F90E0AB
:10038000821B930B541710F0CF9608950197089590
:10039000FC01918D828D981761F0A28DAE0FBF2F59
:1003A000B11D5D968C91928D9F5F9F73928F90E0AF
:1003B00008958FEF9FEF0895FC01918D828D98171E
:1003C00031F0828DE80FF11D858D90E008958FEF5B
:1003D0009FEF0895FC01918D228D892F90E0805C24
:1003E0009F4F821B91098F739927089586EE91E0A4
:1003F0000E94EA0121E0892B09F420E0822F089570
:1004000080E090E0892B29F00E94F60181110C9484
:1004100000000895FC01A48DA80FB92FB11DA35AA7
:10042000BF4F2C91848D90E001968F739927848F14
:10043000A689B7892C93A089B1898C918370806437
:100440008C93938D848D981306C00288F389E02DD8
:1004500080818F7D80830895EF92FF920F931F9389
:10046000CF93DF93EC0181E0888F9B8D8C8D981367
:100470001AC0E889F989808185FF15C09FB7F89473
:10048000EE89FF896083E889F989808183708064BF
:1004900080839FBF81E090E0DF91CF911F910F910A
:1004A000FF90EF900895F62E0B8D10E00F5F1F4F19
:1004B0000F731127E02E8C8D8E110CC00FB607FC28
:1004C000FACFE889F989808185FFF5CFCE010E94B6
:1004D0000A02F1CFEB8DEC0FFD2FF11DE35AFF4F18
:1004E000F0829FB7F8940B8FEA89FB898081806244
:1004F000CFCFCF93DF93EC01888D8823B9F0AA8901
:10050000BB89E889F9898C9185FD03C0808186FDCE
:100510000DC00FB607FCF7CF8C9185FFF2CF80811D
:1005200085FFEDCFCE010E940A02E9CFDF91CF9186
:1005300008951F93CF93DF93EC01162FE881F98183
:100540000280F381E02D0995198B1886E881F981E5
:100550000190F081E02DCE010995882319F088855E
:10056000836088870E947F016A837B838C839D835D
:10057000DF91CF911F910895FC01808580FD04C01B
:1005800082FB882780F9089580E00895862F642FE4
:100590000C940C01FC0181890E94B50021E0892B9B
:1005A00009F420E0822F08958091DC018130C9F4A4
:1005B000E091DD02F091DE0286AD80FF12C08091F5
:1005C0000801813071F48FE996E89093800180935F
:1005D0007F018FEF9FEF90938500809384001092AE
:1005E00002010895CF92DF92EF92FF929C01205F6B
:1005F0003F4F70E060E0FC0141915191CF01640FE9
:10060000751F2E173F07B9F790E080E00E94150F85
:1006100020E030E040E05EE30E94A80F6B017C0127
:1006200020E030E0A9010E94A30F20E030E040E08C
:100630005FE387FD0CC0C701B6010E94010E0E9456
:10064000DF0ECB01FF90EF90DF90CF900895C701B0
:10065000B6010E94000EF3CF0F931F93CF93DF9349
:100660008EE00E944801C0917E010C2F10E0000F27
:10067000111F0F571E4FBC01990F880B990B39E0C2
:10068000660F771F881F991F3A95D1F72FEF33E038
:1006900040E050E00E94680D265C3F4F4F4F5F4F97
:1006A000F80131832083CF5FC770C0937E0181E85A
:1006B00091E00E94F202EC018091090190910A01FF
:1006C000C817D90730F49C012C1B3D0B2330310592
:1006D00048F48C179D07B8F49E01281B390B233072
:1006E000310588F00E947F0168517C4F8F4F9F4FEA
:1006F0006093CF017093D0018093D1019093D20188
:1007000081E08093D301D0930A01C09309018091C5
:100710000001909101018C179D0719F18C1B9D0B15
:100720000297F8F0BE0190E080E00E94150F9B0157
:10073000AC0160EC71EE84E69AE40E946D0E9B01C0
:10074000AC0160E070E080E897E40E94000E0E9437
:10075000DF0E7093800160937F01D0930101C093FD
:100760000001DF91CF911F910F910895CF92DF92F9
:10077000EF92FF920F931F93CF93DF9300D0CDB7EB
:10078000DEB769834A83880F991F0091DB021091BD
:10079000DC02000F111FE5E8F2E09F01255832400E
:1007A0002017310714F41192F8CF2981FC01EB577F
:1007B000FD4F21838A81808360E08091D9020E946D
:1007C000DE001016110604F501501109F801EB576F
:1007D000FD4FE080D090D702C090D50288E0F82E7F
:1007E0006E2D661F6627661F8C2D0E94DE00EE0CA4
:1007F00061E08D2D0E94DE0060E08D2D0E94DE0004
:10080000FA94F110EDCFDDCF61E08091D9020F9025
:100810000F90DF91CF911F910F91FF90EF90DF909C
:10082000CF900C94DE00EF92FF920F931F93CF9323
:100830007C018C0183E0000F111F8A95E1F70B56B4
:100840001D4FC1E0F80111928F0140E06C2FC701EC
:100850000E94B603CF5FC930A9F7CF911F910F91C6
:10086000FF90EF900895CF93DF93FC01019000205B
:10087000E9F73197AF01481B590BBC0186EE91E0B7
:100880000E948C01EC0142E050E066E471E086EEEB
:1008900091E00E948C018C0F9D1FDF91CF910895F4
:1008A0000E945E111F920F920FB60F9211242F9388
:1008B0003F938F939F93AF93BF938091DE0190916D
:1008C000DF01A091E001B091E1013091DD0123E071
:1008D000230F2D3758F50196A11DB11D2093DD0181
:1008E0008093DE019093DF01A093E001B093E101DA
:1008F0008091E2019091E301A091E401B091E501C2
:100900000196A11DB11D8093E2019093E301A09394
:10091000E401B093E501BF91AF919F918F913F9119
:100920002F910F900FBE0F901F90189526E8230F60
:100930000296A11DB11DD2CF1F920F920FB60F923A
:1009400011242F933F934F935F936F937F938F93D4
:100950009F93AF93BF93EF93FF93E0910501F091C5
:1009600006010995FF91EF91BF91AF919F918F91F2
:100970007F916F915F914F913F912F910F900FBE9B
:100980000F901F9018951F920F920FB60F9211247F
:100990002F933F934F935F936F937F938F939F9387
:1009A000AF93BF93EF93FF93E0910301F0910401A4
:1009B0000995FF91EF91BF91AF919F918F917F9199
:1009C0006F915F914F913F912F910F900FBE0F90BC
:1009D0001F9018951F920F920FB60F9211242F930C
:1009E0003F934F935F936F937F938F939F93AF93B7
:1009F000BF93EF93FF9386EE91E00E940A02FF916E
:100A0000EF91BF91AF919F918F917F916F915F9186
:100A10004F913F912F910F900FBE0F901F901895FF
:100A20001F920F920FB60F9211242F938F939F93C3
:100A3000EF93FF93E091F601F091F7018081E0914F
:100A4000FC01F091FD0182FD1BC090818091FF01AE
:100A50008F5F8F7320910002821741F0E091FF01B8
:100A6000F0E0EA51FE4F958F8093FF01FF91EF91E7
:100A70009F918F912F910F900FBE0F901F901895FF
:100A80008081F4CF1F920F920FB60F921124CF9254
:100A9000DF92EF92FF922F933F934F935F936F9369
:100AA0007F938F939F93AF93BF93EF93FF93809127
:100AB0008302909184022091020121119BC09093A6
:100AC00085008093840081E08093020180910B0176
:100AD00090E001966091070170E00E94DF0DF82E12
:100AE00080930B01811108C08091CC0190E00196A8
:100AF000817099278093CC0161E08DE00E94DE0037
:100B000080E090E8A0E0B0E09C01AD0104C0559504
:100B1000479537952795FA94D2F769017A01809124
:100B2000E3029091E402B0E0A0E082239D21A4239F
:100B3000BF21892B8A2B8B2B21F061E085E00E945D
:100B4000DE008091CD01882301F18091CC018111DB
:100B500017C08091E1029091E202B0E0A0E08C2108
:100B60009D21AE21BF21892B8A2B8B2B71F161E056
:100B700086E00E94DE0061E087E00E94DE0025C082
:100B80008091DF029091E002E8CF8091E1029091A4
:100B9000E202B0E0A0E08C219D21AE21BF21892B93
:100BA0008A2B8B2B21F061E086E00E94DE00809191
:100BB000DF029091E002B0E0A0E08C219D21AE2107
:100BC000BF21892B8A2B8B2BB1F6FF91EF91BF911F
:100BD000AF919F918F917F916F915F914F913F91D5
:100BE0002F91FF90EF90DF90CF900F900FBE0F905E
:100BF0001F9018951092020120917F013091800181
:100C0000820F931F909385008093840060E08DE0B5
:100C10000E94DE0060E085E00E94DE0060E086E089
:100C20000E94DE0060E0A8CFCF93DF931092E9012D
:100C30001092E80188EE93E0A0E0B0E08093EA0132
:100C40009093EB01A093EC01B093ED018AE191E068
:100C50009093E7018093E60185EC90E09093F30197
:100C60008093F20184EC90E09093F5018093F4017D
:100C700080EC90E09093F7018093F60181EC90E096
:100C80009093F9018093F80182EC90E09093FB013E
:100C90008093FA0186EC90E09093FD018093FC0133
:100CA0001092FF01109200021092010210920202B3
:100CB00085E595E59093E6028093E5028AEA9AEA53
:100CC0009093E4028093E3028FEF9FEF9093E20210
:100CD0008093E10288E898E89093E0028093DF0235
:100CE0008AE590E00E943910FC019C01265A3F4F92
:100CF000CAE0D0E04CE251E01282138214821582E5
:100D0000D783C683108651834083118A72962E172B
:100D10003F0791F79093DE028093DD02D093D602D5
:100D2000C093D50288E090E09093D8028093D702D8
:100D300029E030E03093DA022093D9029093DC026C
:100D40008093DB0261E08AE00E940C0161E0809107
:100D5000D7020E940C0161E08091D9020E940C012F
:100D600061E08091D9020E94DE00D093D602C09348
:100D7000D502E5E9F2E085ED92E011928E179F072A
:100D8000E1F7D0E0C0E08091DB029091DC02C8176F
:100D9000D90774F540E06FE0CE010E94B603809160
:100DA000DB029091DC02C817D9072CF447E06BE016
:100DB000CE010E94B60340E069E0CE010E94B60376
:100DC0008091DB029091DC02C817D9071CF4CE0198
:100DD0000E9413048091DB029091DC02C817D907AE
:100DE0002CF440E06CE0CE010E94B6032196CBCFFC
:100DF00084E49FEF9093840280938302DF91CF91EC
:100E00000895789484B5826084BD84B5816084BD82
:100E100085B5826085BD85B5816085BD80916E0098
:100E2000816080936E0010928100809181008260C9
:100E30008093810080918100816080938100809106
:100E400080008160809380008091B10084608093F5
:100E5000B1008091B00081608093B00080917A00F1
:100E6000846080937A0080917A00826080937A0017
:100E700080917A00816080937A0080917A00806806
:100E800080937A001092C100E091F601F091F70191
:100E900082E08083E091F201F091F3011082E09111
:100EA000F401F091F5018FEC80831092FE01E09146
:100EB000FA01F091FB0186E08083E091F801F09166
:100EC000F901808180618083E091F801F091F9015E
:100ED000808188608083E091F801F091F901808140
:100EE00080688083E091F801F091F90180818F7D25
:100EF000808389E491E00E94330462E084E00E94F0
:100F00000C0161E085E00E940C0161E086E00E9436
:100F10000C0161E087E00E940C0161E08AE00E9420
:100F20000C0161E088E00E940C0161E089E00E9410
:100F30000C0161E08DE00E940C0162E082E10E9400
:100F40000C018091DD029091DE0242E050E060E110
:100F500070E0885B9F4F0E9499028091DD02909122
:100F6000DE0250E040E062E070E0C6960E94990226
:100F700042E050E06CE070E08091DD029091DE0292
:100F80000E9499028091DD029091DE0242E050E0E1
:100F900063E070E042960E9499028091DD02909198
:100FA000DE0242E050E06BE070E084960E9499021D
:100FB000E091DD02F091DE0289E190E09783868383
:100FC000918F808F93A782A795AF84AFE85BFF4F87
:100FD00097838683C1E8D1E0B4EAAB2EB1E0BB2EA3
:100FE00085EBC82E81E0D82E91E9E92E91E0F92E0B
:100FF00044244A9423E0522E612C712C8EE00E94EE
:101000004801BC01990F880B990BA9E0660F771F67
:10101000881F991FAA95D1F7A30192010E94680D1C
:10102000265C3F4F4F4F5F4F2993399381E10E94D8
:10103000480127E030E0DC010E94F90DA301920194
:101040000E94680D2F5F3F4F4F4F5F4FF501219377
:1010500031935F018FE00E9448012FE030E0DC0116
:101060000E94F90DA30192010E94680D2F5F3F4F6E
:101070004F4F5F4FF601219331936F0183E10E943F
:1010800048012FE230E0DC010E94F90DA30192013A
:101090000E94680DF701219331937F01F1E0C1397E
:1010A000DF0709F0ABCF8091DB029091DC021816CC
:1010B000190634F441E06CE090E080E00E94B60351
:1010C0008091DB029091DC021816190634F441E09D
:1010D0006AE090E080E00E94B6038091DB0290918C
:1010E000DC021816190624F490E080E00E94130434
:1010F0008BE591E00E94330484E00E94B500809368
:10110000DC0184ED92E090930401809303018091CF
:1011100069008C7F816080936900E89A8091DC018E
:10112000811102C00E942C03F8941092800010924A
:101130008100809183029091840290938500809336
:1011400084008091810084608093810080916F0091
:10115000816080936F0078948DE691E00E94330463
:10116000CC24CA94E3E0DE2EE12CF12CF4E62F2E01
:10117000312C84E00E94B50091E098279093DC0127
:10118000813011F40E942C038091CB01882309F453
:10119000B5C183E10E9448012BE030E0DC010E94F0
:1011A000F90DA70196010E94680D8091A20190910E
:1011B000A3012B30310539F0220F331FF901E05D17
:1011C000FE4F808191819093E6028093E502B12CDD
:1011D000A12CC091DD02D091DE02CA0DDB1D8885F5
:1011E0008B7F8887E881F9810190F081E02DCE0125
:1011F0000995582E888586958170581609F4B7C1CF
:101200000E947F016A837B838C839D83888542E073
:10121000642E8625888722E1A20EB11C3AE5A3162A
:10122000B104B9F6A090DD02B090DE02C50184964B
:101230000E94BC02882389F02091CA018091CB01D1
:10124000882309F4D9C18091E5029091E602211129
:10125000CCC19093E4028093E302C5010E94BC02DA
:10126000811110920B018FE00E9448017090C5011E
:10127000C72DD0E0CC0FDD1FCB54DE4F2FE030E088
:10128000DC010E94F90DA70196010E94680D2F5FF5
:101290003F4F4F4F5F4F3983288381E0870D877021
:1012A0008093C50185EB91E00E94F202C82F8091E6
:1012B0000701C81789F00E947F0168517C4F8F4F4A
:1012C0009F4F6093CF017093D0018093D101909391
:1012D000D20152E05093D301C093070181E10E94F3
:1012E00048017090B401C72DD0E0CC0FDD1FCC5564
:1012F000DE4F27E030E0DC010E94F90DA7019601E6
:101300000E94680D2F5F3F4F4F4F5F4F39832883F7
:1013100081E0870D87708093B40184EA91E00E9498
:10132000F202C82F80910801C81789F00E947F013E
:1013300068517C4F8F4F9F4F6093CF017093D001C6
:101340008093D1019093D20183E08093D301C09325
:101350000801F501828D809581708093CB01C501D4
:1013600042960E94BC02882361F00E94100D2FEF6C
:101370003FEF40E050E00E94680D7093A30160933E
:10138000A20182E10E94B50021E0892B09F420E04E
:101390002093CD01C091D301C11161C18091E302BD
:1013A0009091E4029093DB018093DA011092D901CD
:1013B0008091E1029091E2029093D8018093D7014D
:1013C0001092D6018091DF029091E0029093D501B6
:1013D0008093D40150910B01252F269526952695B3
:1013E00030E0E7E0F0E0E21BF30B4091CE0160E873
:1013F000469FC0011124577002C0959587955A9554
:10140000E2F7EC52FE4F5081582750835091CD01A6
:10141000552309F474C25091CC01E4E0F0E0552367
:1014200011F0E1E0F0E0E21BF30BEC52FE4F908193
:101430008927808371E047274093CE018091CB01BB
:10144000882309F466C28091E5029091E60220911A
:10145000CA013DEF3203F0011124EC52FE4F978395
:1014600086831092C901C1E0D0E08091DB029091A7
:10147000DC02181619066CF4FE01ED52FE4F408195
:10148000FE01EB57FD4F47876C2F90E080E00E94F4
:10149000B6032196C930D10541F70E945A014B018C
:1014A0005C0184E1482E512C612C712C0E945A0160
:1014B000681979098A099B09683E7340810591057D
:1014C000A8F381E0481A51086108710898EE890E66
:1014D00093E0991EA11CB11C4114510461047104D4
:1014E00029F780E090E0892B09F443CE0E94F601B1
:1014F000882309F43ECE0E9400003BCE83E10E9487
:101500004801B090A101CB2DD0E0CC0FDD1FCF560C
:10151000DE4F2FE230E0DC010E94F90DA7019601B9
:101520000E94680D3983288381E08B0D877080933A
:10153000A10181E991E00E94F202382F292F60E198
:1015400070E00E94DF0D482F8093C701832F922FF8
:1015500097FD0F9654E0959587955A95E1F78093FE
:10156000CA01442309F433CE1092C90130CE0E943F
:101570007F012A813B814C815D813B014C01621AD4
:10158000730A840A950AB401A3018E819F81B0E099
:10159000A0E0481759076A077B0708F43CCE888506
:1015A0008170581609F437CE0E947F016A837B83CD
:1015B0008C839D83888577247394872584608887AE
:1015C0000E947F0149845A846B847C846419750964
:1015D000860997096D877E878F87988B0E947F0188
:1015E00069877A878B879C8716CE213099F59093EF
:1015F000E2028093E10231CE8091C70140E050E8E1
:1016000060E070E004C075956795579547958A9599
:10161000D2F7CA0121110BC04091E3025091E402BC
:10162000482759275093E4024093E30216CE213015
:1016300059F42091E1023091E202242739273093B6
:10164000E2022093E10209CE2091DF023091E00214
:10165000822793279093E0028093DF02FECDC13072
:1016600009F043C00091090110910A011092D401C0
:101670001092D5011092D6011092D7011092D80184
:101680001092D9011092DA011092DB01C801B10168
:101690000E94CB0D6330710509F443C090F56130B1
:1016A000710509F444C06230710509F43DC0309100
:1016B000DA012091D801C801B1010E94CB0D6AE086
:1016C00070E00E94CB0DFB013197E930F10598F5F0
:1016D000E459F44F0C94F30DA50BAB0BD40BDB0BBF
:1016E000E20BEC0BEE0BF80B070CC33021F400916E
:1016F000080110E0BBCFC23009F0B8CF009107015C
:10170000F8CF6530710539F048F06630710579F62B
:1017100080E88093D60180E88093D70180E88093A9
:10172000D80180E88093D90180E88093DA0180E8CD
:101730008093DB01BCCF3E633093DA018091D90105
:1017400082628093D9012E630FC038603093DA0132
:10175000822F8061F6CF3E623093DA018091D90109
:101760008A628093D9012A632093D8014091D601DF
:101770003091D5012091D401C8016AE070E00E9447
:10178000CB0DFC013197E930F10508F050C0E5536D
:10179000F44F0C94F30D1F0C240C430C480C4D0C0F
:1017A000550C570C600C6F0C3A623093DA01809143
:1017B000D9018A62C6CF38633093DA018091D901AA
:1017C0008860BFCF3A633093DA018091D9018A6291
:1017D0008093D9012E62C8CF3E63F5CF306230933B
:1017E000DA01822F80628093D9012E632093D80181
:1017F0008091DA018E638093DA018091D9018A6247
:101800008093D9018091D8018E638093D801809113
:10181000DA018A638093DA018091D9018A62809328
:10182000D9018091D8018E638093D8019FCF4E63F8
:101830004093D60132623093D5012E630CC04860CC
:101840004093D6013061F7CF4E624093D6013A62A1
:101850003093D5012A632093D401CC2309F4BACD67
:101860000E947F018090CF019090D001A090D10183
:10187000B090D20186169706A806B90608F0F3CDF7
:101880001092D301F0CD4A624093D6013A62D3CF91
:1018900048634093D6013860CECF4A634093D60167
:1018A0003A623093D5012E62D6CF4E63F7CF4062B5
:1018B0004093D60130623093D5012E632093D4013A
:1018C0008091D6018E638093D6018091D5018A6282
:1018D0008093D5018091D4018E638093D40180914F
:1018E000D6018A638093D6018091D5018A62809364
:1018F000D5018091D4018E638093D401AECFE4E012
:10190000F0E0E21BF30BEC52FE4F9081982790839E
:1019100088CD8091C801882399F18091C90191E017
:10192000980F9093C901823308F09DCD2091C70193
:101930003091CA01822F86958695869590E043E086
:10194000349F800D911D1124E7E0F0E0E81BF90BB6
:101950003091C601EC52FE4F50E8359FC001112472
:10196000277002C0959587952A95E2F7908189277F
:10197000808361E036273093C6011092C80173CD91
:1019800071E07093C8016FCD8F929F92AF92BF921A
:10199000CF92DF92EF92FF92CF93DF93EC016881B9
:1019A00079818A819B81611571058105910521F4F9
:1019B00064E279ED8BE597E02DE133EF41E050E013
:1019C0000E94680D49015A019B01AC01A7EAB1E4EC
:1019D0000E94870D6B017C01ACEEB4EFA501940170
:1019E0000E94950DC60ED71EE81EF91EF7FE06C012
:1019F00081E0C81AD108E10880E8F80AC882D982D3
:101A0000EA82FB82C701B6019F77DF91CF91FF90F9
:101A1000EF90DF90CF90BF90AF909F908F90089500
:101A20008F929F92AF92BF92CF92DF92EF92FF92EE
:101A300060910C0170910D0180910E0190910F0148
:101A4000611571058105910521F464E279ED8BE55D
:101A500097E02DE133EF41E050E00E94680D49012D
:101A60005A019B01AC01A7EAB1E40E94870D6B010A
:101A70007C01ACEEB4EFA50194010E94950DC60E59
:101A8000D71EE81EF91EF7FE06C081E0C81AD1086D
:101A9000E10880E8F80AC0920C01D0920D01E092B2
:101AA0000E01F0920F01C701B6019F77FF90EF90F2
:101AB000DF90CF90BF90AF909F908F9008956093EC
:101AC0000C0170930D0180930E0190930F01089506
:101AD000052E97FB1EF400940E947F0D57FD07D042
:101AE0000E949A0D07FC03D04EF40C947F0D509584
:101AF0004095309521953F4F4F4F5F4F08959095FA
:101B00008095709561957F4F8F4F9F4F08950E94EC
:101B1000BC0DA59F900DB49F900DA49F800D911DAD
:101B200011240895B7FF0C94870D0E94870D821B26
:101B3000930B0895A1E21A2EAA1BBB1BFD010DC039
:101B4000AA1FBB1FEE1FFF1FA217B307E407F5076D
:101B500020F0A21BB30BE40BF50B661F771F881F49
:101B6000991F1A9469F760957095809590959B01DF
:101B7000AC01BD01CF010895A29FB001B39FC00188
:101B8000A39F700D811D1124911DB29F700D811DA9
:101B90001124911D0895AA1BBB1B51E107C0AA1F68
:101BA000BB1FA617B70710F0A61BB70B881F991FFE
:101BB0005A95A9F780959095BC01CD01089597FBA2
:101BC000072E16F4009407D077FD09D00E94CB0DA4
:101BD00007FC05D03EF4909581959F4F0895709530
:101BE00061957F4F0895EE0FFF1F0590F491E02D52
:101BF00009940E94BC0DB7FF0895821B930B0895B2
:101C00005058BB27AA270E94180E0C94690F0E94F7
:101C10005B0F38F00E94620F20F039F49F3F19F4F7
:101C200026F40C94580F0EF4E095E7FB0C94520F39
:101C3000E92F0E947A0F58F3BA17620773078407D7
:101C4000950720F079F4A6F50C949C0F0EF4E0951E
:101C50000B2EBA2FA02D0B01B90190010C01CA0166
:101C6000A0011124FF27591B99F0593F50F4503E11
:101C700068F11A16F040A22F232F342F4427585F03
:101C8000F3CF469537952795A795F0405395C9F71B
:101C90007EF41F16BA0B620B730B840BBAF09150D3
:101CA000A1F0FF0FBB1F661F771F881FC2F70EC072
:101CB000BA0F621F731F841F48F487957795679545
:101CC000B795F7959E3F08F0B0CF9395880F08F031
:101CD0009927EE0F9795879508950E94810E0C9491
:101CE000690F0E94620F58F00E945B0F40F029F4C8
:101CF0005F3F29F00C94520F51110C949D0F0C94DE
:101D0000580F0E947A0F68F39923B1F3552391F38A
:101D1000951B550BBB27AA2762177307840738F05A
:101D20009F5F5F4F220F331F441FAA1FA9F335D0B7
:101D30000E2E3AF0E0E832D091505040E695001C6B
:101D4000CAF72BD0FE2F29D0660F771F881FBB1F25
:101D5000261737074807AB07B0E809F0BB0B802D03
:101D6000BF01FF2793585F4F3AF09E3F510578F02F
:101D70000C94520F0C949D0F5F3FE4F3983ED4F304
:101D8000869577956795B795F7959F5FC9F7880F03
:101D9000911D9695879597F90895E1E0660F771F55
:101DA000881FBB1F621773078407BA0720F0621BE6
:101DB000730B840BBA0BEE1F88F7E09508950E9411
:101DC000E60E6894B1110C949D0F08950E94820F45
:101DD00088F09F5798F0B92F9927B751B0F0E1F0EC
:101DE000660F771F881F991F1AF0BA95C9F714C09C
:101DF000B13091F00E949C0FB1E008950C949C0FBB
:101E0000672F782F8827B85F39F0B93FCCF38695D4
:101E100077956795B395D9F73EF490958095709531
:101E200061957F4F8F4F9F4F0895E89409C097FBAE
:101E30003EF490958095709561957F4F8F4F9F4FA1
:101E40009923A9F0F92F96E9BB279395F6958795E5
:101E500077956795B795F111F8CFFAF4BB0F11F4A8
:101E600060FF1BC06F5F7F4F8F4F9F4F16C088234F
:101E700011F096E911C0772321F09EE8872F762F85
:101E800005C0662371F096E8862F70E060E02AF0C6
:101E90009A95660F771F881FDAF7880F96958795B2
:101EA00097F9089597F99F6780E870E060E00895DA
:101EB0009FEF80EC089500240A9416161706180662
:101EC0000906089500240A9412161306140605063E
:101ED0000895092E0394000C11F4882352F0BB0FCF
:101EE00040F4BF2B11F460FF04C06F5F7F4F8F4F32
:101EF0009F4F089557FD9058440F551F59F05F3F6D
:101F000071F04795880F97FB991F61F09F3F79F01B
:101F100087950895121613061406551FF2CF46959D
:101F2000F1DF08C0161617061806991FF1CF86951F
:101F30007105610508940895E894BB276627772703
:101F4000CB0197F908950E94151008F48FEF0895BA
:101F50000E94BB0F0C94690F0E945B0F38F00E9427
:101F6000620F20F0952311F00C94520F0C94580F2F
:101F700011240C949D0F0E947A0F70F3959FC1F36A
:101F8000950F50E0551F629FF001729FBB27F00D27
:101F9000B11D639FAA27F00DB11DAA1F649F66277C
:101FA000B00DA11D661F829F2227B00DA11D621FCB
:101FB000739FB00DA11D621F839FA00D611D221F85
:101FC000749F3327A00D611D231F849F600D211D69
:101FD000822F762F6A2F11249F5750409AF0F1F0EC
:101FE00088234AF0EE0FFF1FBB1F661F771F881F55
:101FF00091505040A9F79E3F510580F00C94520F2C
:102000000C949D0F5F3FE4F3983ED4F3869577954B
:102010006795B795F795E7959F5FC1F7FE2B880FFA
:10202000911D9695879597F90895990F0008550F7A
:10203000AA0BE0E8FEEF16161706E807F907C0F04E
:1020400012161306E407F50798F0621B730B840B56
:10205000950B39F40A2661F0232B242B252B21F430
:1020600008950A2609F4A140A6958FEF811D811DD0
:1020700008950F931F93CF93DF938230910510F44F
:1020800082E090E0E091E902F091EA0230E020E0A5
:10209000B0E0A0E0309799F42115310509F44AC069
:1020A000281B390B24303105D8F58A819B816115B5
:1020B000710589F1FB0193838283FE0111C0408188
:1020C00051810281138148175907E0F048175907D9
:1020D00099F4109761F012960C93129713961C9333
:1020E0003296CF01DF91CF911F910F910895009308
:1020F000E9021093EA02F4CF2115310551F042179D
:10210000530738F0A901DB019A01BD01DF01F80195
:10211000C1CFEF01F9CF9093EA028093E902CDCFCE
:10212000FE01E20FF31F819391932250310939830D
:102130002883D7CF2091E7023091E802232B41F486
:1021400020911201309113013093E8022093E702AD
:1021500020911001309111012115310541F42DB765
:102160003EB74091140150911501241B350BE091AD
:10217000E702F091E802E217F307A0F42E1B3F0BF1
:102180002817390778F0AC014E5F5F4F24173507E9
:1021900048F04E0F5F1F5093E8024093E70281938F
:1021A00091939FCFF0E0E0E09CCFCF93DF93009737
:1021B000E9F0FC01329713821282A091E902B091FA
:1021C000EA02ED0130E020E01097A1F42081318196
:1021D000820F931F2091E7023091E80228173907F8
:1021E00009F061C0F093E802E093E702DF91CF913C
:1021F0000895EA01CE17DF07E8F54A815B819E0169
:1022000041155105B1F7E901FB83EA8349915991E1
:10221000C40FD51FEC17FD0761F4808191810296F0
:10222000840F951FE90199838883828193819B8321
:102230008A83F0E0E0E012968D919C9113970097CD
:10224000B9F52D913C911197CD010296820F931F04
:102250002091E7023091E8022817390739F63097C4
:1022600051F51092EA021092E902B093E802A093AD
:10227000E702BCCFD383C28340815181840F951F75
:10228000C817D90761F44E5F5F4F88819981480F65
:10229000591F518340838A819B81938382832115B7
:1022A000310509F0B0CFF093EA02E093E9029ECF46
:1022B000FD01DC01C0CF13821282D7CF81E090E014
:0A22C000F8940C946311F894FFCF1A
:1022CA007700018B018B010F0136010F010000001D
:1022DA000000EB028000000000002C028C01B90112
:1022EA007902EA01C801DC0100000000CA02C60244
:1022FA000000FFFFAAAA8888555522221111CCCCCA
:10230A009393B0B0C4C40D0A0053746172742E2E34
:10231A002E6C6574277320676F21004D6174726992
:10232A007820736574757020646F6E650054696DEA
:0E233A00657220736574757020646F6E6500A7
:00000001FF
