:100000000C9462000C94B8050C9491050C948A0031
:100010000C948A000C948A000C948A000C948A0038
:100020000C948A000C948A000C948A000C948A0028
:100030000C948A000C9437060C948A000C948A0065
:100040000C9447050C948A000C9405060C94DF056B
:100050000C948A000C948A000C948A000C948A00F8
:100060000C948A000C948A000000000024002700F1
:100070002A0000000000250028002B0000000000DE
:1000800023002600290004040404040404040202DA
:100090000202020203030303030301020408102007
:1000A0004080010204081020010204081020000012
:1000B0000008000201000003040700000000000027
:1000C0000000800611241FBECFEFD8E0DEBFCDBFF9
:1000D00011E0A0E0B1E0E0ECF4E202C005900D9286
:1000E000AE37B107D9F722E0AEE7B1E001C01D920B
:1000F000AB3FB207E1F710E0C2E6D0E004C02197C1
:10010000FE010E94EE0EC136D107C9F70E947307A7
:100110000C945E120C940000833081F028F481303E
:1001200099F08230A9F008958730A9F08830C9F09D
:100130008430B1F4809180008F7D03C08091800075
:100140008F7780938000089584B58F7784BD08955C
:1001500084B58F7DFBCF8091B0008F778093B00006
:1001600008958091B0008F7DF9CFCF93DF93282F32
:1001700030E0F901E255FF4F8491F901E656FF4F57
:10018000D491F901EA57FF4FC491CC23A1F081111A
:100190000E948C00EC2FF0E0EE0FFF1FE458FF4FA1
:1001A000A591B491EC91ED2381E090E009F480E019
:1001B000DF91CF91089580E090E0FACF1F93CF9325
:1001C000DF93282F30E0F901E255FF4F8491F901C8
:1001D000E656FF4FD491F901EA57FF4FC491CC2363
:1001E000A9F0162F81110E948C00EC2FF0E0EE0F89
:1001F000FF1FEE58FF4FA591B4918FB7F894EC9183
:10020000111108C0D095DE23DC938FBFDF91CF9111
:100210001F910895DE2BF8CFCF93DF9390E0FC0180
:10022000E656FF4F24918A579F4FFC018491882303
:10023000C9F090E0880F991FFC01E859FF4FA59184
:10024000B491FC01EE58FF4FC591D49161110DC0DE
:100250009FB7F8948C91209582238C9388812823D2
:1002600028839FBFDF91CF910895623051F49FB7EB
:10027000F8943C91822F809583238C93E8812E2BD8
:10028000EFCF8FB7F894EC912E2B2C938FBFEACF42
:100290008E50806480937C0080917A00806480938B
:1002A0007A0080917A0086FDFCCF80917800909151
:1002B000790008953FB7F8948091F0019091F10191
:1002C000A091F201B091F30126B5A89B05C02F3F84
:1002D00019F00196A11DB11D3FBFBA2FA92F982F6C
:1002E0008827BC01CD01620F711D811D911D42E067
:1002F000660F771F881F991F4A95D1F708952FB76A
:10030000F8946091EC017091ED018091EE01909173
:10031000EF012FBF08951F93CF93DF93EC01162FAA
:10032000E881F9810280F381E02D42E050E00995F7
:10033000198B1886E881F9810190F081E02DCE01BA
:100340000995882319F08885836088870E947F013A
:100350006A837B838C839D83DF91CF911F91089566
:100360000895AF92BF92CF92DF92EF92FF920F93D8
:100370001F93CF93DF936C017B018B01040F151F3B
:10038000EB015E01AE18BF08C017D10759F06991A3
:10039000D601ED91FC910190F081E02DC601099507
:1003A000892B79F7C501DF91CF911F910F91FF90B4
:1003B000EF90DF90CF90BF90AF900895FC01538DE8
:1003C000448D252F30E0842F90E0821B930B54172F
:1003D00010F0CF96089501970895FC01918D828DBC
:1003E000981761F0A28DAE0FBF2FB11D5D968C9155
:1003F000928D9F5F9F73928F90E008958FEF9FEF94
:100400000895FC01918D828D981731F0828DE80F4F
:10041000F11D858D90E008958FEF9FEF0895FC0109
:10042000918D228D892F90E0805C9F4F821B9109D6
:100430008F739927089584EF91E00E940F0221E0C5
:10044000892B09F420E0822F089580E090E0892B29
:1004500029F00E941B0281110C9400000895FC01F8
:10046000A48DA80FB92FB11DA35ABF4F2C91848D15
:1004700090E001968F739927848FA689B7892C9372
:10048000A089B1898C91837080648C93938D848DC5
:10049000981306C00288F389E02D80818F7D8083C8
:1004A0000895EF92FF920F931F93CF93DF93EC0188
:1004B00081E0888F9B8D8C8D98131AC0E889F9890B
:1004C000808185FF15C09FB7F894EE89FF8960830E
:1004D000E889F98980818370806480839FBF81E08F
:1004E00090E0DF91CF911F910F91FF90EF900895D1
:1004F000F62E0B8D10E00F5F1F4F0F731127E02EAC
:100500008C8D8E110CC00FB607FCFACFE889F989E3
:10051000808185FFF5CFCE010E942F02F1CFEB8DB8
:10052000EC0FFD2FF11DE35AFF4FF0829FB7F894B7
:100530000B8FEA89FB8980818062CFCFCF93DF93D5
:10054000EC01888D8823B9F0AA89BB89E889F989EB
:100550008C9185FD03C0808186FD0DC00FB607FC20
:10056000F7CF8C9185FFF2CF808185FFEDCFCE0153
:100570000E942F02E9CFDF91CF910895FC01808581
:1005800080FD04C082FB882780F9089580E00895EB
:10059000862F642F0C940C01FC0181890E94B50008
:1005A00021E0892B09F420E0822F0895CF92DF9279
:1005B000EF92FF9280919102909192029093850028
:1005C0008093840081E0809302018091EA01882376
:1005D00021F08091E401811182C080910A0190E0B4
:1005E00001966091070170E00E94DA0EF82E809368
:1005F0000A01811108C08091D00190E001968170BC
:1006000099278093D00161E08DE00E94DE0080E0B8
:1006100090E8A0E0B0E09C01AD0104C0559547957D
:1006200037952795FA94D2F769017A018091F30200
:100630009091F402B0E0A0E082239D21A423BF2189
:10064000892B8A2B8B2B21F061E085E00E94DE0054
:100650008091D101882319F18091D00181111AC0B4
:100660008091F1029091F202B0E0A0E08C219D21F6
:10067000AE21BF21892B8A2B8B2B89F161E086E08B
:100680000E94DE0061E087E0FF90EF90DF90CF9066
:100690000C94DE008091EF029091F002E5CF809102
:1006A000F1029091F202B0E0A0E08C219D21AE21F8
:1006B000BF21892B8A2B8B2B21F061E086E00E94E1
:1006C000DE008091EF029091F002B0E0A0E08C217A
:1006D0009D21AE21BF21892B8A2B8B2B99F6FF9070
:1006E000EF90DF90CF900895CF92DF92EF92FF923C
:1006F000CF93DF93D091EA01D13019F582E00E94C7
:10070000B500892BF1F0C0910B01C63008F51092AD
:10071000840110928301109202011092E401D091A1
:10072000E901D11102C00E94D60281E08093E40168
:100730008D2F90E001966C2F70E00E94DA0E80936E
:10074000E901DF91CF91FF90EF90DF90CF90089576
:100750000E947F016B017C011092E4010E94D6028D
:10076000D093E40180917F0190918001A09181015B
:10077000B0918201A7019601281B390B4A0B5B0B34
:10078000CA01B9012CEF2C0F30E050E040E00E948C
:10079000630E2093E0013093E1014093E201509316
:1007A000E3012C0D3D1D4E1D5F1D2093E50130938F
:1007B000E6014093E7015093E801C0927F01D09297
:1007C0008001E0928101F0928201C550C093E9015D
:1007D000B8CFCF92DF92EF92FF929C01205F3F4F04
:1007E00070E060E0FC0141915191CF01640F751FF1
:1007F0002E173F07B9F790E080E00E94101020E02C
:1008000030E040E05EE30E94A3106B017C0120E039
:1008100030E0A9010E949E1020E030E040E05FE35C
:1008200087FD0CC0C701B6010E94FC0E0E94DA0FC2
:10083000CB01FF90EF90DF90CF900895C701B601F4
:100840000E94FB0EF3CF0F931F93CF93DF938EE0A5
:100850000E944801C0917E010C2F10E0000F111F73
:100860000B571E4FBC01990F880B990B39E0660F8F
:10087000771F881F991F3A95D1F72FEF33E040E09B
:1008800050E00E94630E265C3F4F4F4F5F4FF801D0
:1008900031832083CF5FC770C0937E0185E891E0EC
:1008A0000E94E903EC018091080190910901C817A9
:1008B000D90730F49C012C1B3D0B2330310548F443
:1008C0008C179D07B8F49E01281B390B2330310586
:1008D00088F00E947F0168517C4F8F4F9F4F60933B
:1008E000D3017093D4018093D5019093D60181E018
:1008F0008093D701D0930901C09308018091000132
:10090000909101018C179D0719F18C1B9D0B02978B
:10091000F8F0BE0190E080E00E9410109B01AC0155
:1009200060EC71EE84E69AE40E94680F9B01AC01D2
:1009300060E070E080E897E40E94FB0E0E94E10F07
:100940007093840160938301D0930101C0930001EF
:10095000DF91CF911F910F910895CF92DF92EF9287
:10096000FF920F931F93CF93DF9300D0CDB7DEB7E5
:1009700069834A83880F991F0091EB021091EC0262
:10098000000F111FE5E9F2E09F01255932402017C1
:10099000310714F41192F8CF2981FC01EB56FD4F79
:1009A00021838A81808360E08091E9020E94DE00D9
:1009B0001016110604F501501109F801EB56FD4F10
:1009C000E080D090E702C090E50288E0F82E6E2D1E
:1009D000661F6627661F8C2D0E94DE00EE0C61E00C
:1009E0008D2D0E94DE0060E08D2D0E94DE00FA94C5
:1009F000F110EDCFDDCF61E08091E9020F900F9013
:100A0000DF91CF911F910F91FF90EF90DF90CF90EA
:100A10000C94DE00EF92FF920F931F93CF937C0113
:100A20008C0183E0000F111F8A95E1F70B551D4FD4
:100A3000C1E0F80111928F0140E06C2FC7010E94C4
:100A4000AD04CF5FC930A9F7CF911F910F91FF90EF
:100A5000EF900895FC0101900020E9F73197AF0174
:100A6000481B590BBC0184EF91E00C94B101CF936A
:100A7000DF930E942A05EC0186E491E00E942A059A
:100A80008C0F9D1FDF91CF9108950E9459121F92E4
:100A90000F920FB60F9211242F933F938F939F9332
:100AA000AF93BF938091EC019091ED01A091EE0185
:100AB000B091EF013091EB0123E0230F2D3758F572
:100AC0000196A11DB11D2093EB018093EC01909341
:100AD000ED01A093EE01B093EF018091F0019091B0
:100AE000F101A091F201B091F3010196A11DB11D98
:100AF0008093F0019093F101A093F201B093F30180
:100B0000BF91AF919F918F913F912F910F900FBE09
:100B10000F901F90189526E8230F0296A11DB11D76
:100B2000D2CF1F920F920FB60F9211242F933F93A3
:100B30004F935F936F937F938F939F93AF93BF93E5
:100B4000EF93FF93E0910501F09106010995FF9164
:100B5000EF91BF91AF919F918F917F916F915F9135
:100B60004F913F912F910F900FBE0F901F901895AE
:100B70001F920F920FB60F9211242F933F934F9312
:100B80005F936F937F938F939F93AF93BF93EF93F5
:100B9000FF93E0910301F09104010995FF91EF911A
:100BA000BF91AF919F918F917F916F915F914F9185
:100BB0003F912F910F900FBE0F901F9018951F928D
:100BC0000F920FB60F9211242F933F934F935F9381
:100BD0006F937F938F939F93AF93BF93EF93FF9305
:100BE00084EF91E00E942F02FF91EF91BF91AF91AE
:100BF0009F918F917F916F915F914F913F912F9135
:100C00000F900FBE0F901F9018951F920F920FB666
:100C10000F9211242F938F939F93EF93FF93E09163
:100C20000402F09105028081E0910A02F0910B022A
:100C300082FD1BC0908180910D028F5F8F73209188
:100C40000E02821741F0E0910D02F0E0EC50FE4FF1
:100C5000958F80930D02FF91EF919F918F912F912E
:100C60000F900FBE0F901F9018958081F4CF1F92A8
:100C70000F920FB60F9211242F933F934F935F93D0
:100C80006F937F938F939F93AF93BF93EF93FF9354
:100C900080910201811113C00E94D602FF91EF9151
:100CA000BF91AF919F918F917F916F915F914F9184
:100CB0003F912F910F900FBE0F901F90189510929B
:100CC00002018091830190918401209193023091DF
:100CD0009402820F931F909385008093840060E0BC
:100CE0008DE00E94DE0060E085E00E94DE0060E0B2
:100CF00086E00E94DE0060E087E00E94DE00CECF4A
:100D0000CF93DF931092F7011092F60188EE93E0F3
:100D1000A0E0B0E08093F8019093F901A093FA016C
:100D2000B093FB018AE191E09093F5018093F40187
:100D300085EC90E0909301028093000284EC90E0B7
:100D4000909303028093020280EC90E0909305025E
:100D50008093040281EC90E0909307028093060256
:100D600082EC90E0909309028093080286EC90E078
:100D700090930B0280930A0210920D0210920E02C1
:100D800010920F021092100285E595E59093F602FD
:100D90008093F5028AEA9AEA9093F4028093F30230
:100DA0008FEF9FEF9093F2028093F10288E898E82A
:100DB0009093F0028093EF0288E490E00E94341157
:100DC000FC019C01285B3F4FCAE0D0E04CE251E0BF
:100DD0001282138214821582D783C68310865183B0
:100DE0004083118A72962E173F0791F79093EE0277
:100DF0008093ED02D093E602C093E50288E090E094
:100E00009093E8028093E70229E030E03093EA0211
:100E10002093E9029093EC028093EB0261E08AE078
:100E20000E940C0161E08091E7020E940C0161E0E8
:100E30008091E9020E940C0161E08091E9020E9428
:100E4000DE00D093E602C093E502E5EAF2E085EE2B
:100E500092E011928E179F07E1F7D0E0C0E08091F9
:100E6000EB029091EC02C817D90774F540E06FE0EF
:100E7000CE010E94AD048091EB029091EC02C81764
:100E8000D9072CF447E06BE0CE010E94AD0440E0AE
:100E900069E0CE010E94AD048091EB029091EC02DA
:100EA000C817D9071CF4CE010E940A058091EB02F5
:100EB0009091EC02C817D9072CF440E06CE0CE0109
:100EC0000E94AD042196CBCF8BEB90E090939402DF
:100ED0008093930285E49FEF909392028093910216
:100EE000DF91CF910895CF93DF93CDB7DEB7A19770
:100EF0000FB6F894DEBF0FBECDBF789484B5826084
:100F000084BD84B5816084BD85B5826085BD85B5AD
:100F1000816085BD80916E00816080936E0010922B
:100F200081008091810082608093810080918100A6
:100F30008160809381008091800081608093800037
:100F40008091B10084608093B1008091B000816095
:100F50008093B00080917A00846080937A008091C1
:100F60007A00826080937A0080917A008160809319
:100F70007A0080917A00806880937A001092C10094
:100F8000E0910402F091050282E08083E09100028A
:100F9000F09101021082E0910202F09103028FECC5
:100FA000808310920C02E0910802F091090286E021
:100FB0008083E0910602F091070280818061808346
:100FC000E0910602F0910702808188608083E091C1
:100FD0000602F0910702808180688083E09106021A
:100FE000F091070280818F7D808389E491E00E94E7
:100FF000370562E084E00E940C0160E082E00E941C
:101000000C0161E085E00E940C0161E086E00E9435
:101010000C0161E087E00E940C0161E08AE00E941F
:101020000C0161E088E00E940C0161E089E00E940F
:101030000C0161E08DE00E940C0162E082E10E94FF
:101040000C018091ED029091EE0260E170E0C69695
:101050000E948B016CE070E08091ED029091EE02B5
:101060000E948B018091ED029091EE0263E070E0AE
:1010700042960E948B018091ED029091EE026BE00E
:1010800070E084960E948B01E091ED02F091EE02F7
:1010900089E190E097838683918F808F93A782A7C1
:1010A00095AF84AF05E811E0B8EAAB2EB1E0BB2EF6
:1010B00089EBC82E81E0D82E95E9E92E91E0F92E32
:1010C00025E9822E21E0922E44244A9433E0532EC7
:1010D000612C712C8EE00E944801BC01990F880B95
:1010E000990BA9E0660F771F881F991FAA95D1F762
:1010F000A30192010E94630E265C3F4F4F4F5F4F4A
:10110000D8012D933D938D0181E10E94480127E094
:1011100030E0DC010E94F40EA30192010E94630EF4
:101120002F5F3F4F4F4F5F4FF501219331935F0189
:101130008FE00E9448012FE030E0DC010E94F40EB5
:10114000A30192010E94630E2F5F3F4F4F4F5F4FED
:10115000D6012D933D936D0183E10E9448012FE25A
:1011600030E0DC010E94F40EA30192010E94630EA4
:10117000F701219331937F018016910609F0AACFE0
:101180008091EB029091EC021816190634F441E0BC
:101190006CE090E080E00E94AD048091EB029091C1
:1011A000EC021816190624F490E080E00E940A056B
:1011B0008BE591E00E94370584E00E94B50091E044
:1011C00089278093EA0184E793E090930401809358
:1011D0000301809169008C7F816080936900E89AA7
:1011E0008091EA01811102C00E942304F8941092B8
:1011F00080001092810080919102909192029093D0
:1012000085008093840080918100846080938100B8
:1012100080916F00816080936F0078948DE691E0FB
:101220000E943705CC24CA94F3E0DF2EE12CF12C88
:101230008091CF01882309F432C283E10E944801E2
:101240002BE030E0DC010E94F40EA70196010E9421
:10125000630E8091A6019091A7012B30310539F0E2
:10126000220F331F205D3E4FD9018D919C919093A9
:10127000F6028093F50284E00E94B50091E0982781
:101280009093EA01813011F40E942304B12CA12C27
:101290000091ED021091EE020A0D1B1DD801189667
:1012A0008C9118978B7F18968C931897ED91FC91E1
:1012B0000190F081E02DC8010995582EF801808534
:1012C00086958170581609F424C20E947F01D801C6
:1012D00012966D937D938D939C93159718968C9190
:1012E000B2E08B27F8018087F2E1AF0EB11C08E471
:1012F000A016B10469F6A090ED02B090EE02C5010F
:1013000084960E94BE02882389F04091CE0190917C
:10131000CF01992309F451C22091F5023091F602D0
:1013200041113FC23093F4022093F302C5010E94A1
:10133000BE02811110920A018FE00E944801709054
:10134000C901072D10E0000F111F07541E4F2FE099
:1013500030E0DC010E94F40EA70196010E94630EAA
:101360002F5F3F4F4F4F5F4FD8012D933C9381E04C
:10137000870D87708093C90189EB91E00E94E90392
:10138000182F80910701181789F00E947F0168517A
:101390007C4F8F4F9F4F6093D3017093D401809304
:1013A000D5019093D601B2E0B093D7011093070115
:1013B00081E10E9448017090B801072D10E0000FF4
:1013C000111F08551E4F27E030E0DC010E94F40E8B
:1013D000A70196010E94630E2F5F3F4F4F4F5F4F53
:1013E000F8013183208381E0870D87708093B801F5
:1013F00088EA91E00E94E903182F80910B011817E9
:1014000089F00E947F0168517C4F8F4F9F4F6093FE
:10141000D3017093D4018093D5019093D60183E0DA
:101420008093D70110930B01D5015A968C9180952A
:1014300081708093CF01C50142960E94BE0288232D
:1014400061F00E940B0E2FEF3FEF40E050E00E9452
:10145000630E7093A7016093A60182E10E94B5001C
:1014600021E0892B09F420E02093D1013091D701AC
:101470003111D7C18091F3029091F4029093DF0172
:101480008093DE011092DD018091F1029091F202D1
:101490009093DC018093DB011092DA018091EF02DE
:1014A0009091F0029093D9018093D80190910A0114
:1014B000292F26952695269530E067E070E0621B7F
:1014C000730B4091D20100E8409FF0011124977006
:1014D000DF0102C0B595A7959A95E2F7CD01FB0112
:1014E000E852FE4F50815A2750835091D101552325
:1014F00009F402C35091D001ECEDF1E0E21BF30BD3
:10150000552331F0E1E0F0E0E21BF30BE852FE4F2F
:10151000908189278083B1E04B274093D20180914D
:10152000CF01882309F4F0C28091F5029091F60270
:101530002091CE010DEF0203F0011124E852FE4F7D
:10154000978386831092CD0101E010E08091EB0239
:101550009091EC02181619066CF4F801E952FE4F4E
:101560004081F801EB56FD4F4787602F90E080E007
:101570000E94AD040F5F1F4F0930110539F78091AC
:101580000B01863008F45AC08091EA01813009F0DD
:1015900055C02091E901222309F450C030E050E009
:1015A00040E019A28E010F5D1F4FCA01B9012AE068
:1015B00030E040E050E00E94950E605DD8016E93EF
:1015C0008D01211531054105510579F7109719F065
:1015D000CD010E942A0586E491E00E942A050E941E
:1015E0007F014090E5015090E6016090E701709026
:1015F000E801641575058605970504F11092E4016C
:101600000E94D602B1E0B093E4018091E9018150DB
:101610008093E9018091E0019091E101A091E201C4
:10162000B091E301840D951DA61DB71D8093E501C2
:101630009093E601A093E701B093E8010E945A015C
:101640004B015C018AE0482E512C612C712C0E94C8
:101650005A01681979098A099B09683E7340810516
:101660009105A8F3E1E04E1A510861087108F8EEFF
:101670008F0EF3E09F1EA11CB11C411451046104A4
:10168000710429F780E090E0892B09F4D1CD0E9404
:101690001B02882309F4CCCD0E940000C9CD83E150
:1016A0000E944801B090A5010B2D10E0000F111F02
:1016B0000B561E4F2FE230E0DC010E94F40EA70112
:1016C00096010E94630EF8013183208381E08B0D27
:1016D00087708093A50185E991E00E94E903382F86
:1016E000292F60E170E00E94DA0E482F8093CB0131
:1016F000832F922F97FD0F9664E0959587956A95B5
:10170000E1F78093CE01442309F4B5CD1092CD01C9
:10171000B2CD0E947F01D80112962D913D914D913D
:101720005C9115973B014C01621A730A840A950A71
:10173000B401A30116968D919C91B0E0A0E04817EA
:1017400059076A077B0708F4CFCDD80118968C910A
:101750008170581609F4C8CD0E947F01F801628398
:101760007383848395838085F1E08F278460D8011B
:1017700018968C930E947F01F801418452846384FF
:101780007484641975098609970965877687878740
:10179000908B0E947F01F80161877287838794870D
:1017A000A3CD413029F43093F2022093F102BECD53
:1017B0003093F0022093EF02B9CD9091CB01612CD0
:1017C00050E8752E812C912C04C0959487947794C1
:1017D00067949A95D2F7C30141110BC02091F3028F
:1017E0003091F402822793279093F4028093F302BE
:1017F0009DCD413059F42091F1023091F2028227BF
:1018000093279093F2028093F10290CD2091EF0202
:101810003091F002822793279093F0028093EF0299
:1018200085CD313031F4209008013090090120E05D
:1018300014C0333009F055C080910B0120E0222400
:101840002394312C813049F0282E312C21E0863030
:1018500020F0B4E02B1A310822E01092D801109247
:10186000D9011092DA011092DB011092DC01109282
:10187000DD011092DE011092DF01C10164E670E02B
:101880000E94C60E6330710509F442C088F56130CC
:10189000710509F443C06230710509F43CC033306E
:1018A00009F4B8C04091DE012091DC01C10164E679
:1018B00070E00E94C60E6AE070E00E94C60EFB0156
:1018C0003197E930F10570F5E859F34F0C94EE0EBD
:1018D000B70CBD0CC70CCE0CD50CDF0CE10CEB0C1F
:1018E000FA0C323009F0A3CF20900701312C9FCFA2
:1018F0006530710539F048F06630710581F680E891
:101900008093DA0180E88093DB0180E88093DC013A
:1019100080E88093DD0180E88093DE0180E8809399
:10192000DF01BDCF4E634093DE018091DD01826215
:101930008093DD012E632093DC012091DA01C10147
:101940006AE070E00E94C60EFC013197E930F105B3
:1019500008F06CC0E255F34F0C94EE0E1E0D230DF3
:10196000420D470D4C0D540D560D5F0D6E0D486028
:101970004093DE01822F8061DBCF4E624093DE0117
:101980008091DD018A628093DD012A63D4CF4A62AF
:101990004093DE018091DD018A62CACF48634093A3
:1019A000DE018091DD018860C3CF4A634093DE0190
:1019B0008091DD018A628093DD012E62BCCF4E638F
:1019C000F5CF40624093DE01822F80628093DD017B
:1019D0002E632093DC018091DE018E638093DE0113
:1019E0008091DD018A628093DD018091DC018E634C
:1019F0008093DC018091DE018A638093DE01809117
:101A0000DD018A628093DD018091DC018E63809329
:101A1000DC0193CF8091DC0184612130C1F322305D
:101A200009F08BCF8091DC018860F1CF2E63209389
:101A3000DA0182E28093D9018EE30CC02860209302
:101A4000DA0180E1F7CF2E622093DA018AE28093F7
:101A5000D9018AE38093D801332309F427CD0E946A
:101A60007F010091D3011091D4012091D5013091D3
:101A7000D601061717072807390708F065CD109219
:101A8000D70162CD2A622093DA018AE2D3CF28639C
:101A90002093DA0188E0CECF2A632093DA018AE22C
:101AA0008093D9018EE2D6CF2E63F7CF20622093A8
:101AB000DA0180E28093D9018EE38093D80180918E
:101AC000DA018E638093DA018091D9018A62809372
:101AD000D9018091D8018E638093D8018091DA0179
:101AE0008A638093DA018091D9018A628093D90157
:101AF0008091D8018E63AECFECEDF1E0E21BF30BE9
:101B0000908198279083FECC8091CC01882399F115
:101B10008091CD0191E0980F9093CD01823308F030
:101B200013CD2091CB013091CE01822F86958695E1
:101B3000869590E013E0319F800D911D1124E7E020
:101B4000F0E0E81BF90B8091CA01E852FE4F30E843
:101B5000839FA0011124277002C0559547952A95AF
:101B6000E2F790819427908341E084278093CA0113
:101B70001092CC01E9CC81E08093CC01E5CC8F922E
:101B80009F92AF92BF92CF92DF92EF92FF92CF934C
:101B9000DF93EC01688179818A819B8161157105F0
:101BA0008105910521F464E279ED8BE597E02DE163
:101BB00033EF41E050E00E94630E49015A019B015E
:101BC000AC01A7EAB1E40E94820E6B017C01ACEE8D
:101BD000B4EFA50194010E94900EC60ED71EE81E18
:101BE000F91EF7FE06C081E0C81AD108E10880E8B6
:101BF000F80AC882D982EA82FB82C701B6019F77C0
:101C0000DF91CF91FF90EF90DF90CF90BF90AF909A
:101C10009F908F9008958F929F92AF92BF92CF9294
:101C2000DF92EF92FF9260910C0170910D01809113
:101C30000E0190910F01611571058105910521F447
:101C400064E279ED8BE597E02DE133EF41E050E080
:101C50000E94630E49015A019B01AC01A7EAB1E45D
:101C60000E94820E6B017C01ACEEB4EFA5019401E1
:101C70000E94900EC60ED71EE81EF91EF7FE06C083
:101C800081E0C81AD108E10880E8F80AC0920C0186
:101C9000D0920D01E0920E01F0920F01C701B60142
:101CA0009F77FF90EF90DF90CF90BF90AF909F9085
:101CB0008F90089560930C0170930D0180930E0135
:101CC00090930F010895052E97FB1EF400940E9437
:101CD0007A0E57FD07D00E94950E07FC03D04EF4F4
:101CE0000C947A0E50954095309521953F4F4F4F6B
:101CF0005F4F089590958095709561957F4F8F4FB8
:101D00009F4F08950E94B70EA59F900DB49F900D10
:101D1000A49F800D911D11240895B7FF0C94820E8D
:101D20000E94820E821B930B0895A1E21A2EAA1B19
:101D3000BB1BFD010DC0AA1FBB1FEE1FFF1FA2177B
:101D4000B307E407F50720F0A21BB30BE40BF50B78
:101D5000661F771F881F991F1A9469F76095709501
:101D6000809590959B01AC01BD01CF010895A29F84
:101D7000B001B39FC001A39F700D811D1124911D5F
:101D8000B29F700D811D1124911D0895AA1BBB1BCC
:101D900051E107C0AA1FBB1FA617B70710F0A61B6B
:101DA000B70B881F991F5A95A9F780959095BC018C
:101DB000CD01089597FB072E16F4009407D077FD08
:101DC00009D00E94C60E07FC05D03EF4909581957F
:101DD0009F4F0895709561957F4F0895EE0FFF1FF7
:101DE0000590F491E02D09940E94B70EB7FF089575
:101DF000821B930B08955058BB27AA270E94130FEC
:101E00000C9464100E94561038F00E945D1020F06F
:101E100039F49F3F19F426F40C9453100EF4E09516
:101E2000E7FB0C944D10E92F0E94751058F3BA1778
:101E3000620773078407950720F079F4A6F50C94E0
:101E400097100EF4E0950B2EBA2FA02D0B01B901BF
:101E500090010C01CA01A0011124FF27591B99F020
:101E6000593F50F4503E68F11A16F040A22F232F2C
:101E7000342F4427585FF3CF469537952795A7957C
:101E8000F0405395C9F77EF41F16BA0B620B730B23
:101E9000840BBAF09150A1F0FF0FBB1F661F771F94
:101EA000881FC2F70EC0BA0F621F731F841F48F449
:101EB000879577956795B795F7959E3F08F0B0CFD2
:101EC0009395880F08F09927EE0F979587950895B9
:101ED0000E947C0F0C9464100E945D1058F00E94C8
:101EE000561040F029F45F3F29F00C944D10511129
:101EF0000C9498100C9453100E94751068F3992359
:101F0000B1F3552391F3951B550BBB27AA276217F5
:101F10007307840738F09F5F5F4F220F331F441F02
:101F2000AA1FA9F335D00E2E3AF0E0E832D0915036
:101F30005040E695001CCAF72BD0FE2F29D0660F23
:101F4000771F881FBB1F261737074807AB07B0E866
:101F500009F0BB0B802DBF01FF2793585F4F3AF06C
:101F60009E3F510578F00C944D100C9498105F3FF3
:101F7000E4F3983ED4F3869577956795B795F795F2
:101F80009F5FC9F7880F911D9695879597F90895DA
:101F9000E1E0660F771F881FBB1F62177307840776
:101FA000BA0720F0621B730B840BBA0BEE1F88F785
:101FB000E09508950E94E10F6894B1110C94981077
:101FC00008950E947D1088F09F5798F0B92F9927A7
:101FD000B751B0F0E1F0660F771F881F991F1AF014
:101FE000BA95C9F714C0B13091F00E949710B1E0D2
:101FF00008950C949710672F782F8827B85F39F0D1
:10200000B93FCCF3869577956795B395D9F73EF4AC
:1020100090958095709561957F4F8F4F9F4F089554
:10202000E89409C097FB3EF4909580957095619572
:102030007F4F8F4F9F4F9923A9F0F92F96E9BB2728
:102040009395F695879577956795B795F111F8CFA4
:10205000FAF4BB0F11F460FF1BC06F5F7F4F8F4F0F
:102060009F4F16C0882311F096E911C0772321F005
:102070009EE8872F762F05C0662371F096E8862F9D
:1020800070E060E02AF09A95660F771F881FDAF7F4
:10209000880F9695879597F9089597F99F6780E837
:1020A00070E060E008959FEF80EC089500240A94AA
:1020B0001616170618060906089500240A94121623
:1020C0001306140605060895092E0394000C11F456
:1020D000882352F0BB0F40F4BF2B11F460FF04C003
:1020E0006F5F7F4F8F4F9F4F089557FD9058440F5C
:1020F000551F59F05F3F71F04795880F97FB991F67
:1021000061F09F3F79F08795089512161306140623
:10211000551FF2CF4695F1DF08C0161617061806B0
:10212000991FF1CF86957105610508940895E8948B
:10213000BB2766277727CB0197F908950E941011D6
:1021400008F48FEF08950E94B6100C9464100E945A
:10215000561038F00E945D1020F0952311F00C9479
:102160004D100C94531011240C9498100E9475106B
:1021700070F3959FC1F3950F50E0551F629FF001DA
:10218000729FBB27F00DB11D639FAA27F00DB11DF3
:10219000AA1F649F6627B00DA11D661F829F22277C
:1021A000B00DA11D621F739FB00DA11D621F839F03
:1021B000A00D611D221F749F3327A00D611D231FD9
:1021C000849F600D211D822F762F6A2F11249F5727
:1021D00050409AF0F1F088234AF0EE0FFF1FBB1F2A
:1021E000661F771F881F91505040A9F79E3F5105E9
:1021F00080F00C944D100C9498105F3FE4F3983EDF
:10220000D4F3869577956795B795F795E7959F5F92
:10221000C1F7FE2B880F911D9695879597F9089524
:10222000990F0008550FAA0BE0E8FEEF16161706E7
:10223000E807F907C0F012161306E407F50798F04F
:10224000621B730B840B950B39F40A2661F0232B68
:10225000242B252B21F408950A2609F4A140A695E4
:102260008FEF811D811D08950F931F93CF93DF93EF
:102270008230910510F482E090E0E091F902F09153
:10228000FA0230E020E0B0E0A0E0309799F42115A8
:10229000310509F44AC0281B390B24303105D8F523
:1022A0008A819B816115710589F1FB01938382838A
:1022B000FE0111C0408151810281138148175907E5
:1022C000E0F04817590799F4109761F012960C93B3
:1022D000129713961C933296CF01DF91CF911F91E5
:1022E0000F9108950093F9021093FA02F4CF21158B
:1022F000310551F04217530738F0A901DB019A016B
:10230000BD01DF01F801C1CFEF01F9CF9093FA02CF
:102310008093F902CDCFFE01E20FF31F81939193D9
:102320002250310939832883D7CF2091F702309189
:10233000F802232B41F420911201309113013093C4
:10234000F8022093F702209110013091110121151C
:10235000310541F42DB73EB740911401509115015C
:10236000241B350BE091F702F091F802E217F30716
:10237000A0F42E1B3F0B2817390778F0AC014E5FF5
:102380005F4F2417350748F04E0F5F1F5093F80238
:102390004093F702819391939FCFF0E0E0E09CCFD0
:1023A000CF93DF930097E9F0FC01329713821282FA
:1023B000A091F902B091FA02ED0130E020E010970F
:1023C000A1F420813181820F931F2091F702309177
:1023D000F8022817390709F061C0F093F802E0937A
:1023E000F702DF91CF910895EA01CE17DF07E8F5F4
:1023F0004A815B819E0141155105B1F7E901FB83DB
:10240000EA8349915991C40FD51FEC17FD0761F478
:10241000808191810296840F951FE90199838883B9
:10242000828193819B838A83F0E0E0E012968D9114
:102430009C9113970097B9F52D913C911197CD017F
:102440000296820F931F2091F7023091F80228170D
:10245000390739F6309751F51092FA021092F902C5
:10246000B093F802A093F702BCCFD383C28340811C
:102470005181840F951FC817D90761F44E5F5F4FD4
:1024800088819981480F591F518340838A819B819C
:10249000938382832115310509F0B0CFF093FA02BE
:1024A000E093F9029ECFFD01DC01C0CF13821282BE
:1024B000D7CF81E090E0F8940C945E12F894FFCFAF
:1024C000770001B001B0010F36010F0101000000DB
:1024D0000000FB028000000000005102B101DE019B
:1024E0009E020F02ED01010200000000CC02C802B2
:1024F0000000FFFFAAAA8888555522221111CCCCD2
:102500009393B0B0C4C40D0A0053746172742E2E3C
:102510002E6C6574277320676F21004D617472699A
:102520007820736574757020646F6E650054696DF2
:0E253000657220736574757020646F6E6500AF
:00000001FF
