:100000000C9462000C9442050C941B050C948A001D
:100010000C948A000C948A000C948A000C948A0038
:100020000C948A000C948A000C948A000C948A0028
:100030000C948A000C94C1050C948A000C948A00DC
:100040000C94D1040C948A000C948F050C946905CF
:100050000C948A000C948A000C948A000C948A00F8
:100060000C948A000C948A000000000024002700F1
:100070002A0000000000250028002B0000000000DE
:1000800023002600290004040404040404040202DA
:100090000202020203030303030301020408102007
:1000A0004080010204081020010204081020000012
:1000B0000008000201000003040700000000000027
:1000C0000000930611241FBECFEFD8E0DEBFCDBFE6
:1000D00011E0A0E0B1E0EAE7F4E202C005900D9281
:1000E000AE37B107D9F722E0AEE7B1E001C01D920B
:1000F000A03FB207E1F710E0C2E6D0E004C02197CC
:10010000FE010E94CB0EC136D107C9F70E948007BD
:100110000C943B120C940000833081F028F4813061
:1001200099F08230A9F008958730A9F08830C9F09D
:100130008430B1F4809180008F7D03C08091800075
:100140008F7780938000089584B58F7784BD08955C
:1001500084B58F7DFBCF8091B0008F778093B00006
:1001600008958091B0008F7DF9CFCF93DF93282F32
:1001700030E0F901E255FF4F8491F901E656FF4F57
:10018000D491F901EA57FF4FC491CC23A1F081111A
:100190000E948C00EC2FF0E0EE0FFF1FE458FF4FA1
:1001A000A591B491EC91ED2381E090E009F480E019
:1001B000DF91CF91089580E090E0FACF1F93CF9325
:1001C000DF93282F30E0F901E255FF4F8491F901C8
:1001D000E656FF4FD491F901EA57FF4FC491CC2363
:1001E000A9F0162F81110E948C00EC2FF0E0EE0F89
:1001F000FF1FEE58FF4FA591B4918FB7F894EC9183
:10020000111108C0D095DE23DC938FBFDF91CF9111
:100210001F910895DE2BF8CFCF93DF9390E0FC0180
:10022000E656FF4F24918A579F4FFC018491882303
:10023000C9F090E0880F991FFC01E859FF4FA59184
:10024000B491FC01EE58FF4FC591D49161110DC0DE
:100250009FB7F8948C91209582238C9388812823D2
:1002600028839FBFDF91CF910895623051F49FB7EB
:10027000F8943C91822F809583238C93E8812E2BD8
:10028000EFCF8FB7F894EC912E2B2C938FBFEACF42
:100290008E50806480937C0080917A00806480938B
:1002A0007A0080917A0086FDFCCF80917800909151
:1002B000790008953FB7F8948091E7019091E801A3
:1002C000A091E901B091EA0126B5A89B05C02F3F96
:1002D00019F00196A11DB11D3FBFBA2FA92F982F6C
:1002E0008827BC01CD01620F711D811D911D42E067
:1002F000660F771F881F991F4A95D1F708952FB76A
:10030000F8946091E3017091E4018091E50190918E
:10031000E6012FBF08950895AF92BF92CF92DF926A
:10032000EF92FF920F931F93CF93DF936C017B01AA
:100330008B01040F151FEB015E01AE18BF08C0173B
:10034000D10759F06991D601ED91FC910190F081AE
:10035000E02DC6010995892B79F7C501DF91CF9171
:100360001F910F91FF90EF90DF90CF90BF90AF90D3
:100370000895FC01538D448D252F30E0842F90E0AB
:10038000821B930B541710F0CF9608950197089590
:10039000FC01918D828D981761F0A28DAE0FBF2F59
:1003A000B11D5D968C91928D9F5F9F73928F90E0AF
:1003B00008958FEF9FEF0895FC01918D828D98171E
:1003C00031F0828DE80FF11D858D90E008958FEF5B
:1003D0009FEF0895FC01918D228D892F90E0805C24
:1003E0009F4F821B91098F73992708958BEE91E09F
:1003F0000E94EA0121E0892B09F420E0822F089570
:1004000080E090E0892B29F00E94F60181110C9484
:1004100000000895FC01A48DA80FB92FB11DA35AA7
:10042000BF4F2C91848D90E001968F739927848F14
:10043000A689B7892C93A089B1898C918370806437
:100440008C93938D848D981306C00288F389E02DD8
:1004500080818F7D80830895EF92FF920F931F9389
:10046000CF93DF93EC0181E0888F9B8D8C8D981367
:100470001AC0E889F989808185FF15C09FB7F89473
:10048000EE89FF896083E889F989808183708064BF
:1004900080839FBF81E090E0DF91CF911F910F910A
:1004A000FF90EF900895F62E0B8D10E00F5F1F4F19
:1004B0000F731127E02E8C8D8E110CC00FB607FC28
:1004C000FACFE889F989808185FFF5CFCE010E94B6
:1004D0000A02F1CFEB8DEC0FFD2FF11DE35AFF4F18
:1004E000F0829FB7F8940B8FEA89FB898081806244
:1004F000CFCFCF93DF93EC01888D8823B9F0AA8901
:10050000BB89E889F9898C9185FD03C0808186FDCE
:100510000DC00FB607FCF7CF8C9185FFF2CF80811D
:1005200085FFEDCFCE010E940A02E9CFDF91CF9186
:1005300008951F93CF93DF93EC01162FE881F98183
:100540000280F381E02D0995198B1886E881F981E5
:100550000190F081E02DCE010995882319F088855E
:10056000836088870E947F016A837B838C839D835D
:10057000DF91CF911F910895FC01808580FD04C01B
:1005800082FB882780F9089580E00895862F642FE4
:100590000C940C01FC0181890E94B50021E0892B9B
:1005A00009F420E0822F08958F929F92AF92BF921C
:1005B000CF92DF92EF92FF92CF938091E101813051
:1005C00069F4E091E202F091E30296AD90FF06C07B
:1005D000C091CA01C1110CC08093CA01CF91FF9094
:1005E000EF90DF90CF90BF90AF909F908F90089545
:1005F00082E0C13089F30E947F01C0907F01D090DA
:100600008001E0908101F090820160937F017093FE
:10061000800180938101909382019B01AC012C1990
:100620003D094E095F0969017A0139E6C316D10413
:10063000E104F1042CF499E6C92ED12CE12CF12C23
:100640004BE0C41644E0D406E104F10434F08AE03F
:10065000C82E84E0D82EE12CF12CC701B6010E94EF
:10066000EF0F20E030E04AE752E40E9480104B0197
:100670005C016091080170E090E080E00E94EF0F63
:100680009B01AC01C501B4010E94450F9B01AC0167
:1006900060E070E080E897E40E94D80E0E94BE0FF0
:1006A000709384016093830160E67AEE80E090E0CD
:1006B000A70196010E94400E30930A012093090180
:1006C000C23009F08BCF809188029091890290937B
:1006D0008500809384001092020183E07DCFCF9249
:1006E000DF92EF92FF929C01205F3F4F70E060E04D
:1006F000FC0141915191CF01640F751F2E173F07E7
:10070000B9F790E080E00E94ED0F20E030E040E09B
:100710005EE30E9480106B017C0120E030E0A901C3
:100720000E947B1020E030E040E05FE387FD0CC0DA
:10073000C701B6010E94D90E0E94B70FCB01FF90EE
:10074000EF90DF90CF900895C701B6010E94D80EB8
:10075000F3CF0F931F93CF93DF938EE00E94480156
:10076000C0917E010C2F10E0000F111F0B571E4F80
:10077000BC01990F880B990B39E0660F771F881F12
:10078000991F3A95D1F72FEF33E040E050E00E94F7
:10079000400E265C3F4F4F4F5F4FF801318320835F
:1007A000CF5FC770C0937E0185E891E00E946F0320
:1007B000EC018091090190910A01C817D90730F422
:1007C0009C012C1B3D0B2330310548F48C179D07F1
:1007D000B8F49E01281B390B2330310588F00E94A4
:1007E0007F0168517C4F8F4F9F4F6093D40170936E
:1007F000D5018093D6019093D70181E08093D801F1
:10080000D0930A01C09309018091000190910101E8
:100810008C179D0719F18C1B9D0B0297F8F0BE01F8
:1008200090E080E00E94ED0F9B01AC0160EC71EE66
:1008300084E69AE40E94450F9B01AC0160E070E001
:1008400080E897E40E94D80E0E94B70F709384014D
:1008500060938301D0930101C09300011092CA01FB
:10086000DF91CF911F910F910895CF92DF92EF9278
:10087000FF920F931F93CF93DF9300D0CDB7DEB7D6
:1008800069834A83880F991F0091E0021091E10269
:10089000000F111FEAE8F2E09F012A5832402017AA
:1008A000310714F41192F8CF2981FC01E657FD4F6E
:1008B00021838A81808360E08091DE020E94DE00D5
:1008C0001016110604F501501109F801E657FD4F05
:1008D000E080D090DC02C090DA0288E0F82E6E2D25
:1008E000661F6627661F8C2D0E94DE00EE0C61E0FD
:1008F0008D2D0E94DE0060E08D2D0E94DE00FA94B6
:10090000F110EDCFDDCF61E08091DE020F900F900E
:10091000DF91CF911F910F91FF90EF90DF90CF90DB
:100920000C94DE00EF92FF920F931F93CF937C0104
:100930008C0183E0000F111F8A95E1F706561D4FC9
:10094000C1E0F80111928F0140E06C2FC7010E94B5
:100950003504CF5FC930A9F7CF911F910F91FF9058
:10096000EF900895CF93DF93FC0101900020E9F709
:100970003197AF01481B590BBC018BEE91E00E94EF
:100980008C01EC0142E050E066E471E08BEE91E016
:100990000E948C018C0F9D1FDF91CF9108950E94C2
:1009A00036121F920F920FB60F9211242F933F937E
:1009B0008F939F93AF93BF938091E3019091E40154
:1009C000A091E501B091E6013091E20123E0230F0F
:1009D0002D3758F50196A11DB11D2093E20180939A
:1009E000E3019093E401A093E501B093E6018091C7
:1009F000E7019091E801A091E901B091EA01019627
:100A0000A11DB11D8093E7019093E801A093E90136
:100A1000B093EA01BF91AF919F918F913F912F9138
:100A20000F900FBE0F901F90189526E8230F029687
:100A3000A11DB11DD2CF1F920F920FB60F9211249C
:100A40002F933F934F935F936F937F938F939F93D6
:100A5000AF93BF93EF93FF93E0910501F0910601EF
:100A60000995FF91EF91BF91AF919F918F917F91E8
:100A70006F915F914F913F912F910F900FBE0F900B
:100A80001F9018951F920F920FB60F9211242F935B
:100A90003F934F935F936F937F938F939F93AF9306
:100AA000BF93EF93FF93E0910301F0910401099547
:100AB000FF91EF91BF91AF919F918F917F916F9136
:100AC0005F914F913F912F910F900FBE0F901F900C
:100AD00018951F920F920FB60F9211242F933F93E8
:100AE0004F935F936F937F938F939F93AF93BF9336
:100AF000EF93FF938BEE91E00E940A02FF91EF913A
:100B0000BF91AF919F918F917F916F915F914F9125
:100B10003F912F910F900FBE0F901F9018951F922D
:100B20000F920FB60F9211242F938F939F93EF93F1
:100B3000FF93E091FB01F091FC018081E0910102C3
:100B4000F091020282FD1BC09081809104028F5FB0
:100B50008F7320910502821741F0E0910402F0E0CA
:100B6000E551FE4F958F80930402FF91EF919F9185
:100B70008F912F910F900FBE0F901F90189580812D
:100B8000F4CF1F920F920FB60F921124CF92DF92E3
:100B9000EF92FF922F933F934F935F936F937F93C7
:100BA0008F939F93AF93BF93EF93FF9380918802AE
:100BB000909189022091020121119BC090938500A0
:100BC0008093840081E08093020180910B0190E08A
:100BD00001966091070170E00E94B70EF82E809395
:100BE0000B01811108C08091D10190E001968170C4
:100BF00099278093D10161E08DE00E94DE0080E0C2
:100C000090E8A0E0B0E09C01AD0104C05595479587
:100C100037952795FA94D2F769017A018091E80215
:100C20009091E902B0E0A0E082239D21A423BF219E
:100C3000892B8A2B8B2B21F061E085E00E94DE005E
:100C40008091D201882301F18091D101811117C0D7
:100C50008091E6029091E702B0E0A0E08C219D2116
:100C6000AE21BF21892B8A2B8B2B71F161E086E0AD
:100C70000E94DE0061E087E00E94DE0025C08091D6
:100C8000E4029091E502E8CF8091E6029091E702BC
:100C9000B0E0A0E08C219D21AE21BF21892B8A2BC1
:100CA0008B2B21F061E086E00E94DE008091E4025F
:100CB0009091E502B0E0A0E08C219D21AE21BF2102
:100CC000892B8A2B8B2BB1F6FF91EF91BF91AF91BE
:100CD0009F918F917F916F915F914F913F912F9154
:100CE000FF90EF90DF90CF900F900FBE0F901F906E
:100CF0001895109202012091830130918401820F96
:100D0000931F909385008093840060E08DE00E94A3
:100D1000DE0060E085E00E94DE0060E086E00E9488
:100D2000DE0060E0A8CFCF93DF931092EE01109227
:100D3000ED0188EE93E0A0E0B0E08093EF019093A6
:100D4000F001A093F101B093F2018AE191E0909358
:100D5000EC018093EB0185EC90E09093F801809397
:100D6000F70184EC90E09093FA018093F90180EC14
:100D700090E09093FC018093FB0181EC90E09093D4
:100D8000FE018093FD0182EC90E09093000280933D
:100D9000FF0186EC90E09093020280930102109292
:100DA000040210920502109206021092070285E5D5
:100DB00095E59093EB028093EA028AEA9AEA90938F
:100DC000E9028093E8028FEF9FEF9093E702809310
:100DD000E60288E898E89093E5028093E4028AE5C9
:100DE00090E00E941111FC019C01265A3F4FCAE07D
:100DF000D0E04CE251E01282138214821582D78334
:100E0000C683108651834083118A72962E173F073E
:100E100091F79093E3028093E202D093DB02C093B8
:100E2000DA0288E090E09093DD028093DC0229E012
:100E300030E03093DF022093DE029093E102809352
:100E4000E00261E08AE00E940C0161E08091DC0236
:100E50000E940C0161E08091DE020E940C0161E0C1
:100E60008091DE020E94DE00D093DB02C093DA02A2
:100E7000EAE9F2E08AED92E011928E179F07E1F71E
:100E8000D0E0C0E08091E0029091E102C817D9075C
:100E900074F540E06FE0CE010E9435048091E002DD
:100EA0009091E102C817D9072CF447E06BE0CE011E
:100EB0000E94350440E069E0CE010E943504809133
:100EC000E0029091E102C817D9071CF4CE010E94FC
:100ED00092048091E0029091E102C817D9072CF4A6
:100EE00040E06CE0CE010E9435042196CBCF84E433
:100EF0009FEF9093890280938802DF91CF910895AC
:100F0000CF93DF9300D000D0CDB7DEB7789484B50F
:100F1000826084BD84B5816084BD85B5826085BDF5
:100F200085B5816085BD80916E00816080936E0083
:100F30001092810080918100826080938100809175
:100F40008100816080938100809180008160809326
:100F500080008091B10084608093B1008091B000E6
:100F600081608093B00080917A00846080937A00E1
:100F700080917A00826080937A0080917A0081600B
:100F800080937A0080917A00806880937A00109232
:100F9000C100E091FB01F091FC0182E08083E091CF
:100FA000F701F091F8011082E091F901F091FA0156
:100FB0008FEC808310920302E091FF01F091000218
:100FC00086E08083E091FD01F091FE0180818061E7
:100FD0008083E091FD01F091FE0180818860808333
:100FE000E091FD01F091FE01808180688083E091B5
:100FF000FD01F091FE0180818F7D808389E491E085
:101000000E94B20462E084E00E940C0161E085E08D
:101010000E940C0161E086E00E940C0161E087E023
:101020000E940C0161E08AE00E940C0161E088E00E
:101030000E940C0161E089E00E940C0161E08DE0FA
:101040000E940C0162E082E10E940C018091E202A8
:101050009091E30242E050E060E170E0885B9F4FD6
:101060000E9499028091E2029091E30250E040E0F8
:1010700062E070E0C6960E94990242E050E06CE0A7
:1010800070E08091E2029091E3020E9499028091C7
:10109000E2029091E30242E050E063E070E04296A9
:1010A0000E9499028091E2029091E30242E050E0B6
:1010B0006BE070E084960E949902E091E202F09168
:1010C000E30289E190E097838683918F808F93A7D5
:1010D00082A795AF84AFE85BFF4F9783868325E8AF
:1010E00031E03A832983B8EACB2EB1E0DB2E19EB4D
:1010F000E12E11E0F12E05E911E085E9A82E81E04D
:10110000B82E44244A9493E0592E612C712C8EE021
:101110000E944801BC01990F880B990BA9E0660F4A
:10112000771F881F991FAA95D1F7A30192010E94EA
:10113000400E265C3F4F4F4F5F4FA981BA812D93E0
:101140003D93BA83A98381E10E94480127E030E002
:10115000DC010E94D10EA30192010E94400E2F5F7C
:101160003F4F4F4F5F4FF601219331936F018FE057
:101170000E9448012FE030E0DC010E94D10EA30163
:1011800092010E94400E2F5F3F4F4F4F5F4FD7019C
:101190002D933D937D0183E10E9448012FE230E0D1
:1011A000DC010E94D10EA30192010E94400EF801C1
:1011B000219331938F0129813A81A216B30609F058
:1011C000A6CF8091E0029091E1021816190634F43E
:1011D00041E06CE090E080E00E9435048091E00204
:1011E0009091E1021816190634F441E06AE090E0AB
:1011F00080E00E9435048091E0029091E10218168F
:10120000190624F490E080E00E9492048BE591E0BE
:101210000E94B20484E00E94B5008093E10184ED55
:1012200092E09093040180930301809169008C7F88
:10123000816080936900E89A8091E101811102C088
:101240000E94A903F894109280001092810080916E
:101250008802909189029093850080938400809108
:10126000810084608093810080916F008160809311
:101270006F0078948DE691E00E94B204CC24CA9469
:10128000E3E0DE2EE12CF12CF4E62F2E312CBB24F2
:10129000B39484E00E94B500982F9B259093E101C0
:1012A000813011F40E94A9038091D001882309F4B0
:1012B000E9C183E10E9448012BE030E0DC010E949B
:1012C000D10EA70196010E94400E8091A601909137
:1012D000A7012B30310539F0220F331FF901E05DF2
:1012E000FE4F808191819093EB028093EA0210E09F
:1012F00000E0E091E202F091E302E00FF11FFA83D7
:10130000E98380858B7F8087DF010190F081E02D6C
:101310000190F081E02DCD010995A82EE981FA8197
:10132000808586958170A81609F4E8C10E947F0126
:10133000A981BA8112966D937D938D939C93159795
:1013400018968C91B2E08B27E981FA8180870E5E36
:101350001F4F0A35110569F62091E2023091E30230
:101360003A832983C90184960E94BC02882389F0AC
:101370002091CF018091D001882309F412C280917D
:10138000EA029091EB02211105C29093E902809349
:10139000E802A981BA8118968C9180FD07C08091DE
:1013A000CA01843019F483E08093CA0189819A814B
:1013B000885B9F4F0E94BC0281111092CA018FE08E
:1013C0000E944801A090C9010A2D10E0000F111FD2
:1013D00007541E4F2FE030E0DC010E94D10EA70120
:1013E00096010E94400E2F5F3F4F4F4F5F4FF80115
:1013F0003183208381E08A0D87708093C90189EB56
:1014000091E00E946F03182F80910701181789F04F
:101410000E947F0168517C4F8F4F9F4F6093D40192
:101420007093D5018093D6019093D701F2E0F093A9
:10143000D8011093070181E10E944801A090B801F2
:101440000A2D10E0000F111F08551E4F27E030E055
:10145000DC010E94D10EA70196010E94400E2F5F71
:101460003F4F4F4F5F4FD8012D933C9381E08A0D42
:1014700087708093B80188EA91E00E946F03182F6B
:1014800080910801181789F00E947F0168517C4FF4
:101490008F4F9F4F6093D4017093D5018093D601F5
:1014A0009093D70183E08093D80110930801E981DC
:1014B000FA81828D809581708093D001CF01429610
:1014C0000E94BC02882361F00E94E80D2FEF3FEFDD
:1014D00040E050E00E94400E7093A7016093A60187
:1014E00082E10E94B50021E0892B09F420E02093DD
:1014F000D2012091D8012983211186C18091E8026F
:101500009091E9029093E0018093DF011092DE0157
:101510008091E6029091E7029093DD018093DC01D7
:101520001092DB018091E4029091E5029093DA0140
:101530008093D90150910B01252F2695269526954C
:1015400030E0E7E0F0E0E21BF30B4091D30160E80C
:10155000469FC0011124577002C0959587955A95F2
:10156000E2F7E752FE4F5081582750835091D20145
:10157000552309F49DC25091D101E4E0F0E05523D8
:1015800011F0E1E0F0E0E21BF30BE752FE4F908137
:10159000892780834B254093D3018091D0018823F4
:1015A00009F490C28091EA029091EB022091CF0160
:1015B0007DEF7203F0011124E752FE4F978386837B
:1015C0001092CE0121E030E03A8329838091E0023D
:1015D0009091E102181619067CF4E981FA81E8522B
:1015E000FE4F4081E981FA81E657FD4F47876981C7
:1015F00090E080E00E94350449815A814F5F5F4F3F
:101600005A8349834930510509F70E945A01698379
:101610007A838B839C8384E1482E512C612C712C1E
:101620000E945A0129813A814B815C81621B730BB4
:10163000840B950B683E73408105910588F351E05A
:10164000451A51086108710869817A818B819C81F2
:1016500068517C4F8F4F9F4F69837A838B839C8324
:101660004114510461047104D9F680E090E0892BA3
:1016700009F40FCE0E94F601882309F40ACE0E94D5
:10168000000005CE83E10E9448011091A501412F81
:1016900050E0440F551F4B565E4F5A8349832FE24B
:1016A00030E0DC010E94D10EA70196010E94400E9D
:1016B000A981BA812D933C931F5F17701093A501E8
:1016C00085E991E00E946F03382F292F60E170E0D7
:1016D0000E94B70E482F8093CC01832F922F97FD45
:1016E0000F9654E0959587955A95E1F78093CF0131
:1016F000442309F4FCCD1092CE01F9CD0E947F0164
:10170000A981BA8112964D905D906D907C9015974D
:10171000AB01BC01441955096609770916968D91EC
:101720009C91B0E0A0E0481759076A077B0708F4CE
:101730000ECEE981FA8180858170A81609F407CE62
:101740000E947F01A981BA8112966D937D938D933A
:101750009C93159718968C9118978B2584601896F2
:101760008C930E947F01E981FA81418452846384D1
:101770007484641975098609970965877687878750
:10178000908B0E947F01E981FA816187728783874C
:101790009487DDCD213099F59093E7028093E6029E
:1017A000F8CD8091CC0140E050E860E070E004C0EA
:1017B00075956795579547958A95D2F7CA01211176
:1017C0000BC04091E8025091E902482759275093F5
:1017D000E9024093E802DDCD213059F42091E60280
:1017E0003091E702242739273093E7022093E6025D
:1017F000D0CD2091E4023091E50282279327909387
:10180000E5028093E402C5CD3981313009F043C04F
:101810008090090190900A011092D9011092DA018A
:101820001092DB011092DC011092DD011092DE01BA
:101830001092DF011092E001C401B1010E94A30ED9
:101840006330710509F445C0A0F56130710509F4F4
:1018500046C06230710509F43FC03091DF0120912C
:10186000DD01C401B1010E94A30E6AE070E00E9494
:10187000A30EFB013197E930F105A8F5EE5BF34FBC
:101880000C94CB0E7D0C830CAC0CB30CBA0CC40CBA
:10189000C60CD00CDF0C4981433021F48090080144
:1018A000912CBACF2981223009F0B6CF8090070160
:1018B000F7CF6530710539F048F06630710569F68B
:1018C00080E88093DB0180E88093DC0180E88093EE
:1018D000DD0180E88093DE0180E88093DF0180E80D
:1018E0008093E001BACF3E633093DF018091DE0147
:1018F00082628093DE012E630FC038603093DF0177
:10190000822F8061F6CF3E623093DF018091DE014D
:101910008A628093DE012A632093DD014091DB011E
:101920003091DA012091D901C4016AE070E00E948F
:10193000A30EFC013197E930F10508F050C0ED55D8
:10194000F34F0C94CB0EF70CFC0C1C0D210D260D47
:101950002E0D300D390D480D3A623093DF01809124
:10196000DE018A62C6CF38633093DF018091DE01E9
:101970008860BFCF3A633093DF018091DE018A62D5
:101980008093DE012E62C8CF3E63F5CF3062309384
:10199000DF01822F80628093DE012E632093DD01C0
:1019A0008091DF018E638093DF018091DE018A6286
:1019B0008093DE018091DD018E638093DD01809153
:1019C000DF018A638093DF018091DE018A62809368
:1019D000DE018091DD018E638093DD019FCF4E6338
:1019E0004093DB0132623093DA012E630CC0486011
:1019F0004093DB013061F7CF4E624093DB013A62E6
:101A00003093DA012A632093D9013981332309F411
:101A100091CD0E947F010091D4011091D5012091B8
:101A2000D6013091D701061717072807390708F0A4
:101A3000C9CD1092D801C6CD4A624093DB013A620B
:101A4000D2CF48634093DB013860CDCF4A634093E7
:101A5000DB013A623093DA012E62D5CF4E63F7CFC5
:101A600040624093DB0130623093DA012E632093B1
:101A7000D9018091DB018E638093DB018091DA01D3
:101A80008A628093DA018091D9018E638093D901B3
:101A90008091DB018A638093DB018091DA018A62A5
:101AA0008093DA018091D9018E638093D901ADCF03
:101AB000E4E0F0E0E21BF30BE752FE4F9081982741
:101AC00090835FCD8091CD01882391F18091CE01EB
:101AD00091E0980F9093CE01823308F073CD20915E
:101AE000CC013091CF01822F86958695869590E026
:101AF000A3E03A9F800D911D1124E7E0F0E0E81B80
:101B0000F90B3091CB01E752FE4FB0E83B9FC0018B
:101B10001124277002C0959587952A95E2F7908148
:101B2000892780833B253093CB011092CD014ACD8C
:101B3000E1E0E093CD0146CD8F929F92AF92BF92AC
:101B4000CF92DF92EF92FF92CF93DF93EC01688107
:101B500079818A819B81611571058105910521F447
:101B600064E279ED8BE597E02DE133EF41E050E061
:101B70000E94400E49015A019B01AC01A7EAB1E461
:101B80000E945F0E6B017C01ACEEB4EFA5019401E5
:101B90000E946D0EC60ED71EE81EF91EF7FE06C087
:101BA00081E0C81AD108E10880E8F80AC882D98221
:101BB000EA82FB82C701B6019F77DF91CF91FF9048
:101BC000EF90DF90CF90BF90AF909F908F9008954F
:101BD0008F929F92AF92BF92CF92DF92EF92FF923D
:101BE00060910C0170910D0180910E0190910F0197
:101BF000611571058105910521F464E279ED8BE5AC
:101C000097E02DE133EF41E050E00E94400E4901A2
:101C10005A019B01AC01A7EAB1E40E945F0E6B017F
:101C20007C01ACEEB4EFA50194010E946D0EC60ECE
:101C3000D71EE81EF91EF7FE06C081E0C81AD108BB
:101C4000E10880E8F80AC0920C01D0920D01E09200
:101C50000E01F0920F01C701B6019F77FF90EF9040
:101C6000DF90CF90BF90AF909F908F90089560933A
:101C70000C0170930D0180930E0190930F01089554
:101C8000052E97FB1EF400940E94570E57FD07D0B7
:101C90000E94720E07FC03D04EF40C94570E509520
:101CA0004095309521953F4F4F4F5F4F0895909548
:101CB0008095709561957F4F8F4F9F4F08950E943B
:101CC000940EA59F900DB49F900DA49F800D911D23
:101CD00011240895B7FF0C945F0E0E945F0E821BC3
:101CE000930B0895A1E21A2EAA1BBB1BFD010DC088
:101CF000AA1FBB1FEE1FFF1FA217B307E407F507BC
:101D000020F0A21BB30BE40BF50B661F771F881F97
:101D1000991F1A9469F760957095809590959B012D
:101D2000AC01BD01CF010895A29FB001B39FC001D6
:101D3000A39F700D811D1124911DB29F700D811DF7
:101D40001124911D0895AA1BBB1B51E107C0AA1FB6
:101D5000BB1FA617B70710F0A61BB70B881F991F4C
:101D60005A95A9F780959095BC01CD01089597FBF0
:101D7000072E16F4009407D077FD09D00E94A30E19
:101D800007FC05D03EF4909581959F4F089570957E
:101D900061957F4F0895EE0FFF1F0590F491E02DA0
:101DA00009940E94940EB7FF0895821B930B089527
:101DB0005058BB27AA270E94F00E0C9441100E9495
:101DC000331038F00E943A1020F039F49F3F19F494
:101DD00026F40C9430100EF4E095E7FB0C942A10D6
:101DE000E92F0E94521058F3BA176207730784074D
:101DF000950720F079F4A6F50C9474100EF4E09594
:101E00000B2EBA2FA02D0B01B90190010C01CA01B4
:101E1000A0011124FF27591B99F0593F50F4503E5F
:101E200068F11A16F040A22F232F342F4427585F51
:101E3000F3CF469537952795A795F0405395C9F769
:101E40007EF41F16BA0B620B730B840BBAF0915021
:101E5000A1F0FF0FBB1F661F771F881FC2F70EC0C0
:101E6000BA0F621F731F841F48F487957795679593
:101E7000B795F7959E3F08F0B0CF9395880F08F07F
:101E80009927EE0F9795879508950E94590F0C9406
:101E900041100E943A1058F00E94331040F029F48B
:101EA0005F3F29F00C942A1051110C9475100C947A
:101EB00030100E94521068F39923B1F3552391F327
:101EC000951B550BBB27AA2762177307840738F0A9
:101ED0009F5F5F4F220F331F441FAA1FA9F335D006
:101EE0000E2E3AF0E0E832D091505040E695001CBA
:101EF000CAF72BD0FE2F29D0660F771F881FBB1F74
:101F0000261737074807AB07B0E809F0BB0B802D51
:101F1000BF01FF2793585F4F3AF09E3F510578F07D
:101F20000C942A100C9475105F3FE4F3983ED4F3A0
:101F3000869577956795B795F7959F5FC9F7880F51
:101F4000911D9695879597F90895E1E0660F771FA3
:101F5000881FBB1F621773078407BA0720F0621B34
:101F6000730B840BBA0BEE1F88F7E09508950E945F
:101F7000BE0F6894B1110C94751008950E945A1008
:101F800088F09F5798F0B92F9927B751B0F0E1F03A
:101F9000660F771F881F991F1AF0BA95C9F714C0EA
:101FA000B13091F00E947410B1E008950C94741057
:101FB000672F782F8827B85F39F0B93FCCF3869523
:101FC00077956795B395D9F73EF490958095709580
:101FD00061957F4F8F4F9F4F0895E89409C097FBFD
:101FE0003EF490958095709561957F4F8F4F9F4FF0
:101FF0009923A9F0F92F96E9BB279395F695879534
:1020000077956795B795F111F8CFFAF4BB0F11F4F6
:1020100060FF1BC06F5F7F4F8F4F9F4F16C088239D
:1020200011F096E911C0772321F09EE8872F762FD3
:1020300005C0662371F096E8862F70E060E02AF014
:102040009A95660F771F881FDAF7880F9695879500
:1020500097F9089597F99F6780E870E060E0089528
:102060009FEF80EC089500240A94161617061806B0
:102070000906089500240A9412161306140605068C
:102080000895092E0394000C11F4882352F0BB0F1D
:1020900040F4BF2B11F460FF04C06F5F7F4F8F4F80
:1020A0009F4F089557FD9058440F551F59F05F3FBB
:1020B00071F04795880F97FB991F61F09F3F79F06A
:1020C00087950895121613061406551FF2CF4695EC
:1020D000F1DF08C0161617061806991FF1CF86956E
:1020E0007105610508940895E894BB276627772752
:1020F000CB0197F908950E94ED1008F48FEF089531
:102100000E9493100C9441100E94331038F00E94EA
:102110003A1020F0952311F00C942A100C943010F2
:1021200011240C9475100E94521070F3959FC1F306
:10213000950F50E0551F629FF001729FBB27F00D75
:10214000B11D639FAA27F00DB11DAA1F649F6627CA
:10215000B00DA11D661F829F2227B00DA11D621F19
:10216000739FB00DA11D621F839FA00D611D221FD3
:10217000749F3327A00D611D231F849F600D211DB7
:10218000822F762F6A2F11249F5750409AF0F1F03A
:1021900088234AF0EE0FFF1FBB1F661F771F881FA3
:1021A00091505040A9F79E3F510580F00C942A10A1
:1021B0000C9475105F3FE4F3983ED4F386957795C1
:1021C0006795B795F795E7959F5FC1F7FE2B880F49
:1021D000911D9695879597F90895990F0008550FC9
:1021E000AA0BE0E8FEEF16161706E807F907C0F09D
:1021F00012161306E407F50798F0621B730B840BA5
:10220000950B39F40A2661F0232B242B252B21F47E
:1022100008950A2609F4A140A6958FEF811D811D1E
:1022200008950F931F93CF93DF938230910510F49D
:1022300082E090E0E091EE02F091EF0230E020E0E9
:10224000B0E0A0E0309799F42115310509F44AC0B7
:10225000281B390B24303105D8F58A819B81611503
:10226000710589F1FB0193838283FE0111C04081D6
:1022700051810281138148175907E0F04817590727
:1022800099F4109761F012960C93129713961C9381
:102290003296CF01DF91CF911F910F910895009356
:1022A000EE021093EF02F4CF2115310551F04217E1
:1022B000530738F0A901DB019A01BD01DF01F801E4
:1022C000C1CFEF01F9CF9093EF028093EE02CDCF13
:1022D000FE01E20FF31F819391932250310939835C
:1022E0002883D7CF2091EC023091ED02232B41F4CB
:1022F00020911201309113013093ED022093EC02F2
:1023000020911001309111012115310541F42DB7B3
:102310003EB74091140150911501241B350BE091FB
:10232000EC02F091ED02E217F307A0F42E1B3F0B35
:102330002817390778F0AC014E5F5F4F2417350737
:1023400048F04E0F5F1F5093ED024093EC028193D3
:1023500091939FCFF0E0E0E09CCFCF93DF93009785
:10236000E9F0FC01329713821282A091EE02B09143
:10237000EF02ED0130E020E01097A1F420813181DF
:10238000820F931F2091EC023091ED02281739073C
:1023900009F061C0F093ED02E093EC02DF91CF9180
:1023A0000895EA01CE17DF07E8F54A815B819E01B7
:1023B00041155105B1F7E901FB83EA834991599130
:1023C000C40FD51FEC17FD0761F48081918102963F
:1023D000840F951FE90199838883828193819B8370
:1023E0008A83F0E0E0E012968D919C91139700971C
:1023F000B9F52D913C911197CD010296820F931F53
:102400002091EC023091ED022817390739F6309708
:1024100051F51092EF021092EE02B093ED02A093EC
:10242000EC02BCCFD383C28340815181840F951FBE
:10243000C817D90761F44E5F5F4F88819981480FB3
:10244000591F518340838A819B8193838283211505
:10245000310509F0B0CFF093EF02E093EE029ECF8A
:10246000FD01DC01C0CF13821282D7CF81E090E062
:0A247000F8940C943B12F894FFCF8F
:10247A007700018B018B010F0136010F010000006B
:10248A000000F0028000000000002C028C01B9015B
:10249A007902EA01C801DC0100000000CA02C60292
:1024AA000000FFFFAAAA8888555522221111CCCC18
:1024BA009393B0B0C4C40D0A0053746172742E2E83
:1024CA002E6C6574277320676F21004D61747269E1
:1024DA007820736574757020646F6E650054696D39
:0E24EA00657220736574757020646F6E6500F6
:00000001FF
