:100000000C9462000C94FC050C94D5050C948A00A9
:100010000C948A000C948A000C948A000C948A0038
:100020000C948A000C948A000C948A000C948A0028
:100030000C948A000C947B060C948A000C948A0021
:100040000C948B050C948A000C9449060C9423069E
:100050000C948A000C948A000C948A000C948A00F8
:100060000C948A000C948A000000000024002700F1
:100070002A0000000000250028002B0000000000DE
:1000800023002600290004040404040404040202DA
:100090000202020203030303030301020408102007
:1000A0004080010204081020010204081020000012
:1000B0000008000201000003040700000000000027
:1000C0000000C40611241FBECFEFD8E0DEBFCDBFB5
:1000D00011E0A0E0B1E0EAE0F2E202C005900D928A
:1000E000A238B107D9F722E0A2E8B1E001C01D9221
:1000F000AF3FB207E1F710E0C2E6D0E004C02197BD
:10010000FE010E949A0DC136D107C9F70E94B707B8
:100110000C9403110C940000833081F028F481309A
:1001200099F08230A9F008958730A9F08830C9F09D
:100130008430B1F4809180008F7D03C08091800075
:100140008F7780938000089584B58F7784BD08955C
:1001500084B58F7DFBCF8091B0008F778093B00006
:1001600008958091B0008F7DF9CFCF93DF93282F32
:1001700030E0F901E255FF4F8491F901E656FF4F57
:10018000D491F901EA57FF4FC491CC23A1F081111A
:100190000E948C00EC2FF0E0EE0FFF1FE458FF4FA1
:1001A000A591B491EC91ED2381E090E009F480E019
:1001B000DF91CF91089580E090E0FACF1F93CF9325
:1001C000DF93282F30E0F901E255FF4F8491F901C8
:1001D000E656FF4FD491F901EA57FF4FC491CC2363
:1001E000A9F0162F81110E948C00EC2FF0E0EE0F89
:1001F000FF1FEE58FF4FA591B4918FB7F894EC9183
:10020000111108C0D095DE23DC938FBFDF91CF9111
:100210001F910895DE2BF8CFCF93DF9390E0FC0180
:10022000E656FF4F24918A579F4FFC018491882303
:10023000C9F090E0880F991FFC01E859FF4FA59184
:10024000B491FC01EE58FF4FC591D49161110DC0DE
:100250009FB7F8948C91209582238C9388812823D2
:1002600028839FBFDF91CF910895623051F49FB7EB
:10027000F8943C91822F809583238C93E8812E2BD8
:10028000EFCF8FB7F894EC912E2B2C938FBFEACF42
:100290008E50806480937C0080917A00806480938B
:1002A0007A0080917A0086FDFCCF80917800909151
:1002B000790008953FB7F8948091F4019091F50189
:1002C000A091F601B091F70126B5A89B05C02F3F7C
:1002D00019F00196A11DB11D3FBFBA2FA92F982F6C
:1002E0008827BC01CD01620F711D811D911D42E067
:1002F000660F771F881F991F4A95D1F708952FB76A
:10030000F8946091F0017091F1018091F201909167
:10031000F3012FBF08951F93CF93DF93EC01162FA6
:10032000E881F9810280F381E02D42E050E00995F7
:10033000198B1886E881F9810190F081E02DCE01BA
:100340000995882319F08885836088870E947F013A
:100350006A837B838C839D83DF91CF911F91089566
:100360000895AF92BF92CF92DF92EF92FF920F93D8
:100370001F93CF93DF936C017B018B01040F151F3B
:10038000EB015E01AE18BF08C017D10759F06991A3
:10039000D601ED91FC910190F081E02DC601099507
:1003A000892B79F7C501DF91CF911F910F91FF90B4
:1003B000EF90DF90CF90BF90AF900895FC01538DE8
:1003C000448D252F30E0842F90E0821B930B54172F
:1003D00010F0CF96089501970895FC01918D828DBC
:1003E000981761F0A28DAE0FBF2FB11D5D968C9155
:1003F000928D9F5F9F73928F90E008958FEF9FEF94
:100400000895FC01918D828D981731F0828DE80F4F
:10041000F11D858D90E008958FEF9FEF0895FC0109
:10042000918D228D892F90E0805C9F4F821B9109D6
:100430008F739927089588EF91E00E940F0221E0C1
:10044000892B09F420E0822F089580E090E0892B29
:1004500029F00E941B0281110C9400000895FC01F8
:10046000A48DA80FB92FB11DA35ABF4F2C91848D15
:1004700090E001968F739927848FA689B7892C9372
:10048000A089B1898C91837080648C93938D848DC5
:10049000981306C00288F389E02D80818F7D8083C8
:1004A0000895EF92FF920F931F93CF93DF93EC0188
:1004B00081E0888F9B8D8C8D98131AC0E889F9890B
:1004C000808185FF15C09FB7F894EE89FF8960830E
:1004D000E889F98980818370806480839FBF81E08F
:1004E00090E0DF91CF911F910F91FF90EF900895D1
:1004F000F62E0B8D10E00F5F1F4F0F731127E02EAC
:100500008C8D8E110CC00FB607FCFACFE889F989E3
:10051000808185FFF5CFCE010E942F02F1CFEB8DB8
:10052000EC0FFD2FF11DE35AFF4FF0829FB7F894B7
:100530000B8FEA89FB8980818062CFCFCF93DF93D5
:10054000EC01888D8823B9F0AA89BB89E889F989EB
:100550008C9185FD03C0808186FD0DC00FB607FC20
:10056000F7CF8C9185FFF2CF808185FFEDCFCE0153
:100570000E942F02E9CFDF91CF910895FC01808581
:1005800080FD04C082FB882780F9089580E00895EB
:10059000862F642F0C940C01FC0181890E94B50008
:1005A00021E0892B09F420E0822F0895CF92DF9279
:1005B000EF92FF9280919502909196029093850020
:1005C0008093840081E0809304018091EE01882370
:1005D00021F08091E801811182C080910A0190E0B0
:1005E00001966091090170E00E946B0DF82E8093D6
:1005F0000A01811108C08091D40190E001968170B8
:1006000099278093D40161E08DE00E94DE0080E0B4
:1006100090E8A0E0B0E09C01AD0104C0559547957D
:1006200037952795FA94D2F769017A018091F702FC
:100630009091F802B0E0A0E082239D21A423BF2185
:10064000892B8A2B8B2B21F061E085E00E94DE0054
:100650008091D501882319F18091D40181111AC0AC
:100660008091F5029091F602B0E0A0E08C219D21EE
:10067000AE21BF21892B8A2B8B2B89F161E086E08B
:100680000E94DE0061E087E0FF90EF90DF90CF9066
:100690000C94DE008091F3029091F402E5CF8091FA
:1006A000F5029091F602B0E0A0E08C219D21AE21F0
:1006B000BF21892B8A2B8B2B21F061E086E00E94E1
:1006C000DE008091F3029091F402B0E0A0E08C2172
:1006D0009D21AE21BF21892B8A2B8B2B99F6FF9070
:1006E000EF90DF90CF900895CF92DF92EF92FF923C
:1006F000CF93DF93D091EE01D13019F582E00E94C3
:10070000B500892BF1F0C0910B01C63008F51092AD
:10071000880110928701109204011092E801D09193
:10072000ED01D11102C00E94D60281E08093E80160
:100730008D2F90E001966C2F70E00E946B0D8093DE
:10074000ED01DF91CF91FF90EF90DF90CF90089572
:100750000E947F016B017C011092E8010E94D60289
:10076000D093E8018091830190918401A09185014B
:10077000B0918601A7019601281B390B4A0B5B0B30
:10078000CA01B9012CEF2C0F30E050E040E00E948C
:10079000080D2093E4013093E5014093E601509366
:1007A000E7012C0D3D1D4E1D5F1D2093E901309387
:1007B000EA014093EB015093EC01C0928301D09287
:1007C0008401E0928501F0928601C550C093ED014D
:1007D000B8CFCF92DF92EF92FF929C01205F3F4F04
:1007E00070E060E0FC0141915191CF01640F751FF1
:1007F0002E173F07B9F790E080E00E94B50E20E089
:1008000030E040E05EE30E94480F6B017C0120E095
:1008100030E0A9010E94430F20E030E040E05FE3B8
:1008200087FD0CC0C701B6010E94A10D0E947F0E7A
:10083000CB01FF90EF90DF90CF900895C701B601F4
:100840000E94A00DF3CF0F931F93CF93DF938EE001
:100850000E944801C09182010C2F10E0000F111F6F
:1008600007571E4FBC01990F880B990B39E0660F93
:10087000771F881F991F3A95D1F72FEF33E040E09B
:1008800050E00E94080D265C3F4F4F4F5F4FF8012C
:1008900031832083CF5FC770C093820189E891E0E4
:1008A0000E94E903EC018091020190910301C817B5
:1008B000D90730F49C012C1B3D0B2330310548F443
:1008C0008C179D07B8F49E01281B390B2330310586
:1008D00088F00E947F0168517C4F8F4F9F4F60933B
:1008E000D7017093D8018093D9019093DA0181E008
:1008F0008093DB01D0930301C0930201809100013A
:10090000909101018C179D0719F18C1B9D0B02978B
:10091000F8F0BE0190E080E00E94B50E9B01AC01B2
:1009200060EC71EE84E69AE40E940D0E9B01AC012E
:1009300060E070E080E897E40E94A00D0E94860EBF
:100940007093880160938701D0930101C0930001E7
:10095000DF91CF911F910F910895CF92DF92EF9287
:10096000FF920F931F93CF93DF9300D0CDB7DEB7E5
:1009700069834A83880F991F0091EF021091F0025A
:10098000000F111FE9E9F2E09F01295932402017B9
:10099000310714F41192F8CF2981FC01E756FD4F7D
:1009A00021838A81808360E08091ED020E94DE00D5
:1009B0001016110604F501501109F801E756FD4F14
:1009C000E080D090EB02C090E90288E0F82E6E2D16
:1009D000661F6627661F8C2D0E94DE00EE0C61E00C
:1009E0008D2D0E94DE0060E08D2D0E94DE00FA94C5
:1009F000F110EDCFDDCF61E08091ED020F900F900F
:100A0000DF91CF911F910F91FF90EF90DF90CF90EA
:100A10000C94DE00EF92FF920F931F93CF937C0113
:100A20008C0183E0000F111F8A95E1F707551D4FD8
:100A3000C1E0F80111928F0140E06C2FC7010E94C4
:100A4000AD04CF5FC930A9F7CF911F910F91FF90EF
:100A5000EF900895FC0101900020E9F73197AF0174
:100A6000481B590BBC0188EF91E00C94B1018F92A7
:100A70009F92AF92BF920F931F93CF93DF93CDB707
:100A8000DEB7A1970FB6F894DEBF0FBECDBF19A297
:100A9000423008F44AE08E010F5D1F4F842E912CE6
:100AA000B12CA12CA50194010E943A0DE62FB901A9
:100AB000CA01EA30F4F4E05DD801EE938D01232BF6
:100AC000242B252B79F790E080E0109719F0CD01C9
:100AD0000E942A05A1960FB6F894DEBF0FBECDBFC7
:100AE000DF91CF911F910F91BF90AF909F908F900A
:100AF0000895E95CE1CFCF93DF930E942A05EC01D2
:100B000086E491E00E942A058C0F9D1FDF91CF9112
:100B100008950E94FE101F920F920FB60F9211249B
:100B20002F933F938F939F93AF93BF938091F00147
:100B30009091F101A091F201B091F3013091EF0198
:100B400023E0230F2D3758F50196A11DB11D2093E9
:100B5000EF018093F0019093F101A093F201B09323
:100B6000F3018091F4019091F501A091F601B0910B
:100B7000F7010196A11DB11D8093F4019093F50139
:100B8000A093F601B093F701BF91AF919F918F9120
:100B90003F912F910F900FBE0F901F90189526E850
:100BA000230F0296A11DB11DD2CF1F920F920FB637
:100BB0000F9211242F933F934F935F936F937F93E3
:100BC0008F939F93AF93BF93EF93FF93E0910701B0
:100BD000F09108010995FF91EF91BF91AF919F911D
:100BE0008F917F916F915F914F913F912F910F90D6
:100BF0000FBE0F901F9018951F920F920FB60F9275
:100C000011242F933F934F935F936F937F938F9311
:100C10009F93AF93BF93EF93FF93E0910501F09102
:100C200006010995FF91EF91BF91AF919F918F912F
:100C30007F916F915F914F913F912F910F900FBED8
:100C40000F901F9018951F920F920FB60F921124BC
:100C50002F933F934F935F936F937F938F939F93C4
:100C6000AF93BF93EF93FF9388EF91E00E942F0221
:100C7000FF91EF91BF91AF919F918F917F916F9174
:100C80005F914F913F912F910F900FBE0F901F904A
:100C900018951F920F920FB60F9211242F938F93D6
:100CA0009F93EF93FF93E0910802F09109028081F6
:100CB000E0910E02F0910F0282FD1BC090818091A5
:100CC00011028F5F8F7320911202821741F0E09121
:100CD0001102F0E0E850FE4F958F80931102FF91D2
:100CE000EF919F918F912F910F900FBE0F901F90BA
:100CF00018958081F4CF1F920F920FB60F92112496
:100D00002F933F934F935F936F937F938F939F9313
:100D1000AF93BF93EF93FF9380910401811113C0B0
:100D20000E94D602FF91EF91BF91AF919F918F9159
:100D30007F916F915F914F913F912F910F900FBED7
:100D40000F901F9018951092040180918701909147
:100D500088012091970230919802820F931F9093FF
:100D600085008093840060E08DE00E94DE0060E0FA
:100D700085E00E94DE0060E086E00E94DE0060E028
:100D800087E00E94DE00CECFCF93DF931092FB016D
:100D90001092FA0188EE93E0A0E0B0E08093FC01AD
:100DA0009093FD01A093FE01B093FF018AE191E0D1
:100DB0009093F9018093F80185EC90E090930502FF
:100DC0008093040284EC90E09093070280930602E3
:100DD00080EC90E0909309028093080281EC90E00F
:100DE00090930B0280930A0282EC90E090930D02A4
:100DF00080930C0286EC90E090930F0280930E0299
:100E00001092110210921202109213021092140208
:100E100085E595E59093FA028093F9028AEA9AEAC9
:100E20009093F8028093F7028FEF9FEF9093F60272
:100E30008093F50288E898E89093F4028093F30297
:100E400088E490E00E94D90FFC019C01285B3F4F91
:100E5000CAE0D0E04CE251E0128213821482158283
:100E6000D783C683108651834083118A72962E17CA
:100E70003F0791F79093F2028093F102D093EA0238
:100E8000C093E90288E090E09093EC028093EB023B
:100E900029E030E03093EE022093ED029093F002CF
:100EA0008093EF0261E08AE00E940C0161E0809192
:100EB000EB020E940C0161E08091ED020E940C01A6
:100EC00061E08091ED020E94DE00D093EA02C093BF
:100ED000E902E9EAF2E089EE92E011928E179F07AB
:100EE000E1F7D0E0C0E08091EF029091F002C817E6
:100EF000D90774F540E06FE0CE010E94AD04809107
:100F0000EF029091F002C817D9072CF447E06BE08C
:100F1000CE010E94AD0440E069E0CE010E94AD0424
:100F20008091EF029091F002C817D9071CF4CE010E
:100F30000E940A058091EF029091F002C817D9072C
:100F40002CF440E06CE0CE010E94AD042196CBCFA2
:100F50008BEB90E0909398028093970285E49FEF4B
:100F60009093960280939502DF91CF9108957894A3
:100F700084B5826084BD84B5816084BD85B582609E
:100F800085BD85B5816085BD80916E00816080934F
:100F90006E001092810080918100826080938100B8
:100FA00080918100816080938100809180008160C8
:100FB000809380008091B10084608093B100809123
:100FC000B00081608093B00080917A00846080934B
:100FD0007A0080917A00826080937A0080917A0012
:100FE000816080937A0080917A00806880937A0093
:100FF0001092C100E0910802F091090282E0808322
:10100000E0910402F09105021082E0910602F09155
:1010100007028FEC808310921002E0910C02F09195
:101020000D0286E08083E0910A02F0910B0280813C
:1010300080618083E0910A02F0910B0280818860D8
:101040008083E0910A02F0910B02808180688083A6
:10105000E0910A02F0910B0280818F7D808389E408
:1010600091E00E947B0562E084E00E940C0160E058
:1010700082E00E940C0161E085E00E940C0161E0C9
:1010800086E00E940C0161E087E00E940C0161E0B3
:101090008AE00E940C0161E088E00E940C0161E09E
:1010A00089E00E940C0161E08DE00E940C0162E089
:1010B00082E10E940C018091F1029091F20260E1C4
:1010C00070E0C6960E948B016CE070E08091F102A6
:1010D0009091F2020E948B018091F1029091F202B4
:1010E00063E070E042960E948B018091F102909142
:1010F000F2026BE070E084960E948B01E091F102B5
:10110000F091F20289E190E097838683918F808F3E
:1011100093A782A795AF84AFC9E8D1E0BCEACB2EF4
:10112000B1E0DB2E1DEBE12E11E0F12E09E911E01B
:1011300089E9A82E81E0B82E44244A9493E0592EE0
:10114000612C712C8EE00E944801BC01990F880B24
:10115000990BA9E0660F771F881F991FAA95D1F7F1
:10116000A30192010E94080D265C3F4F4F4F5F4F35
:101170002993399381E10E94480127E030E0DC01A6
:101180000E947F0DA30192010E94080D2F5F3F4F27
:101190004F4F5F4FF601219331936F018FE00E9413
:1011A00048012FE030E0DC010E947F0DA301920195
:1011B0000E94080D2F5F3F4F4F4F5F4FF701219364
:1011C00031937F0183E10E9448012FE230E0DC018E
:1011D0000E947F0DA30192010E94080DF801219346
:1011E00031938F01AC16BD0609F0ACCF8091EF02B0
:1011F0009091F0021816190634F441E06CE090E08A
:1012000080E00E94AD048091EF029091F0021816E8
:10121000190634F441E06AE090E080E00E94AD04F9
:101220008091EF029091F0021816190624F490E0D4
:1012300080E00E940A058BE591E00E947B0584E036
:101240000E94B50091E089278093EE0184E793E046
:101250009093060180930501809169008C7F8160E5
:1012600080936900E89A8091EE01811102C00E948A
:101270002304F894109280001092810080919502CE
:1012800090919602909385008093840080918100D4
:1012900084608093810080916F00816080936F00F3
:1012A00078948DE691E00E947B05CC24CA94E3E01B
:1012B000DE2EE12CF12CF7E02F2E312C11E003E093
:1012C0008091D301882309F410C283E10E94480170
:1012D0002BE030E0DC010E947F0DA70196010E9407
:1012E000080D8091AA019091AB012B30310539F0A6
:1012F000220F331FF901E05DFE4F808191819093B1
:10130000FA028093F90284E00E94B500982F912799
:101310009093EE01813011F40E942304B12CA12C92
:10132000C091F102D091F202CA0DDB1D88858B7F3E
:101330008887E881F9810190F081E02DCE0109953F
:10134000982E888586958170981609F407C20E94A8
:101350007F016A837B838C839D838885F2E08F275E
:10136000888722E1A20EB11C38E4A316B104C1F6AD
:10137000A090F102B090F202C50184960E94BE02D4
:10138000882389F02091D2018091D301882309F428
:1013900026C28091F9029091FA02211119C290930C
:1013A000F8028093F702C5010E94BE0281111092DB
:1013B0000A018FE00E9448019090CD01C92DD0E034
:1013C000CC0FDD1FC354DE4F2FE030E0DC010E9464
:1013D0007F0DA70196010E94080D2F5F3F4F4F4FD1
:1013E0005F4F3983288381E0890D87708093CD0119
:1013F0008DEB91E00E94E903C82F80910901C81785
:1014000089F00E947F0168517C4F8F4F9F4F6093FE
:10141000D7017093D8018093D9019093DA0152E0FB
:101420005093DB01C093090181E10E944801909033
:10143000BC01C92DD0E0CC0FDD1FC455DE4F27E025
:1014400030E0DC010E947F0DA70196010E94080D8B
:101450002F5F3F4F4F4F5F4F3983288381E0890DC6
:1014600087708093BC018CEA91E00E94E903C82F49
:1014700080910B01C81781F00E947F0168517C4F59
:101480008F4F9F4F6093D7017093D8018093D901FC
:101490009093DA010093DB01C0930B01F501828D7B
:1014A000809581708093D301C50142960E94BE024F
:1014B000882361F00E94B00C2FEF3FEF40E050E036
:1014C0000E94080D7093AB016093AA0182E10E9413
:1014D000B50021E0009709F420E02093D501109297
:1014E000DB012091F7023091F8023093E301209361
:1014F000E2011092E1012091F5023091F602309361
:10150000E0012093DF011092DE012091F30230917F
:10151000F4023093DD012093DC0170910A01472F22
:1015200046954695469550E0F101E41BF50B609118
:10153000D601A0E86A9F90011124777002C035950A
:1015400027957A95E2F7E452FE4F708172277083F7
:10155000892B09F477C18091D401E4E0F0E088237D
:1015600011F0E1E0F0E0E41BF50BE452FE4F808166
:101570002827208361276093D6018091D301882397
:1015800009F46AC18091F9029091FA022091D20186
:101590003DEF3203F0011124E452FE4F978386831E
:1015A0001092D1019CEDA92E91E0B92EC9E9D2E0AB
:1015B00088248394F50191905F018091EF029091CE
:1015C000F002181619063CF4988A492D682D90E00F
:1015D00080E00E94AD04692D70E090E080E04AE078
:1015E0000E9437058EE791E00E942A052196839498
:1015F000F9E08F12DFCF88E491E00E947B058091B3
:101600000B01863008F440C0C091EE01C130E1F515
:101610006091ED016623C1F170E090E080E04AE066
:101620000E94370586E491E00E942A050E947F010E
:101630008090E9019090EA01A090EB01B090EC015C
:10164000681579058A059B05FCF01092E8010E9457
:10165000D602C093E8018091ED0181508093ED01A5
:101660008091E4019091E501A091E601B091E7013C
:10167000880D991DAA1DBB1D8093E9019093EA0175
:10168000A093EB01B093EC010E945A012B013C01A5
:101690008AE0882E912CA12CB12C0E945A01641949
:1016A000750986099709683E734081059105A8F37D
:1016B00021E0821A9108A108B10838EE430E33E008
:1016C000531E611C711C81149104A104B10429F7FB
:1016D00060E070E0672B09F4F3CD0E941B028823C1
:1016E00009F4EDCD0E940000E9CD83E10E9448019C
:1016F000B090A901CB2DD0E0CC0FDD1FC756DE4F37
:101700002FE230E0DC010E947F0DA70196010E94CC
:10171000080D3983288381E08B0D87708093A901A0
:1017200089E991E00E94E903382F292F60E170E0F8
:101730000E946B0D482F8093CF01832F922F97FD2E
:101740000F9654E0959587955A95E1F78093D201CD
:10175000442309F4D8CD1092D101D5CD0E947F0148
:101760004A805B806C807D80AB01BC0144195509C7
:10177000660977098E819F81B0E0A0E0481759077C
:101780006A077B0708F4EDCD88858170981609F407
:10179000E8CD0E947F016A837B838C839D8388854B
:1017A0008127846088870E947F0149845A846B84E2
:1017B0007C8464197509860997096D877E878F87F0
:1017C000988B0E947F0169877A878B879C87C9CD18
:1017D000213099F59093F6028093F502E4CD809143
:1017E000CF0140E050E860E070E004C07595679577
:1017F000579547958A95D2F7CA0121110BC04091A0
:10180000F7025091F802482759275093F802409365
:10181000F702C9CD213059F42091F5023091F6023A
:10182000242739273093F6022093F502BCCD20916E
:10183000F3023091F402822793279093F40280936D
:10184000F302B1CDE4E0F0E0E41BF50BE452FE4F0F
:1018500080818227808385CE8091D001882381F189
:101860008091D10191E0980F9093D101823308F0DB
:1018700099CE2091CF013091D201822F8695869505
:10188000869590E0309F800D911D1124F101E81B99
:10189000F90B3091CE01E452FE4F40E8349FC00175
:1018A0001124277002C0959587952A95E2F79081BB
:1018B0008927808331273093CE011092D00172CED8
:1018C00051E05093D0016ECE8F929F92AF92BF9213
:1018D000CF92DF92EF92FF92CF93DF93EC0168817A
:1018E00079818A819B81611571058105910521F4BA
:1018F00064E279ED8BE597E02DE133EF41E050E0D4
:101900000E94080D49015A019B01AC01A7EAB1E40C
:101910000E94270D6B017C01ACEEB4EFA501940190
:101920000E94350DC60ED71EE81EF91EF7FE06C032
:1019300081E0C81AD108E10880E8F80AC882D98293
:10194000EA82FB82C701B6019F77DF91CF91FF90BA
:10195000EF90DF90CF90BF90AF909F908F900895C1
:101960008F929F92AF92BF92CF92DF92EF92FF92AF
:1019700060910C0170910D0180910E0190910F0109
:10198000611571058105910521F464E279ED8BE51E
:1019900097E02DE133EF41E050E00E94080D49014E
:1019A0005A019B01AC01A7EAB1E40E94270D6B012B
:1019B0007C01ACEEB4EFA50194010E94350DC60E7A
:1019C000D71EE81EF91EF7FE06C081E0C81AD1082E
:1019D000E10880E8F80AC0920C01D0920D01E09273
:1019E0000E01F0920F01C701B6019F77FF90EF90B3
:1019F000DF90CF90BF90AF909F908F9008956093AD
:101A00000C0170930D0180930E0190930F010895C6
:101A1000052E97FB1EF400940E941F0D57FD07D062
:101A20000E943A0D07FC03D04EF40C941F0D509504
:101A30004095309521953F4F4F4F5F4F08959095BA
:101A40008095709561957F4F8F4F9F4F08950E94AD
:101A50005C0DA59F900DB49F900DA49F800D911DCE
:101A600011240895B7FF0C94270D0E94270D821BA7
:101A7000930B0895A1E21A2EAA1BBB1BFD010DC0FA
:101A8000AA1FBB1FEE1FFF1FA217B307E407F5072E
:101A900020F0A21BB30BE40BF50B661F771F881F0A
:101AA000991F1A9469F760957095809590959B01A0
:101AB000AC01BD01CF010895A29FB001B39FC00149
:101AC000A39F700D811D1124911DB29F700D811D6A
:101AD0001124911D089597FB072E16F4009407D04A
:101AE00077FD09D00E94860D07FC05D03EF4909545
:101AF00081959F4F0895709561957F4F08950E943D
:101B00005C0DB7FF0895821B930B0895AA1BBB1BA6
:101B100051E107C0AA1FBB1FA617B70710F0A61BED
:101B2000B70B881F991F5A95A9F780959095BC010E
:101B3000CD010895EE0FFF1F0590F491E02D09945B
:101B40005058BB27AA270E94B80D0C94090F0E9479
:101B5000FB0E38F00E94020F20F039F49F3F19F479
:101B600026F40C94F80E0EF4E095E7FB0C94F20EBC
:101B7000E92F0E941A0F58F3BA17620773078407F8
:101B8000950720F079F4A6F50C943C0F0EF4E0953F
:101B90000B2EBA2FA02D0B01B90190010C01CA0127
:101BA000A0011124FF27591B99F0593F50F4503ED2
:101BB00068F11A16F040A22F232F342F4427585FC4
:101BC000F3CF469537952795A795F0405395C9F7DC
:101BD0007EF41F16BA0B620B730B840BBAF0915094
:101BE000A1F0FF0FBB1F661F771F881FC2F70EC033
:101BF000BA0F621F731F841F48F487957795679506
:101C0000B795F7959E3F08F0B0CF9395880F08F0F1
:101C10009927EE0F9795879508950E94210E0C94B1
:101C2000090F0E94020F58F00E94FB0E40F029F4A9
:101C30005F3F29F00C94F20E51110C943D0F0C945F
:101C4000F80E0E941A0F68F39923B1F3552391F30C
:101C5000951B550BBB27AA2762177307840738F01B
:101C60009F5F5F4F220F331F441FAA1FA9F335D078
:101C70000E2E3AF0E0E832D091505040E695001C2C
:101C8000CAF72BD0FE2F29D0660F771F881FBB1FE6
:101C9000261737074807AB07B0E809F0BB0B802DC4
:101CA000BF01FF2793585F4F3AF09E3F510578F0F0
:101CB0000C94F20E0C943D0F5F3FE4F3983ED4F386
:101CC000869577956795B795F7959F5FC9F7880FC4
:101CD000911D9695879597F90895E1E0660F771F16
:101CE000881FBB1F621773078407BA0720F0621BA7
:101CF000730B840BBA0BEE1F88F7E09508950E94D2
:101D0000860E6894B1110C943D0F08950E94220F25
:101D100088F09F5798F0B92F9927B751B0F0E1F0AC
:101D2000660F771F881F991F1AF0BA95C9F714C05C
:101D3000B13091F00E943C0FB1E008950C943C0F3B
:101D4000672F782F8827B85F39F0B93FCCF3869595
:101D500077956795B395D9F73EF4909580957095F2
:101D600061957F4F8F4F9F4F0895E89409C097FB6F
:101D70003EF490958095709561957F4F8F4F9F4F62
:101D80009923A9F0F92F96E9BB279395F6958795A6
:101D900077956795B795F111F8CFFAF4BB0F11F469
:101DA00060FF1BC06F5F7F4F8F4F9F4F16C0882310
:101DB00011F096E911C0772321F09EE8872F762F46
:101DC00005C0662371F096E8862F70E060E02AF087
:101DD0009A95660F771F881FDAF7880F9695879573
:101DE00097F9089597F99F6780E870E060E008959B
:101DF0009FEF80EC089500240A9416161706180623
:101E00000906089500240A941216130614060506FE
:101E10000895092E0394000C11F4882352F0BB0F8F
:101E200040F4BF2B11F460FF04C06F5F7F4F8F4FF2
:101E30009F4F089557FD9058440F551F59F05F3F2D
:101E400071F04795880F97FB991F61F09F3F79F0DC
:101E500087950895121613061406551FF2CF46955E
:101E6000F1DF08C0161617061806991FF1CF8695E0
:101E70007105610508940895E894BB2766277727C4
:101E8000CB0197F908950E94B50F08F48FEF0895DC
:101E90000E945B0F0C94090F0E94FB0E38F00E9409
:101EA000020F20F0952311F00C94F20E0C94F80E12
:101EB00011240C943D0F0E941A0F70F3959FC1F3EB
:101EC000950F50E0551F629FF001729FBB27F00DE8
:101ED000B11D639FAA27F00DB11DAA1F649F66273D
:101EE000B00DA11D661F829F2227B00DA11D621F8C
:101EF000739FB00DA11D621F839FA00D611D221F46
:101F0000749F3327A00D611D231F849F600D211D29
:101F1000822F762F6A2F11249F5750409AF0F1F0AC
:101F200088234AF0EE0FFF1FBB1F661F771F881F15
:101F300091505040A9F79E3F510580F00C94F20E4D
:101F40000C943D0F5F3FE4F3983ED4F3869577956C
:101F50006795B795F795E7959F5FC1F7FE2B880FBB
:101F6000911D9695879597F90895990F0008550F3B
:101F7000AA0BE0E8FEEF16161706E807F907C0F00F
:101F800012161306E407F50798F0621B730B840B17
:101F9000950B39F40A2661F0232B242B252B21F4F1
:101FA00008950A2609F4A140A6958FEF811D811D91
:101FB00008950F931F93CF93DF938230910510F410
:101FC00082E090E0E091FD02F091FE0230E020E03E
:101FD000B0E0A0E0309799F42115310509F44AC02A
:101FE000281B390B24303105D8F58A819B81611576
:101FF000710589F1FB0193838283FE0111C0408149
:1020000051810281138148175907E0F04817590799
:1020100099F4109761F012960C93129713961C93F3
:102020003296CF01DF91CF911F910F9108950093C8
:10203000FD021093FE02F4CF2115310551F0421735
:10204000530738F0A901DB019A01BD01DF01F80156
:10205000C1CFEF01F9CF9093FE028093FD02CDCF67
:10206000FE01E20FF31F81939193225031093983CE
:102070002883D7CF2091FB023091FC02232B41F41F
:1020800020911201309113013093FC022093FB0246
:1020900020911001309111012115310541F42DB726
:1020A0003EB74091140150911501241B350BE0916E
:1020B000FB02F091FC02E217F307A0F42E1B3F0B8A
:1020C0002817390778F0AC014E5F5F4F24173507AA
:1020D00048F04E0F5F1F5093FC024093FB02819328
:1020E00091939FCFF0E0E0E09CCFCF93DF930097F8
:1020F000E9F0FC01329713821282A091FD02B091A7
:10210000FE02ED0130E020E01097A1F42081318142
:10211000820F931F2091FB023091FC022817390790
:1021200009F061C0F093FC02E093FB02DF91CF91D4
:102130000895EA01CE17DF07E8F54A815B819E0129
:1021400041155105B1F7E901FB83EA8349915991A2
:10215000C40FD51FEC17FD0761F4808191810296B1
:10216000840F951FE90199838883828193819B83E2
:102170008A83F0E0E0E012968D919C91139700978E
:10218000B9F52D913C911197CD010296820F931FC5
:102190002091FB023091FC022817390739F630975D
:1021A00051F51092FE021092FD02B093FC02A09332
:1021B000FB02BCCFD383C28340815181840F951F22
:1021C000C817D90761F44E5F5F4F88819981480F26
:1021D000591F518340838A819B8193838283211578
:1021E000310509F0B0CFF093FE02E093FD029ECFDF
:1021F000FD01DC01C0CF13821282D7CF81E090E0D5
:0A220000F8940C940311F894FFCF3A
:10220A007700360101B001B0010F0F010100000093
:10221A000000FF028000000000005102B101DE014F
:10222A009E020F02ED01010200000000CC02C8026A
:10223A000000FFFFAAAA8888555522221111CCCC8A
:10224A009393B0B0C4C40D0A0053746172742E2EF5
:10225A002E6C6574277320676F21004D6174726953
:10226A007820736574757020646F6E650054696DAB
:10227A00657220736574757020646F6E6500202D19
:02228A00200032
:00000001FF
