:100000000C9462000C945D050C9436050C948A00E7
:100010000C948A000C948A000C948A000C948A0038
:100020000C948A000C948A000C948A000C948A0028
:100030000C948A000C94DC050C948A000C948A00C1
:100040000C94EC040C948A000C94AA050C9484057E
:100050000C948A000C948A000C948A000C948A00F8
:100060000C948A000C948A000000000024002700F1
:100070002A0000000000250028002B0000000000DE
:1000800023002600290004040404040404040202DA
:100090000202020203030303030301020408102007
:1000A0004080010204081020010204081020000012
:1000B0000008000201000003040700000000000027
:1000C00000008E0611241FBECFEFD8E0DEBFCDBFEB
:1000D00011E0A0E0B1E0EEECF0E202C005900D927C
:1000E000AC39B107D9F723E0ACE9B1E001C01D920A
:1000F000A830B207E1F710E0C2E6D0E004C02197D3
:10010000FE010E94FC0CC136D107C9F70E94790795
:100110000C9465100C940000833081F028F4813039
:1001200099F08230A9F008958730A9F08830C9F09D
:100130008430B1F4809180008F7D03C08091800075
:100140008F7780938000089584B58F7784BD08955C
:1001500084B58F7DFBCF8091B0008F778093B00006
:1001600008958091B0008F7DF9CFCF93DF93282F32
:1001700030E0F901E255FF4F8491F901E656FF4F57
:10018000D491F901EA57FF4FC491CC23A1F081111A
:100190000E948C00EC2FF0E0EE0FFF1FE458FF4FA1
:1001A000A591B491EC91ED2381E090E009F480E019
:1001B000DF91CF91089580E090E0FACF1F93CF9325
:1001C000DF93282F30E0F901E255FF4F8491F901C8
:1001D000E656FF4FD491F901EA57FF4FC491CC2363
:1001E000A9F0162F81110E948C00EC2FF0E0EE0F89
:1001F000FF1FEE58FF4FA591B4918FB7F894EC9183
:10020000111108C0D095DE23DC938FBFDF91CF9111
:100210001F910895DE2BF8CFCF93DF9390E0FC0180
:10022000E656FF4F24918A579F4FFC018491882303
:10023000C9F090E0880F991FFC01E859FF4FA59184
:10024000B491FC01EE58FF4FC591D49161110DC0DE
:100250009FB7F8948C91209582238C9388812823D2
:1002600028839FBFDF91CF910895623051F49FB7EB
:10027000F8943C91822F809583238C93E8812E2BD8
:10028000EFCF8FB7F894EC912E2B2C938FBFEACF42
:100290008E50806480937C0080917A00806480938B
:1002A0007A0080917A0086FDFCCF80917800909151
:1002B000790008953FB7F8948091FF019091000272
:1002C000A0910102B091020226B5A89B05C02F3F64
:1002D00019F00196A11DB11D3FBFBA2FA92F982F6C
:1002E0008827BC01CD01620F711D811D911D42E067
:1002F000660F771F881F991F4A95D1F708952FB76A
:10030000F8946091FB017091FC018091FD01909146
:10031000FE012FBF08950895AF92BF92CF92DF9252
:10032000EF92FF920F931F93CF93DF936C017B01AA
:100330008B01040F151FEB015E01AE18BF08C0173B
:10034000D10759F06991D601ED91FC910190F081AE
:10035000E02DC6010995892B79F7C501DF91CF9171
:100360001F910F91FF90EF90DF90CF90BF90AF90D3
:100370000895FC01538D448D252F30E0842F90E0AB
:10038000821B930B541710F0CF9608950197089590
:10039000FC01918D828D981761F0A28DAE0FBF2F59
:1003A000B11D5D968C91928D9F5F9F73928F90E0AF
:1003B00008958FEF9FEF0895FC01918D828D98171E
:1003C00031F0828DE80FF11D858D90E008958FEF5B
:1003D0009FEF0895FC01918D228D892F90E0805C24
:1003E0009F4F821B91098F739927089583E092E0B4
:1003F0000E94EA0121E0892B09F420E0822F089570
:1004000080E090E0892B29F00E94F60181110C9484
:1004100000000895FC01A48DA80FB92FB11DA35AA7
:10042000BF4F2C91848D90E001968F739927848F14
:10043000A689B7892C93A089B1898C918370806437
:100440008C93938D848D981306C00288F389E02DD8
:1004500080818F7D80830895EF92FF920F931F9389
:10046000CF93DF93EC0181E0888F9B8D8C8D981367
:100470001AC0E889F989808185FF15C09FB7F89473
:10048000EE89FF896083E889F989808183708064BF
:1004900080839FBF81E090E0DF91CF911F910F910A
:1004A000FF90EF900895F62E0B8D10E00F5F1F4F19
:1004B0000F731127E02E8C8D8E110CC00FB607FC28
:1004C000FACFE889F989808185FFF5CFCE010E94B6
:1004D0000A02F1CFEB8DEC0FFD2FF11DE35AFF4F18
:1004E000F0829FB7F8940B8FEA89FB898081806244
:1004F000CFCFCF93DF93EC01888D8823B9F0AA8901
:10050000BB89E889F9898C9185FD03C0808186FDCE
:100510000DC00FB607FCF7CF8C9185FFF2CF80811D
:1005200085FFEDCFCE010E940A02E9CFDF91CF9186
:1005300008951F93CF93DF93EC01162FE881F98183
:100540000280F381E02D0995198B1886E881F981E5
:100550000190F081E02DCE010995882319F088855E
:10056000836088870E947F016A837B838C839D835D
:10057000DF91CF911F910895FC01808580FD04C01B
:1005800082FB882780F9089580E00895862F642FE4
:100590000C940C01FC0181890E94B50021E0892B9B
:1005A00009F420E0822F08958F929F92AF92BF921C
:1005B000CF92DF92EF92FF92CF938091F901813039
:1005C00069F4E091FA02F091FB0296AD90FF06C04B
:1005D000C091E801C1110CC08093E801CF91FF9058
:1005E000EF90DF90CF90BF90AF909F908F90089545
:1005F00082E0C13089F30E947F01C0909D01D090BC
:100600009E01E0909F01F090A00160939D01709386
:100610009E0180939F019093A0019B01AC012C1936
:100620003D094E095F0969017A0139E6C316D10413
:10063000E104F1042CF499E6C92ED12CE12CF12C23
:100640004BE0C41644E0D406E104F10434F08AE03F
:10065000C82E84E0D82EE12CF12CC701B6010E94EF
:10066000190E20E030E04AE752E40E94AA0E4B0146
:100670005C016091080170E090E080E00E94190E3A
:100680009B01AC01C501B4010E946F0D9B01AC013F
:1006900060E070E080E897E40E94020D0E94E80D9F
:1006A0007093A2016093A10160E67AEE80E090E091
:1006B000A70196010E946A0C30930B0120930A0156
:1006C000C23009F08BCF8091A0029091A10290934B
:1006D0008500809384001092020183E07DCFCF9249
:1006E000DF92EF92FF929C01205F3F4F70E060E04D
:1006F000FC0141915191CF01640F751F2E173F07E7
:10070000B9F790E080E00E94170E20E030E040E072
:100710005EE30E94AA0E6B017C0120E030E0A9019B
:100720000E94A50E20E030E040E05FE387FD0CC0B2
:10073000C701B6010E94030D0E94E10DCB01FF909D
:10074000EF90DF90CF900895C701B6010E94020D8F
:10075000F3CF0F931F93CF93DF938EE00E94480156
:10076000C0919C010C2F10E0000F111F0D551E4F62
:10077000BC01990F880B990B39E0660F771F881F12
:10078000991F3A95D1F72FEF33E040E050E00E94F7
:100790006A0C265C3F4F4F4F5F4FF8013183208337
:1007A000CF5FC770C0939C0183EA91E00E946F0302
:1007B000EC0190930B0180930A01809100019091CC
:1007C0000101C817D90719F18C1B9D0B0297F8F08E
:1007D000BE0190E080E00E94170E9B01AC0160EC2E
:1007E00071EE84E69AE40E946F0D9B01AC0160E01B
:1007F00070E080E897E40E94020D0E94E10D709382
:10080000A2016093A101D0930101C0930001109255
:10081000E801DF91CF911F910F910895CF92DF9260
:10082000EF92FF920F931F93CF93DF9300D0CDB73A
:10083000DEB769834A83880F991F0091F8021091EF
:10084000F902000F111FE2EAF2E09F01225A324042
:100850002017310714F41192F8CF2981FC01EE55CD
:10086000FD4F21838A81808360E08091F6020E949F
:10087000DE001016110604F501501109F801EE55BD
:10088000FD4FE080D090F402C090F20288E0F82E94
:100890006E2D661F6627661F8C2D0E94DE00EE0CF3
:1008A00061E08D2D0E94DE0060E08D2D0E94DE0053
:1008B000FA94F110EDCFDDCF61E08091F6020F9058
:1008C0000F90DF91CF911F910F91FF90EF90DF90EC
:1008D000CF900C94DE00EF92FF920F931F93CF9373
:1008E0007C018C0183E0000F111F8A95E1F70E5403
:1008F0001D4FC1E0F80111928F0140E06C2FC7013C
:100900000E940E04CF5FC930A9F7CF911F910F91BC
:10091000FF90EF900895FC0101900020E9F73197D6
:10092000AF01481B590BBC0183E092E00C948C0191
:100930008F929F92AF92BF920F931F93CF93DF93AB
:10094000CDB7DEB7A1970FB6F894DEBF0FBECDBF0F
:1009500019A2423008F44AE08E010F5D1F4F842E29
:10096000912CB12CA12CA50194010E949C0CE62F86
:10097000B901CA01EA30F4F4E05DD801EE938D01CB
:10098000232B242B252B79F790E080E0109719F08A
:10099000CD010E948B04A1960FB6F894DEBF0FBE66
:1009A000CDBFDF91CF911F910F91BF90AF909F90DE
:1009B0008F900895E95CE1CFCF93DF930E948B0481
:1009C000EC0186E491E00E948B048C0F9D1FDF9167
:1009D000CF9108950E9460101F920F920FB60F9250
:1009E00011242F933F938F939F93AF93BF93809145
:1009F000FB019091FC01A091FD01B091FE013091AD
:100A0000FA0123E0230F2D3758F50196A11DB11DE2
:100A10002093FA018093FB019093FC01A093FD01C8
:100A2000B093FE018091FF0190910002A09101021C
:100A3000B09102020196A11DB11D8093FF01909318
:100A40000002A0930102B0930202BF91AF919F9167
:100A50008F913F912F910F900FBE0F901F9018957F
:100A600026E8230F0296A11DB11DD2CF1F920F922F
:100A70000FB60F9211242F933F934F935F936F9371
:100A80007F938F939F93AF93BF93EF93FF93E091E7
:100A90000501F09106010995FF91EF91BF91AF918A
:100AA0009F918F917F916F915F914F913F912F9186
:100AB0000F900FBE0F901F9018951F920F920FB6B8
:100AC0000F9211242F933F934F935F936F937F93D4
:100AD0008F939F93AF93BF93EF93FF93E0910301A5
:100AE000F09104010995FF91EF91BF91AF919F9112
:100AF0008F917F916F915F914F913F912F910F90C7
:100B00000FBE0F901F9018951F920F920FB60F9265
:100B100011242F933F934F935F936F937F938F9302
:100B20009F93AF93BF93EF93FF9383E092E00E9474
:100B30000A02FF91EF91BF91AF919F918F917F91A9
:100B40006F915F914F913F912F910F900FBE0F903A
:100B50001F9018951F920F920FB60F9211242F938A
:100B60008F939F93EF93FF93E0911302F091140200
:100B70008081E0911902F0911A0282FD1BC09081E0
:100B800080911C028F5F8F7320911D02821741F0AC
:100B9000E0911C02F0E0ED5FFD4F958F80931C0209
:100BA000FF91EF919F918F912F910F900FBE0F901A
:100BB0001F9018958081F4CF1F920F920FB60F925D
:100BC0001124CF92DF92EF92FF922F933F934F9396
:100BD0005F936F937F938F939F93AF93BF93EF93A5
:100BE000FF938091A0029091A10220910201211116
:100BF00078C0909385008093840081E08093020107
:100C00008091070190E001966091090170E00E94D7
:100C1000CD0CF82E80930701811108C08091EF015F
:100C200090E00196817099278093EF0161E081E067
:100C30000E94DE0080E090E8A0E0B0E09C01AD0101
:100C400004C05595479537952795FA94D2F76901D1
:100C50007A018091000390910103B0E0A0E082232B
:100C60009D21A423BF21892B8A2B8B2B21F061E0AE
:100C700085E00E94DE008091FE029091FF02B0E0CC
:100C8000A0E08C219D21AE21BF21892B8A2B8B2BAB
:100C900021F061E086E00E94DE008091FC029091EC
:100CA000FD02B0E0A0E08C219D21AE21BF2161E0DA
:100CB000892B8A2B8B2B71F5FF91EF91BF91AF910F
:100CC0009F918F917F916F915F914F913F912F9164
:100CD000FF90EF90DF90CF900F900FBE0F901F907E
:100CE0001895109202012091A1013091A201820F6A
:100CF000931F909385008093840060E081E00E94C0
:100D0000DE0060E085E00E94DE0060E086E00E9498
:100D1000DE0060E087E00E94DE00CECFCF93DF935D
:100D2000109206021092050288EE93E0A0E0B0E077
:100D30008093070290930802A0930902B0930A02DD
:100D40008AE191E0909304028093030285EC90E0A5
:100D50009093100280930F0284EC90E09093120223
:100D60008093110280EC90E0909314028093130220
:100D700081EC90E0909316028093150282EC90E053
:100D8000909318028093170286EC90E090931A02D9
:100D90008093190210921C0210921D0210921E02E2
:100DA00010921F0285E595E590930303809302035B
:100DB0008AEA9AEA90930103809300038FEF9FEFF2
:100DC0009093FF028093FE021092FD021092FC02AB
:100DD0008AE590E00E943B0FFC019C01265A3F4FA0
:100DE000CAE0D0E04CE251E01282138214821582F4
:100DF000D783C683108651834083118A72962E173B
:100E00003F0791F79093FB028093FA02D093F3028D
:100E1000C093F20288E090E09093F5028093F40290
:100E200029E030E03093F7022093F6029093F90224
:100E30008093F80261E08AE00E940C0161E08091F9
:100E4000F4020E940C0161E08091F6020E940C0104
:100E500061E08091F6020E94DE00D093F302C0931D
:100E6000F202E2EBF2E082EF92E011928E179F071E
:100E7000E1F7D0E0C0E08091F8029091F902C81744
:100E8000D90774F540E06FE0CE010E940E04809116
:100E9000F8029091F902C817D9072CF447E06BE0EB
:100EA000CE010E940E0440E069E0CE010E940E04D3
:100EB0008091F8029091F902C817D9071CF4CE016D
:100EC0000E946B048091F8029091F902C817D9072B
:100ED0002CF440E06CE0CE010E940E042196CBCFB2
:100EE00084E49FEF9093A1028093A002DF91CF91C1
:100EF0000895789484B5826084BD84B5816084BD92
:100F000085B5826085BD85B5816085BD80916E00A7
:100F1000816080936E0010928100809181008260D8
:100F20008093810080918100816080938100809115
:100F300080008160809380008091B1008460809304
:100F4000B1008091B00081608093B00080917A0000
:100F5000846080937A0080917A00826080937A0026
:100F600080917A00816080937A0080917A00806815
:100F700080937A001092C100E0911302F091140264
:100F800082E08083E0910F02F09110021082E091E4
:100F90001102F09112028FEC808310921B02E091FB
:100FA0001702F091180286E08083E0911502F0911B
:100FB0001602808180618083E0911502F091160213
:100FC000808188608083E0911502F0911602808113
:100FD00080688083E0911502F091160280818F7DF8
:100FE000808389E491E00E94DC0460E084E00E9458
:100FF0000C0161E085E00E940C0161E086E00E9446
:101000000C0161E087E00E940C0161E08AE00E942F
:101010000C0161E088E00E940C0161E089E00E941F
:101020000C0161E081E00E940C0160E080E00E9420
:101030000C018091FA029091FB0242E050E06DE0D9
:1010400070E0885B9F4F0E9499028091FA02909114
:10105000FB0250E040E062E070E0C6960E94990218
:1010600050E040E06CE070E08091FA029091FB0269
:101070000E9499028091FA029091FB0242E050E0B6
:1010800063E070E042960E9499028091FA0290918A
:10109000FB0242E050E06BE070E084960E9499020F
:1010A000C12CD12C7601D0E0C0E009E110E0E09144
:1010B000FA02F091FB02EC0FFD1F178306834AE052
:1010C000C701B6010E94980486E491E00E948B0457
:1010D00062962FEFC21AD20AE20AF20ACA35D10585
:1010E00031F7C3EAD1E0B6ECCB2EB1E0DB2E17ED41
:1010F000E12E11E0F12E03EB11E083EBA82E81E04D
:10110000B82E44244A9493E0592E612C712C8EE021
:101110000E944801BC01990F880B990BA9E0660F4A
:10112000771F881F991FAA95D1F7A30192010E94EA
:101130006A0C265C3F4F4F4F5F4F2993399381E1F3
:101140000E94480127E030E0DC010E94E10CA3018D
:1011500092010E946A0C2F5F3F4F4F4F5F4FF60185
:10116000219331936F018FE00E9448012FE030E01E
:10117000DC010E94E10CA30192010E946A0C2F5F26
:101180003F4F4F4F5F4FF701219331937F0183E131
:101190000E9448012FE230E0DC010E94E10CA30133
:1011A00092010E946A0CF801219331938F01AC16D1
:1011B000BD0609F0ACCF8091F8029091F9021816A3
:1011C000190634F441E06CE090E080E00E940E04E7
:1011D0008091F8029091F9021816190634F441E052
:1011E0006AE090E080E00E940E048091F802909105
:1011F000F9021816190624F490E080E00E946B04AE
:101200008BE591E00E94DC0484E00E94B5008093AD
:10121000F90184ED92E090930401809303018091A1
:1012200069008C7F816080936900E89A8091F90160
:10123000811102C00E94A903F894109280001092BC
:1012400081008091A0029091A102909385008093EB
:1012500084008091810084608093810080916F0080
:10126000816080936F0078948DE691E00E94DC04A9
:10127000CC24CA94F3E0DF2EE12CF12CE0E02E2EFA
:10128000E0E03E2E84E00E94B5008093F9018111D8
:1012900002C00E94A9038091EE01882309F492C143
:1012A00083E10E9448012BE030E0DC010E94E10C68
:1012B000A70196010E946A0C8091C4019091C5011A
:1012C0002B30310539F0220F331FF901E05DFE4F5D
:1012D00080819181909303038093020310E000E0EA
:1012E000C091FA02D091FB02C00FD11F88858B7F7D
:1012F0008887E881F9810190F081E02DCE01099580
:10130000782E888586958170781609F493C10E949D
:101310007F016A837B838C839D838885F2E08F279E
:1013200088870E5E1F4F0A351105D1F6C091FA026B
:10133000D091FB02CE0184960E94BC02882389F0E2
:101340002091ED018091EE01882309F4B5C18091CF
:101350000203909103032111A8C19093010380938C
:101360000003888580FF07C08091E801843019F46C
:1013700053E05093E801CE01885B9F4F0E94BC026E
:1013800081111092E8018FE00E9448017090E701FE
:10139000072D10E0000F111F09521E4F2FE030E003
:1013A000DC010E94E10CA70196010E946A0C2F5FEC
:1013B0003F4F4F4F5F4FF8013183208381E0870D0E
:1013C00087708093E70187ED91E00E946F0380931F
:1013D000090181E10E9448017090D601072D10E0BB
:1013E000000F111F0A531E4F27E030E0DC010E945E
:1013F000E10CA70196010E946A0C2F5F3F4F4F4FEF
:101400005F4FF8013183208381E0870D87708093DF
:10141000D60186EC91E00E946F03809308018A8DCB
:10142000809581708093EE01CE0142960E94BC02AD
:10143000882361F00E94120C2FEF3FEF40E050E054
:101440000E946A0C7093C5016093C40180910003EF
:10145000909101039093F1018093F2011092F301B6
:101460008091FE029091FF029093F4018093F50128
:101470001092F6018091FC029091FD029093F70189
:101480008093F80130910701E32FE695E695E69504
:10149000F0E02091F001EF50FE4F40E8249FC001A2
:1014A0001124377002C0959587953A95E2F790819F
:1014B0008927808351E025272093F0018091EE0158
:1014C000882309F42CC18091020390910303E091D9
:1014D000ED0163E0E69FF0011124EF50FE4F908391
:1014E00081831092EC01C1E0D0E08091F8029091EC
:1014F000F902181619066CF4FE01E051FE4F408106
:10150000FE01EE55FD4F47876C2F90E080E00E9472
:101510000E042196C930D10541F760910A017091FE
:101520000B0190E080E04AE00E9498048EE791E091
:101530000E948B046091090170E090E080E04AE035
:101540000E9498048FE891E00E948B04609108014A
:1015500070E090E080E04AE00E94980486E491E028
:101560000E948B040E945A014B015C018AE0482EC4
:10157000512C612C712C0E945A01681979098A0931
:101580009B09683E734081059105A8F371E0471AF5
:1015900051086108710888EE880E83E0981EA11C2E
:1015A000B11C411451046104710429F72114310460
:1015B00009F468CE0E94F601882309F45FCE0E94E8
:1015C00000005CCE83E10E9448011091C301C12F4D
:1015D000D0E0CC0FDD1FCD54DE4F2FE230E0DC0138
:1015E0000E94E10CA70196010E946A0C39832883AE
:1015F0001F5F17701093C30183EB91E00E946F038C
:10160000382F292F60E170E00E94CD0C482F809385
:10161000EA01832F922F97FD0F9654E095958795B9
:101620005A95E1F78093ED01442309F457CE1092C7
:10163000EC0154CE0E947F018A809B80AC80BD80EB
:10164000AB01BC01481959096A097B098E819F8148
:10165000B0E0A0E0481759076A077B0708F461CE9D
:1016600088858170781609F45CCE0E947F016A83B8
:101670007B838C839D83888521E082278460888793
:101680000E947F0149845A846B847C8464197509A3
:10169000860997096D877E878F87988B0E947F01C7
:1016A00069877A878B879C873CCE213099F5909308
:1016B000FF028093FE0255CE8091EA0140E050E89F
:1016C00060E070E004C075956795579547958A95D9
:1016D000D2F7CA0121110BC04091000350910103C0
:1016E0004827592750930103409300033ACE2130F5
:1016F00059F42091FE023091FF02242739273093BC
:10170000FF022093FE022DCE2091FC023091FD02BB
:10171000822793279093FD028093FC0222CE809132
:10172000EB01882379F18091EC0191E0980F90937F
:10173000EC01823308F0D7CE3091EA018091ED01BF
:10174000E32FE695E695E695F0E073E0879FE00DE0
:10175000F11D11242091E901EF50FE4F40E8249F34
:10176000C0011124377002C0959587953A95E2F72C
:1017700090818927808351E025272093E9011092E9
:10178000EB01B1CE61E06093EB01ADCE8F929F9201
:10179000AF92BF92CF92DF92EF92FF92CF93DF93FF
:1017A000EC01688179818A819B81611571058105D0
:1017B000910521F464E279ED8BE597E02DE133EFBB
:1017C00041E050E00E946A0C49015A019B01AC01C2
:1017D000A7EAB1E40E94890C6B017C01ACEEB4EF86
:1017E000A50194010E94970CC60ED71EE81EF91E93
:1017F000F7FE06C081E0C81AD108E10880E8F80ABF
:10180000C882D982EA82FB82C701B6019F77DF9145
:10181000CF91FF90EF90DF90CF90BF90AF909F90CF
:101820008F9008958F929F92AF92BF92CF92DF9246
:10183000EF92FF9260910C0170910D0180910E0169
:1018400090910F01611571058105910521F464E204
:1018500079ED8BE597E02DE133EF41E050E00E9418
:101860006A0C49015A019B01AC01A7EAB1E40E944C
:10187000890C6B017C01ACEEB4EFA50194010E94D0
:10188000970CC60ED71EE81EF91EF7FE06C081E0B3
:10189000C81AD108E10880E8F80AC0920C01D09279
:1018A0000D01E0920E01F0920F01C701B6019F7782
:1018B000FF90EF90DF90CF90BF90AF909F908F9070
:1018C000089560930C0170930D0180930E01909325
:1018D0000F010895052E97FB1EF400940E94810CC1
:1018E00057FD07D00E949C0C07FC03D04EF40C94CB
:1018F000810C50954095309521953F4F4F4F5F4F4C
:10190000089590958095709561957F4F8F4F9F4F6B
:1019100008950E94BE0CA59F900DB49F900DA49FAA
:10192000800D911D11240895B7FF0C94890C0E941D
:10193000890C821B930B0895A1E21A2EAA1BBB1BD4
:10194000FD010DC0AA1FBB1FEE1FFF1FA217B3078B
:10195000E407F50720F0A21BB30BE40BF50B661FA1
:10196000771F881F991F1A9469F760957095809565
:1019700090959B01AC01BD01CF010895A29FB001DC
:10198000B39FC001A39F700D811D1124911DB29FB3
:10199000700D811D1124911D089597FB072E16F4DB
:1019A000009407D077FD09D00E94E80C07FC05D011
:1019B0003EF4909581959F4F0895709561957F4F66
:1019C00008950E94BE0CB7FF0895821B930B0895E3
:1019D000AA1BBB1B51E107C0AA1FBB1FA617B70755
:1019E00010F0A61BB70B881F991F5A95A9F7809571
:1019F0009095BC01CD010895EE0FFF1F0590F49165
:101A0000E02D09945058BB27AA270E941A0D0C9468
:101A10006B0E0E945D0E38F00E94640E20F039F4C7
:101A20009F3F19F426F40C945A0E0EF4E095E7FB50
:101A30000C94540EE92F0E947C0E58F3BA176207DB
:101A400073078407950720F079F4A6F50C949E0E91
:101A50000EF4E0950B2EBA2FA02D0B01B9019001C9
:101A60000C01CA01A0011124FF27591B99F0593F0D
:101A700050F4503E68F11A16F040A22F232F342F55
:101A80004427585FF3CF469537952795A795F040A3
:101A90005395C9F77EF41F16BA0B620B730B840BB8
:101AA000BAF09150A1F0FF0FBB1F661F771F881F70
:101AB000C2F70EC0BA0F621F731F841F48F48795C8
:101AC00077956795B795F7959E3F08F0B0CF9395BA
:101AD000880F08F09927EE0F9795879508950E9433
:101AE000830D0C946B0E0E94640E58F00E945D0EE4
:101AF00040F029F45F3F29F00C94540E51110C94DE
:101B00009F0E0C945A0E0E947C0E68F39923B1F339
:101B1000552391F3951B550BBB27AA276217730713
:101B2000840738F09F5F5F4F220F331F441FAA1FA7
:101B3000A9F335D00E2E3AF0E0E832D09150504063
:101B4000E695001CCAF72BD0FE2F29D0660F771F11
:101B5000881FBB1F261737074807AB07B0E809F0F7
:101B6000BB0B802DBF01FF2793585F4F3AF09E3F7C
:101B7000510578F00C94540E0C949F0E5F3FE4F3E3
:101B8000983ED4F3869577956795B795F7959F5FBF
:101B9000C9F7880F911D9695879597F90895E1E00B
:101BA000660F771F881FBB1F621773078407BA076A
:101BB00020F0621B730B840BBA0BEE1F88F7E095C5
:101BC00008950E94E80D6894B1110C949F0E089539
:101BD0000E94840E88F09F5798F0B92F9927B7512B
:101BE000B0F0E1F0660F771F881F991F1AF0BA95C1
:101BF000C9F714C0B13091F00E949E0EB1E0089573
:101C00000C949E0E672F782F8827B85F39F0B93F64
:101C1000CCF3869577956795B395D9F73EF4909573
:101C20008095709561957F4F8F4F9F4F0895E894F1
:101C300009C097FB3EF490958095709561957F4F14
:101C40008F4F9F4F9923A9F0F92F96E9BB279395C2
:101C5000F695879577956795B795F111F8CFFAF4D2
:101C6000BB0F11F460FF1BC06F5F7F4F8F4F9F4F03
:101C700016C0882311F096E911C0772321F09EE861
:101C8000872F762F05C0662371F096E8862F70E0C7
:101C900060E02AF09A95660F771F881FDAF7880FA1
:101CA0009695879597F9089597F99F6780E870E072
:101CB00060E008959FEF80EC089500240A941616C2
:101CC000170618060906089500240A94121613062A
:101CD000140605060895092E0394000C11F48823B8
:101CE00052F0BB0F40F4BF2B11F460FF04C06F5FD4
:101CF0007F4F8F4F9F4F089557FD9058440F551FAA
:101D000059F05F3F71F04795880F97FB991F61F07D
:101D10009F3F79F087950895121613061406551FF4
:101D2000F2CF4695F1DF08C0161617061806991F60
:101D3000F1CF86957105610508940895E894BB2755
:101D400066277727CB0197F908950E94170F08F4AB
:101D50008FEF08950E94BD0E0C946B0E0E945D0ED5
:101D600038F00E94640E20F0952311F00C94540E6C
:101D70000C945A0E11240C949F0E0E947C0E70F34A
:101D8000959FC1F3950F50E0551F629FF001729F20
:101D9000BB27F00DB11D639FAA27F00DB11DAA1F2F
:101DA000649F6627B00DA11D661F829F2227B00D7C
:101DB000A11D621F739FB00DA11D621F839FA00D07
:101DC000611D221F749F3327A00D611D231F849F57
:101DD000600D211D822F762F6A2F11249F575040AE
:101DE0009AF0F1F088234AF0EE0FFF1FBB1F661F29
:101DF000771F881F91505040A9F79E3F510580F0F2
:101E00000C94540E0C949F0E5F3FE4F3983ED4F371
:101E1000869577956795B795F795E7959F5FC1F795
:101E2000FE2B880F911D9695879597F90895990F28
:101E30000008550FAA0BE0E8FEEF16161706E80794
:101E4000F907C0F012161306E407F50798F0621BB5
:101E5000730B840B950B39F40A2661F0232B242B8A
:101E6000252B21F408950A2609F4A140A6958FEFA9
:101E7000811D811D08950F931F93CF93DF938230AF
:101E8000910510F482E090E0E0910603F0910703E1
:101E900030E020E0B0E0A0E0309799F42115310562
:101EA00009F44AC0281B390B24303105D8F58A8142
:101EB0009B816115710589F1FB0193838283FE018A
:101EC00011C0408151810281138148175907E0F008
:101ED0004817590799F4109761F012960C931297CE
:101EE00013961C933296CF01DF91CF911F910F91E2
:101EF00008950093060310930703F4CF21153105CD
:101F000051F04217530738F0A901DB019A01BD01D6
:101F1000DF01F801C1CFEF01F9CF90930703809360
:101F20000603CDCFFE01E20FF31F81939193225060
:101F3000310939832883D7CF2091040330910503D9
:101F4000232B41F4209112013091130130930503AA
:101F500020930403209110013091110121153105C6
:101F600041F42DB73EB74091140150911501241B47
:101F7000350BE0910403F0910503E217F307A0F499
:101F80002E1B3F0B2817390778F0AC014E5F5F4FCF
:101F90002417350748F04E0F5F1F509305034093F9
:101FA0000403819391939FCFF0E0E0E09CCFCF9327
:101FB000DF930097E9F0FC01329713821282A0911F
:101FC0000603B0910703ED0130E020E01097A1F483
:101FD00020813181820F931F2091040330910503EA
:101FE0002817390709F061C0F0930503E093040353
:101FF000DF91CF910895EA01CE17DF07E8F54A8116
:102000005B819E0141155105B1F7E901FB83EA832C
:1020100049915991C40FD51FEC17FD0761F48081D8
:1020200091810296840F951FE901998388838281AB
:1020300093819B838A83F0E0E0E012968D919C91DE
:1020400013970097B9F52D913C911197CD01029608
:10205000820F931F2091040330910503281739073D
:1020600039F6309751F51092070310920603B0939A
:102070000503A0930403BCCFD383C2834081518165
:10208000840F951FC817D90761F44E5F5F4F888191
:102090009981480F591F518340838A819B81938383
:1020A00082832115310509F0B0CFF0930703E09347
:1020B00006039ECFFD01DC01C0CF13821282D7CF71
:0E20C00081E090E0F8940C946510F894FFCF46
:1020CE007700018B018B010F010F3601010000001B
:1020DE00000008038000000000002C028C01B901F2
:1020EE007902EA01C801DC0100000000CA02C60242
:1020FE000000FFFFAAAA8888555522221111CCCCC8
:10210E009393B0B0C4C40D0A0053746172742E2E32
:10211E002E6C6574277320676F21004D6174726990
:10212E007820736574757020646F6E650054696DE8
:10213E00657220736574757020646F6E6500203A49
:10214E0062706D202D206C656E6774683A200020D9
:0C215E002D20646976696465723A2000E7
:00000001FF
