:100000000C9462000C946F050C9448050C948A00C3
:100010000C948A000C948A000C948A000C948A0038
:100020000C948A000C948A000C948A000C948A0028
:100030000C948A000C94EE050C948A000C948A00AF
:100040000C94FE040C948A000C94BC050C94960548
:100050000C948A000C948A000C948A000C948A00F8
:100060000C948A000C948A000000000024002700F1
:100070002A0000000000250028002B0000000000DE
:1000800023002600290004040404040404040202DA
:100090000202020203030303030301020408102007
:1000A0004080010204081020010204081020000012
:1000B0000008000201000003040700000000000027
:1000C0000000370611241FBECFEFD8E0DEBFCDBF42
:1000D00011E0A0E0B1E0EAEEF3E202C005900D927B
:1000E000AE37B107D9F722E0AEE7B1E001C01D920B
:1000F000AF3EB207E1F710E0C2E6D0E004C02197BE
:10010000FE010E94830EC136D107C9F70E942A075B
:100110000C94F3110C940000833081F028F48130AA
:1001200099F08230A9F008958730A9F08830C9F09D
:100130008430B1F4809180008F7D03C08091800075
:100140008F7780938000089584B58F7784BD08955C
:1001500084B58F7DFBCF8091B0008F778093B00006
:1001600008958091B0008F7DF9CFCF93DF93282F32
:1001700030E0F901E255FF4F8491F901E656FF4F57
:10018000D491F901EA57FF4FC491CC23A1F081111A
:100190000E948C00EC2FF0E0EE0FFF1FE458FF4FA1
:1001A000A591B491EC91ED2381E090E009F480E019
:1001B000DF91CF91089580E090E0FACF1F93CF9325
:1001C000DF93282F30E0F901E255FF4F8491F901C8
:1001D000E656FF4FD491F901EA57FF4FC491CC2363
:1001E000A9F0162F81110E948C00EC2FF0E0EE0F89
:1001F000FF1FEE58FF4FA591B4918FB7F894EC9183
:10020000111108C0D095DE23DC938FBFDF91CF9111
:100210001F910895DE2BF8CFCF93DF9390E0FC0180
:10022000E656FF4F24918A579F4FFC018491882303
:10023000C9F090E0880F991FFC01E859FF4FA59184
:10024000B491FC01EE58FF4FC591D49161110DC0DE
:100250009FB7F8948C91209582238C9388812823D2
:1002600028839FBFDF91CF910895623051F49FB7EB
:10027000F8943C91822F809583238C93E8812E2BD8
:10028000EFCF8FB7F894EC912E2B2C938FBFEACF42
:100290008E50806480937C0080917A00806480938B
:1002A0007A0080917A0086FDFCCF80917800909151
:1002B000790008953FB7F8948091E4019091E501A9
:1002C000A091E601B091E70126B5A89B05C02F3F9C
:1002D00019F00196A11DB11D3FBFBA2FA92F982F6C
:1002E0008827BC01CD01620F711D811D911D42E067
:1002F000660F771F881F991F4A95D1F708952FB76A
:10030000F8946091E0017091E1018091E201909197
:10031000E3012FBF08950895AF92BF92CF92DF926D
:10032000EF92FF920F931F93CF93DF936C017B01AA
:100330008B01040F151FEB015E01AE18BF08C0173B
:10034000D10759F06991D601ED91FC910190F081AE
:10035000E02DC6010995892B79F7C501DF91CF9171
:100360001F910F91FF90EF90DF90CF90BF90AF90D3
:100370000895FC01538D448D252F30E0842F90E0AB
:10038000821B930B541710F0CF9608950197089590
:10039000FC01918D828D981761F0A28DAE0FBF2F59
:1003A000B11D5D968C91928D9F5F9F73928F90E0AF
:1003B00008958FEF9FEF0895FC01918D828D98171E
:1003C00031F0828DE80FF11D858D90E008958FEF5B
:1003D0009FEF0895FC01918D228D892F90E0805C24
:1003E0009F4F821B91098F739927089588EE91E0A2
:1003F0000E94EA0121E0892B09F420E0822F089570
:1004000080E090E0892B29F00E94F60181110C9484
:1004100000000895FC01A48DA80FB92FB11DA35AA7
:10042000BF4F2C91848D90E001968F739927848F14
:10043000A689B7892C93A089B1898C918370806437
:100440008C93938D848D981306C00288F389E02DD8
:1004500080818F7D80830895EF92FF920F931F9389
:10046000CF93DF93EC0181E0888F9B8D8C8D981367
:100470001AC0E889F989808185FF15C09FB7F89473
:10048000EE89FF896083E889F989808183708064BF
:1004900080839FBF81E090E0DF91CF911F910F910A
:1004A000FF90EF900895F62E0B8D10E00F5F1F4F19
:1004B0000F731127E02E8C8D8E110CC00FB607FC28
:1004C000FACFE889F989808185FFF5CFCE010E94B6
:1004D0000A02F1CFEB8DEC0FFD2FF11DE35AFF4F18
:1004E000F0829FB7F8940B8FEA89FB898081806244
:1004F000CFCFCF93DF93EC01888D8823B9F0AA8901
:10050000BB89E889F9898C9185FD03C0808186FDCE
:100510000DC00FB607FCF7CF8C9185FFF2CF80811D
:1005200085FFEDCFCE010E940A02E9CFDF91CF9186
:1005300008951F93CF93DF93EC01162FE881F98183
:100540000280F381E02D0995198B1886E881F981E5
:100550000190F081E02DCE010995882319F088855E
:10056000836088870E947F016A837B838C839D835D
:10057000DF91CF911F910895FC01808580FD04C01B
:1005800082FB882780F9089580E00895862F642FE4
:100590000C940C01FC0181890E94B50021E0892B9B
:1005A00009F420E0822F0895CF92DF92EF92FF921C
:1005B00080918502909186029093850080938400BB
:1005C00081E0809302018091DE01882321F08091F7
:1005D0008001811182C080910B0190E001966091B1
:1005E000070170E00E946F0EF82E80930B018111BD
:1005F00008C08091CE0190E0019681709927809388
:10060000CE0161E08DE00E94DE0080E090E8A0E095
:10061000B0E09C01AD0104C05595479537952795ED
:10062000FA94D2F769017A018091E7029091E80289
:10063000B0E0A0E082239D21A423BF21892B8A2B37
:100640008B2B21F061E085E00E94DE008091CF01DC
:10065000882319F18091CE0181111AC08091E502A1
:100660009091E602B0E0A0E08C219D21AE21BF2157
:10067000892B8A2B8B2B89F161E086E00E94DE00BA
:1006800061E087E0FF90EF90DF90CF900C94DE0068
:100690008091E3029091E402E5CF8091E502909190
:1006A000E602B0E0A0E08C219D21AE21BF21892B84
:1006B0008A2B8B2B21F061E086E00E94DE00809186
:1006C000E3029091E402B0E0A0E08C219D21AE21F4
:1006D000BF21892B8A2B8B2B99F6FF90EF90DF900F
:1006E000CF900895CF93DF938091DE01813019F58B
:1006F00082E00E94B500892BF1F0D0910801D6303C
:10070000D0F4109282011092810110920201109295
:100710008001C0917F01C11102C00E94D40281E01A
:10072000809380018C2F90E001966D2F70E00E94E5
:100730006F0E80937F01DF91CF910895CF92DF926A
:10074000EF92FF929C01205F3F4F70E060E0FC0160
:1007500041915191CF01640F751F2E173F07B9F7D3
:1007600090E080E00E94A50F20E030E040E05EE3F2
:100770000E9438106B017C0120E030E0A9010E944A
:10078000331020E030E040E05FE387FD0CC0C7019C
:10079000B6010E94910E0E946F0FCB01FF90EF9067
:1007A000DF90CF900895C701B6010E94900EF3CF5D
:1007B0000F931F93CF93DF938EE00E944801C09167
:1007C0007E010C2F10E0000F111F0D571E4FBC01B2
:1007D000990F880B990B39E0660F771F881F991FB7
:1007E0003A95D1F72FEF33E040E050E00E94F80D4A
:1007F000265C3F4F4F4F5F4FF80131832083CF5F1F
:10080000C770C0937E0183E891E00E949E03EC01D3
:100810008091090190910A01C817D90730F49C0111
:100820002C1B3D0B2330310548F48C179D07B8F481
:100830009E01281B390B2330310588F00E947F016F
:1008400068517C4F8F4F9F4F6093D1017093D201BD
:100850008093D3019093D40181E08093D501D0930C
:100860000A01C093090180910001909101018C1748
:100870009D0719F18C1B9D0B0297F8F0BE0190E0CB
:1008800080E00E94A50F9B01AC0160EC71EE84E654
:100890009AE40E94FD0E9B01AC0160E070E080E8EC
:1008A00097E40E94900E0E94760F709382016093ED
:1008B0008101D0930101C0930001DF91CF911F917D
:1008C0000F910895CF92DF92EF92FF920F931F93B3
:1008D000CF93DF9300D0CDB7DEB769834A83880F0B
:1008E000991F0091DF021091E002000F111FE9E84B
:1008F000F2E09F01295832402017310714F4119279
:10090000F8CF2981FC01E757FD4F21838A8180833D
:1009100060E08091DD020E94DE001016110604F5F1
:1009200001501109F801E757FD4FE080D090DB023C
:10093000C090D90288E0F82E6E2D661F6627661FCC
:100940008C2D0E94DE00EE0C61E08D2D0E94DE00F9
:1009500060E08D2D0E94DE00FA94F110EDCFDDCF26
:1009600061E08091DD020F900F90DF91CF911F9198
:100970000F91FF90EF90DF90CF900C94DE00EF92FC
:10098000FF920F931F93CF937C018C0183E0000FA4
:10099000111F8A95E1F707561D4FC1E0F80111922A
:1009A0008F0140E06C2FC7010E946204CF5FC93005
:1009B000A9F7CF911F910F91FF90EF900895CF93DA
:1009C000DF93FC0101900020E9F73197AF01481B4C
:1009D000590BBC0188EE91E00E948C01EC0142E0D1
:1009E00050E066E471E088EE91E00E948C018C0F8B
:1009F0009D1FDF91CF9108950E94EE111F920F92DB
:100A00000FB60F9211242F933F938F939F93AF9321
:100A1000BF938091E0019091E101A091E201B0913A
:100A2000E3013091DF0123E0230F2D3758F50196C4
:100A3000A11DB11D2093DF018093E0019093E1019E
:100A4000A093E201B093E3018091E4019091E5016C
:100A5000A091E601B091E7010196A11DB11D80931F
:100A6000E4019093E501A093E601B093E701BF9103
:100A7000AF919F918F913F912F910F900FBE0F904B
:100A80001F90189526E8230F0296A11DB11DD2CF05
:100A90001F920F920FB60F9211242F933F934F93F3
:100AA0005F936F937F938F939F93AF93BF93EF93D6
:100AB000FF93E0910501F09106010995FF91EF91F7
:100AC000BF91AF919F918F917F916F915F914F9166
:100AD0003F912F910F900FBE0F901F9018951F926E
:100AE0000F920FB60F9211242F933F934F935F9362
:100AF0006F937F938F939F93AF93BF93EF93FF93E6
:100B0000E0910301F09104010995FF91EF91BF91EC
:100B1000AF919F918F917F916F915F914F913F9195
:100B20002F910F900FBE0F901F9018951F920F924C
:100B30000FB60F9211242F933F934F935F936F93B0
:100B40007F938F939F93AF93BF93EF93FF9388EE21
:100B500091E00E940A02FF91EF91BF91AF919F91A6
:100B60008F917F916F915F914F913F912F910F9056
:100B70000FBE0F901F9018951F920F920FB60F92F5
:100B800011242F938F939F93EF93FF93E091F8019C
:100B9000F091F9018081E091FE01F091FF0182FD69
:100BA0001BC09081809101028F5F8F7320910202A0
:100BB000821741F0E0910102F0E0E851FE4F958F7D
:100BC00080930102FF91EF919F918F912F910F9050
:100BD0000FBE0F901F9018958081F4CF1F920F9237
:100BE0000FB60F9211242F933F934F935F936F9300
:100BF0007F938F939F93AF93BF93EF93FF938091D6
:100C00000201811113C00E94D402FF91EF91BF91A4
:100C1000AF919F918F917F916F915F914F913F9194
:100C20002F910F900FBE0F901F90189510920201F8
:100C300080918101909182012091870230918802F8
:100C4000820F931F909385008093840060E08DE075
:100C50000E94DE0060E085E00E94DE0060E086E049
:100C60000E94DE0060E087E00E94DE00CECFCF93DE
:100C7000DF931092EB011092EA0188EE93E0A0E07E
:100C8000B0E08093EC019093ED01A093EE01B0935E
:100C9000EF018AE191E09093E9018093E80185EC0E
:100CA00090E09093F5018093F40184EC90E09093B0
:100CB000F7018093F60180EC90E09093F901809326
:100CC000F80181EC90E09093FB018093FA0182ECB3
:100CD00090E09093FD018093FC0186EC90E090936E
:100CE000FF018093FE011092010210920202109205
:100CF00003021092040285E595E59093EA02809341
:100D0000E9028AEA9AEA9093E8028093E7028FEF79
:100D10009FEF9093E6028093E50288E898E890932D
:100D2000E4028093E3028AE590E00E94C910FC018E
:100D30009C01265A3F4FCAE0D0E04CE251E01282BB
:100D4000138214821582D783C68310865183408311
:100D5000118A72962E173F0791F79093E2028093C3
:100D6000E102D093DA02C093D90288E090E0909338
:100D7000DC028093DB0229E030E03093DE02209336
:100D8000DD029093E0028093DF0261E08AE00E943E
:100D90000C0161E08091DB020E940C0161E0809116
:100DA000DD020E940C0161E08091DD020E94DE0004
:100DB000D093DA02C093D902E9E9F2E089ED92E03A
:100DC00011928E179F07E1F7D0E0C0E08091DF021B
:100DD0009091E002C817D90774F540E06FE0CE01AA
:100DE0000E9462048091DF029091E002C817D90747
:100DF0002CF447E06BE0CE010E94620440E069E021
:100E0000CE010E9462048091DF029091E002C81737
:100E1000D9071CF4CE010E94BF048091DF0290919B
:100E2000E002C817D9072CF440E06CE0CE010E9424
:100E300062042196CBCF8BEB90E090938802809355
:100E4000870285E49FEF9093860280938502DF916D
:100E5000CF910895CF93DF9300D000D0CDB7DEB708
:100E6000789484B5826084BD84B5816084BD85B585
:100E7000826085BD85B5816085BD80916E00816091
:100E800080936E0010928100809181008260809337
:100E90008100809181008160809381008091800039
:100EA0008160809380008091B10084608093B10064
:100EB0008091B00081608093B00080917A0084605E
:100EC00080937A0080917A00826080937A0080918A
:100ED0007A00816080937A0080917A0080688093A4
:100EE0007A001092C100E091F801F091F90182E0DE
:100EF0008083E091F401F091F5011082E091F60118
:100F0000F091F7018FEC808310920002E091FC01D8
:100F1000F091FD0186E08083E091FA01F091FB0100
:100F2000808180618083E091FA01F091FB018081F2
:100F300088608083E091FA01F091FB0180818068F4
:100F40008083E091FA01F091FB0180818F7D8083A5
:100F500089E491E00E94DF0462E084E00E940C01D9
:100F600061E085E00E940C0161E086E00E940C01D6
:100F700061E087E00E940C0161E08AE00E940C01C0
:100F800061E088E00E940C0161E089E00E940C01B0
:100F900061E08DE00E940C0162E082E10E940C01A0
:100FA0008091E1029091E20242E050E060E170E065
:100FB000885B9F4F0E9499028091E1029091E2022A
:100FC00050E040E062E070E0C6960E94990242E084
:100FD00050E06CE070E08091E1029091E2020E94AA
:100FE00099028091E1029091E20242E050E063E0D8
:100FF00070E042960E9499028091E1029091E20293
:1010000042E050E06BE070E084960E949902E0912B
:10101000E102F091E20289E190E097838683918F6B
:10102000808F93A782A795AF84AFE85BFF4F97832C
:10103000868323E831E03A83298316EAC12E11E042
:10104000D12E07EBE02E01E0F02E03E911E083E959
:10105000A82E81E0B82E44244A9493E0592E612CA6
:10106000712C8EE00E944801BC01990F880B990BEE
:10107000B9E0660F771F881F991FBA95D1F7A301B2
:1010800092010E94F80D265C3F4F4F4F5F4FA981A0
:10109000BA812D933D93BA83A98381E10E944801CF
:1010A00027E030E0DC010E94890EA30192010E943A
:1010B000F80D2F5F3F4F4F4F5F4FF6012193319354
:1010C0006F018FE00E9448012FE030E0DC010E94B8
:1010D000890EA30192010E94F80D2F5F3F4F4F4FE1
:1010E0005F4FD7012D933D937D0183E10E9448011D
:1010F0002FE230E0DC010E94890EA30192010E94E0
:10110000F80DF801219331938F0129813A81A216BC
:10111000B30609F0A6CF8091DF029091E002181685
:10112000190634F441E06CE090E080E00E94620433
:101130008091DF029091E0021816190634F441E024
:101140006AE090E080E00E9462048091DF0290916A
:10115000E0021816190624F490E080E00E94BF0413
:101160008BE591E00E94DF0484E00E94B50091E0ED
:1011700089278093DE0182E793E0909304018093B6
:101180000301809169008C7F816080936900E89AF7
:101190008091DE01811102C00E94D803F894109260
:1011A0008000109281008091850290918602909338
:1011B0008500809384008091810084608093810009
:1011C00080916F00816080936F0078948DE691E04C
:1011D0000E94DF04CC24CA94F3E0DF2EE12CF12C32
:1011E000A4E62A2E312CBB24B39484E00E94B500DF
:1011F000982F9B259093DE01813011F40E94D80333
:101200008091CD01882309F4E0C183E10E94480167
:101210002BE030E0DC010E94890EA70196010E94BC
:10122000F80D8091A4019091A5012B30310539F082
:10123000220F331FF901E05DFE4F80819181909371
:10124000EA028093E90210E000E0E091E102F0910F
:10125000E202E00FF11FFA83E98380858B7F8087AC
:10126000DF010190F081E02D0190F081E02DCD01B2
:101270000995A82EE981FA81808586958170A81646
:1012800009F4DFC10E947F01A981BA8112966D9392
:101290007D938D939C93159718968C91B2E08B2734
:1012A000E981FA8180870E5E1F4F0A35110569F6C4
:1012B0000091E1021091E202C80184960E94BC02F2
:1012C000882389F02091CC018091CD01882309F4F5
:1012D0000BC28091E9029091EA022111FEC1909324
:1012E000E8028093E702C8010E94BC0281111092BB
:1012F0000B018FE00E944801A090C7016A2D70E0A9
:10130000660F771F69547E4F7A8369832FE030E040
:10131000DC010E94890EA70196010E94F80D2F5F43
:101320003F4F4F4F5F4FA981BA812D933C9381E08E
:101330008A0D87708093C70187EB91E00E949E031E
:10134000898380910701B981B81789F00E947F01D4
:1013500068517C4F8F4F9F4F6093D1017093D201A2
:101360008093D3019093D401E2E0E093D501F98119
:10137000F093070181E10E944801A090B6012A2D57
:1013800030E0220F331F2A553E4F3A83298327E04E
:1013900030E0DC010E94890EA70196010E94F80D41
:1013A0002F5F3F4F4F4F5F4FA981BA812D933C93E1
:1013B00081E08A0D87708093B60186EA91E00E94F1
:1013C0009E03898380910801B981B81789F00E9432
:1013D0007F0168517C4F8F4F9F4F6093D101709375
:1013E000D2018093D3019093D40183E08093D501FF
:1013F000E981E0930801D8015A968C91809581701B
:101400008093CD01C80142960E94BC02882361F0FE
:101410000E94A00D2FEF3FEF40E050E00E94F80D3A
:101420007093A5016093A40182E10E94B50021E0C0
:10143000892B09F420E02093CF014091D50141117F
:1014400086C18091E7029091E8029093DD0180933C
:10145000DC011092DB018091E5029091E60290930D
:10146000DA018093D9011092D8018091E302909122
:10147000E4029093D7018093D60150910B01252F60
:1014800026952695269530E0E7E0F0E0E21BF30B89
:101490004091D00160E8469FC0011124577002C0FE
:1014A000959587955A95E2F7EA52FE4F5081582755
:1014B00050835091CF01552309F4B2C25091CE010F
:1014C000E4E0F0E0552311F0E1E0F0E0E21BF30B83
:1014D000EA52FE4F9081892780834B254093D001AB
:1014E0008091CD01882309F4A5C28091E9029091F1
:1014F000EA022091CC017DEF7203F0011124EA523F
:10150000FE4F978386831092CB0121E030E03A832F
:1015100029838091DF029091E002181619067CF46D
:10152000E981FA81EB52FE4F4081E981FA81E75768
:10153000FD4F4787698190E080E00E946204498105
:101540005A814F5F5F4F5A8349834930510509F7EC
:101550000E945A0169837A838B839C8384E1482E9D
:10156000512C612C712C0E945A0129813A814B81A6
:101570005C81621B730B840B950B683E7340810585
:10158000910588F351E0451A510861087108698195
:101590007A818B819C8168517C4F8F4F9F4F6983EB
:1015A0007A838B839C834114510461047104D9F6BE
:1015B00080E090E0892B09F418CE0E94F601882380
:1015C00009F413CE0E9400000ECE83E10E94480170
:1015D0001091A301412F50E0440F551F4D565E4F0F
:1015E0005A8349832FE230E0DC010E94890EA70173
:1015F00096010E94F80DA981BA812D933C931F5F3B
:1016000017701093A30183E991E00E949E03382F85
:10161000292F60E170E00E946F0E482F8093C9016E
:10162000832F922F97FD0F9664E0959587956A9585
:10163000E1F78093CC01442309F405CE1092CB014D
:1016400002CE0E947F01A981BA8112964D905D90D1
:101650006D907C901597AB01BC0144195509660942
:10166000770916968D919C91B0E0A0E04817590734
:101670006A077B0708F417CEE981FA8180858170BB
:10168000A81609F410CE0E947F01A981BA81129692
:101690006D937D938D939C93159718968C911897C5
:1016A0008B25846018968C930E947F01E981FA81D2
:1016B0004184528463847484641975098609970986
:1016C000658776878787908B0E947F01E981FA8101
:1016D0006187728783879487E6CD213099F590934F
:1016E000E6028093E502FFCD8091C90140E050E819
:1016F00060E070E004C075956795579547958A95A9
:10170000D2F7CA0121110BC04091E7025091E802C3
:10171000482759275093E8024093E702E4CD21304F
:1017200059F42091E5023091E602242739273093BD
:10173000E6022093E502D7CD2091E3023091E40246
:10174000822793279093E4028093E302CCCD41302B
:1017500031F48090090190900A0120E014C04330D8
:1017600009F053C08091080120E088248394912CD3
:10177000813049F0882E912C21E0863020F0B4E0B1
:101780008B1A910822E01092D6011092D701109284
:10179000D8011092D9011092DA011092DB01109257
:1017A000DC011092DD01C401B1010E945B0E6330C7
:1017B000710509F441C080F56130710509F442C03A
:1017C0006230710509F43BC0433009F4B7C0309171
:1017D000DC012091DA01C401B1010E945B0E6AE0D4
:1017E00070E00E945B0EFB013197E930F10570F566
:1017F000E450F44F0C94830E4B0C510C5B0C620CB8
:10180000690C730C750C7F0C8E0C423009F0A5CF5F
:1018100080900701912CA1CF6530710539F048F017
:101820006630710589F680E88093D80180E880935E
:10183000D90180E88093DA0180E88093DB0180E8B9
:101840008093DC0180E88093DD01BECF3E6330935E
:10185000DC018091DB0182628093DB012E632093A7
:10186000DA012091D801C4016AE070E00E945B0EA9
:10187000FC013197E930F10508F06CC0EE5BF34FE5
:101880000C94830EB20CB70CD60CDB0CE00CE80CFD
:10189000EA0CF30C020D38603093DC01822F80617A
:1018A000DBCF3E623093DC018091DB018A62809362
:1018B000DB012A63D4CF3A623093DC018091DB01F3
:1018C0008A62CACF38633093DC018091DB01886083
:1018D000C3CF3A633093DC018091DB018A6280934D
:1018E000DB012E62BCCF3E63F5CF30623093DC016A
:1018F000822F80628093DB012E632093DA01809136
:10190000DC018E638093DC018091DB018A6280932D
:10191000DB018091DA018E638093DA018091DC0132
:101920008A638093DC018091DB018A628093DB0112
:101930008091DA018E638093DA0193CF8091DA018E
:1019400084612130C1F3223009F08BCF8091DA011C
:101950008860F1CF2E632093D80182E28093D70173
:101960008EE30CC028602093D80180E1F7CF2E626F
:101970002093D8018AE28093D7018AE38093D6012D
:10198000442309F47ACD0E947F010091D101109186
:10199000D2012091D3013091D401061717072807EF
:1019A000390708F0B2CD1092D501AFCD2A6220934D
:1019B000D8018AE2D3CF28632093D80188E0CECF24
:1019C0002A632093D8018AE28093D7018EE2D6CF92
:1019D0002E63F7CF20622093D80180E28093D70155
:1019E0008EE38093D6018091D8018E638093D801D5
:1019F0008091D7018A628093D7018091D6018E634E
:101A00008093D6018091D8018A638093D801809118
:101A1000D7018A628093D7018091D6018E63AECFC1
:101A2000E4E0F0E0E21BF30BEA52FE4F90819827CE
:101A300090834ACD8091CA01882391F18091CB0196
:101A400091E0980F9093CB01823308F05ECD209106
:101A5000C9013091CC01822F86958695869590E0BC
:101A6000A3E03A9F800D911D1124E7E0F0E0E81B10
:101A7000F90B3091C801EA52FE4FB0E83B9FC0011C
:101A80001124277002C0959587952A95E2F79081D9
:101A9000892780833B253093C8011092CA0135CD38
:101AA000E1E0E093CA0131CD8F929F92AF92BF9255
:101AB000CF92DF92EF92FF92CF93DF93EC01688198
:101AC00079818A819B81611571058105910521F4D8
:101AD00064E279ED8BE597E02DE133EF41E050E0F2
:101AE0000E94F80D49015A019B01AC01A7EAB1E43B
:101AF0000E94170E6B017C01ACEEB4EFA5019401BE
:101B00000E94250EC60ED71EE81EF91EF7FE06C05F
:101B100081E0C81AD108E10880E8F80AC882D982B1
:101B2000EA82FB82C701B6019F77DF91CF91FF90D8
:101B3000EF90DF90CF90BF90AF909F908F900895DF
:101B40008F929F92AF92BF92CF92DF92EF92FF92CD
:101B500060910C0170910D0180910E0190910F0127
:101B6000611571058105910521F464E279ED8BE53C
:101B700097E02DE133EF41E050E00E94F80D49017C
:101B80005A019B01AC01A7EAB1E40E94170E6B0158
:101B90007C01ACEEB4EFA50194010E94250EC60EA7
:101BA000D71EE81EF91EF7FE06C081E0C81AD1084C
:101BB000E10880E8F80AC0920C01D0920D01E09291
:101BC0000E01F0920F01C701B6019F77FF90EF90D1
:101BD000DF90CF90BF90AF909F908F9008956093CB
:101BE0000C0170930D0180930E0190930F010895E5
:101BF000052E97FB1EF400940E940F0E57FD07D090
:101C00000E942A0E07FC03D04EF40C940F0E509540
:101C10004095309521953F4F4F4F5F4F08959095D8
:101C20008095709561957F4F8F4F9F4F08950E94CB
:101C30004C0EA59F900DB49F900DA49F800D911DFB
:101C400011240895B7FF0C94170E0E94170E821BE3
:101C5000930B0895A1E21A2EAA1BBB1BFD010DC018
:101C6000AA1FBB1FEE1FFF1FA217B307E407F5074C
:101C700020F0A21BB30BE40BF50B661F771F881F28
:101C8000991F1A9469F760957095809590959B01BE
:101C9000AC01BD01CF010895A29FB001B39FC00167
:101CA000A39F700D811D1124911DB29F700D811D88
:101CB0001124911D0895AA1BBB1B51E107C0AA1F47
:101CC000BB1FA617B70710F0A61BB70B881F991FDD
:101CD0005A95A9F780959095BC01CD01089597FB81
:101CE000072E16F4009407D077FD09D00E945B0EF2
:101CF00007FC05D03EF4909581959F4F089570950F
:101D000061957F4F0895EE0FFF1F0590F491E02D30
:101D100009940E944C0EB7FF0895821B930B0895FF
:101D20005058BB27AA270E94A80E0C94F90F0E94B6
:101D3000EB0F38F00E94F20F20F039F49F3F19F4B6
:101D400026F40C94E80F0EF4E095E7FB0C94E20FF8
:101D5000E92F0E940A1058F3BA1762077307840725
:101D6000950720F079F4A6F50C942C100EF4E0956C
:101D70000B2EBA2FA02D0B01B90190010C01CA0145
:101D8000A0011124FF27591B99F0593F50F4503EF0
:101D900068F11A16F040A22F232F342F4427585FE2
:101DA000F3CF469537952795A795F0405395C9F7FA
:101DB0007EF41F16BA0B620B730B840BBAF09150B2
:101DC000A1F0FF0FBB1F661F771F881FC2F70EC051
:101DD000BA0F621F731F841F48F487957795679524
:101DE000B795F7959E3F08F0B0CF9395880F08F010
:101DF0009927EE0F9795879508950E94110F0C94DF
:101E0000F90F0E94F20F58F00E94EB0F40F029F4F6
:101E10005F3F29F00C94E20F51110C942D100C949B
:101E2000E80F0E940A1068F39923B1F3552391F348
:101E3000951B550BBB27AA2762177307840738F039
:101E40009F5F5F4F220F331F441FAA1FA9F335D096
:101E50000E2E3AF0E0E832D091505040E695001C4A
:101E6000CAF72BD0FE2F29D0660F771F881FBB1F04
:101E7000261737074807AB07B0E809F0BB0B802DE2
:101E8000BF01FF2793585F4F3AF09E3F510578F00E
:101E90000C94E20F0C942D105F3FE4F3983ED4F3C2
:101EA000869577956795B795F7959F5FC9F7880FE2
:101EB000911D9695879597F90895E1E0660F771F34
:101EC000881FBB1F621773078407BA0720F0621BC5
:101ED000730B840BBA0BEE1F88F7E09508950E94F0
:101EE000760F6894B1110C942D1008950E94121071
:101EF00088F09F5798F0B92F9927B751B0F0E1F0CB
:101F0000660F771F881F991F1AF0BA95C9F714C07A
:101F1000B13091F00E942C10B1E008950C942C1077
:101F2000672F782F8827B85F39F0B93FCCF38695B3
:101F300077956795B395D9F73EF490958095709510
:101F400061957F4F8F4F9F4F0895E89409C097FB8D
:101F50003EF490958095709561957F4F8F4F9F4F80
:101F60009923A9F0F92F96E9BB279395F6958795C4
:101F700077956795B795F111F8CFFAF4BB0F11F487
:101F800060FF1BC06F5F7F4F8F4F9F4F16C088232E
:101F900011F096E911C0772321F09EE8872F762F64
:101FA00005C0662371F096E8862F70E060E02AF0A5
:101FB0009A95660F771F881FDAF7880F9695879591
:101FC00097F9089597F99F6780E870E060E00895B9
:101FD0009FEF80EC089500240A9416161706180641
:101FE0000906089500240A9412161306140605061D
:101FF0000895092E0394000C11F4882352F0BB0FAE
:1020000040F4BF2B11F460FF04C06F5F7F4F8F4F10
:102010009F4F089557FD9058440F551F59F05F3F4B
:1020200071F04795880F97FB991F61F09F3F79F0FA
:1020300087950895121613061406551FF2CF46957C
:10204000F1DF08C0161617061806991FF1CF8695FE
:102050007105610508940895E894BB2766277727E2
:10206000CB0197F908950E94A51008F48FEF089509
:102070000E944B100C94F90F0E94EB0F38F00E9455
:10208000F20F20F0952311F00C94E20F0C94E80F5E
:1020900011240C942D100E940A1070F3959FC1F327
:1020A000950F50E0551F629FF001729FBB27F00D06
:1020B000B11D639FAA27F00DB11DAA1F649F66275B
:1020C000B00DA11D661F829F2227B00DA11D621FAA
:1020D000739FB00DA11D621F839FA00D611D221F64
:1020E000749F3327A00D611D231F849F600D211D48
:1020F000822F762F6A2F11249F5750409AF0F1F0CB
:1021000088234AF0EE0FFF1FBB1F661F771F881F33
:1021100091505040A9F79E3F510580F00C94E20F7A
:102120000C942D105F3FE4F3983ED4F38695779599
:102130006795B795F795E7959F5FC1F7FE2B880FD9
:10214000911D9695879597F90895990F0008550F59
:10215000AA0BE0E8FEEF16161706E807F907C0F02D
:1021600012161306E407F50798F0621B730B840B35
:10217000950B39F40A2661F0232B242B252B21F40F
:1021800008950A2609F4A140A6958FEF811D811DAF
:1021900008950F931F93CF93DF938230910510F42E
:1021A00082E090E0E091ED02F091EE0230E020E07C
:1021B000B0E0A0E0309799F42115310509F44AC048
:1021C000281B390B24303105D8F58A819B81611594
:1021D000710589F1FB0193838283FE0111C0408167
:1021E00051810281138148175907E0F048175907B8
:1021F00099F4109761F012960C93129713961C9312
:102200003296CF01DF91CF911F910F9108950093E6
:10221000ED021093EE02F4CF2115310551F0421773
:10222000530738F0A901DB019A01BD01DF01F80174
:10223000C1CFEF01F9CF9093EE028093ED02CDCFA5
:10224000FE01E20FF31F81939193225031093983EC
:102250002883D7CF2091EB023091EC02232B41F45D
:1022600020911201309113013093EC022093EB0284
:1022700020911001309111012115310541F42DB744
:102280003EB74091140150911501241B350BE0918C
:10229000EB02F091EC02E217F307A0F42E1B3F0BC8
:1022A0002817390778F0AC014E5F5F4F24173507C8
:1022B00048F04E0F5F1F5093EC024093EB02819366
:1022C00091939FCFF0E0E0E09CCFCF93DF93009716
:1022D000E9F0FC01329713821282A091ED02B091D5
:1022E000EE02ED0130E020E01097A1F42081318171
:1022F000820F931F2091EB023091EC0228173907CF
:1023000009F061C0F093EC02E093EB02DF91CF9112
:102310000895EA01CE17DF07E8F54A815B819E0147
:1023200041155105B1F7E901FB83EA8349915991C0
:10233000C40FD51FEC17FD0761F4808191810296CF
:10234000840F951FE90199838883828193819B8300
:102350008A83F0E0E0E012968D919C9113970097AC
:10236000B9F52D913C911197CD010296820F931FE3
:102370002091EB023091EC022817390739F630979B
:1023800051F51092EE021092ED02B093EC02A09380
:10239000EB02BCCFD383C28340815181840F951F50
:1023A000C817D90761F44E5F5F4F88819981480F44
:1023B000591F518340838A819B8193838283211596
:1023C000310509F0B0CFF093EE02E093ED029ECF1D
:1023D000FD01DC01C0CF13821282D7CF81E090E0F3
:0A23E000F8940C94F311F894FFCF69
:1023EA007700018B018B010F0136010F01000000FC
:1023FA000000EF028000000000002C028C01B901ED
:10240A007902EA01C801DC0100000000CA02C60222
:10241A000000FFFFAAAA8888555522221111CCCCA8
:10242A009393B0B0C4C40D0A0053746172742E2E13
:10243A002E6C6574277320676F21004D6174726971
:10244A007820736574757020646F6E650054696DC9
:0E245A00657220736574757020646F6E650086
:00000001FF
