:100000000C9462000C9442050C941B050C948A001D
:100010000C948A000C948A000C948A000C948A0038
:100020000C948A000C948A000C948A000C948A0028
:100030000C948A000C94C1050C948A000C948A00DC
:100040000C94D1040C948A000C948F050C946905CF
:100050000C948A000C948A000C948A000C948A00F8
:100060000C948A000C948A000000000024002700F1
:100070002A0000000000250028002B0000000000DE
:1000800023002600290004040404040404040202DA
:100090000202020203030303030301020408102007
:1000A0004080010204081020010204081020000012
:1000B0000008000201000003040700000000000027
:1000C0000000930611241FBECFEFD8E0DEBFCDBFE6
:1000D00011E0A0E0B1E0E8E1F2E202C005900D928B
:1000E000AE37B107D9F722E0AEE7B1E001C01D920B
:1000F000A03FB207E1F710E0C2E6D0E004C02197CC
:10010000FE010E94A10DC136D107C9F70E948007E8
:100110000C940A110C940000833081F028F4813093
:1001200099F08230A9F008958730A9F08830C9F09D
:100130008430B1F4809180008F7D03C08091800075
:100140008F7780938000089584B58F7784BD08955C
:1001500084B58F7DFBCF8091B0008F778093B00006
:1001600008958091B0008F7DF9CFCF93DF93282F32
:1001700030E0F901E255FF4F8491F901E656FF4F57
:10018000D491F901EA57FF4FC491CC23A1F081111A
:100190000E948C00EC2FF0E0EE0FFF1FE458FF4FA1
:1001A000A591B491EC91ED2381E090E009F480E019
:1001B000DF91CF91089580E090E0FACF1F93CF9325
:1001C000DF93282F30E0F901E255FF4F8491F901C8
:1001D000E656FF4FD491F901EA57FF4FC491CC2363
:1001E000A9F0162F81110E948C00EC2FF0E0EE0F89
:1001F000FF1FEE58FF4FA591B4918FB7F894EC9183
:10020000111108C0D095DE23DC938FBFDF91CF9111
:100210001F910895DE2BF8CFCF93DF9390E0FC0180
:10022000E656FF4F24918A579F4FFC018491882303
:10023000C9F090E0880F991FFC01E859FF4FA59184
:10024000B491FC01EE58FF4FC591D49161110DC0DE
:100250009FB7F8948C91209582238C9388812823D2
:1002600028839FBFDF91CF910895623051F49FB7EB
:10027000F8943C91822F809583238C93E8812E2BD8
:10028000EFCF8FB7F894EC912E2B2C938FBFEACF42
:100290008E50806480937C0080917A00806480938B
:1002A0007A0080917A0086FDFCCF80917800909151
:1002B000790008953FB7F8948091E7019091E801A3
:1002C000A091E901B091EA0126B5A89B05C02F3F96
:1002D00019F00196A11DB11D3FBFBA2FA92F982F6C
:1002E0008827BC01CD01620F711D811D911D42E067
:1002F000660F771F881F991F4A95D1F708952FB76A
:10030000F8946091E3017091E4018091E50190918E
:10031000E6012FBF08950895AF92BF92CF92DF926A
:10032000EF92FF920F931F93CF93DF936C017B01AA
:100330008B01040F151FEB015E01AE18BF08C0173B
:10034000D10759F06991D601ED91FC910190F081AE
:10035000E02DC6010995892B79F7C501DF91CF9171
:100360001F910F91FF90EF90DF90CF90BF90AF90D3
:100370000895FC01538D448D252F30E0842F90E0AB
:10038000821B930B541710F0CF9608950197089590
:10039000FC01918D828D981761F0A28DAE0FBF2F59
:1003A000B11D5D968C91928D9F5F9F73928F90E0AF
:1003B00008958FEF9FEF0895FC01918D828D98171E
:1003C00031F0828DE80FF11D858D90E008958FEF5B
:1003D0009FEF0895FC01918D228D892F90E0805C24
:1003E0009F4F821B91098F73992708958BEE91E09F
:1003F0000E94EA0121E0892B09F420E0822F089570
:1004000080E090E0892B29F00E94F60181110C9484
:1004100000000895FC01A48DA80FB92FB11DA35AA7
:10042000BF4F2C91848D90E001968F739927848F14
:10043000A689B7892C93A089B1898C918370806437
:100440008C93938D848D981306C00288F389E02DD8
:1004500080818F7D80830895EF92FF920F931F9389
:10046000CF93DF93EC0181E0888F9B8D8C8D981367
:100470001AC0E889F989808185FF15C09FB7F89473
:10048000EE89FF896083E889F989808183708064BF
:1004900080839FBF81E090E0DF91CF911F910F910A
:1004A000FF90EF900895F62E0B8D10E00F5F1F4F19
:1004B0000F731127E02E8C8D8E110CC00FB607FC28
:1004C000FACFE889F989808185FFF5CFCE010E94B6
:1004D0000A02F1CFEB8DEC0FFD2FF11DE35AFF4F18
:1004E000F0829FB7F8940B8FEA89FB898081806244
:1004F000CFCFCF93DF93EC01888D8823B9F0AA8901
:10050000BB89E889F9898C9185FD03C0808186FDCE
:100510000DC00FB607FCF7CF8C9185FFF2CF80811D
:1005200085FFEDCFCE010E940A02E9CFDF91CF9186
:1005300008951F93CF93DF93EC01162FE881F98183
:100540000280F381E02D0995198B1886E881F981E5
:100550000190F081E02DCE010995882319F088855E
:10056000836088870E947F016A837B838C839D835D
:10057000DF91CF911F910895FC01808580FD04C01B
:1005800082FB882780F9089580E00895862F642FE4
:100590000C940C01FC0181890E94B50021E0892B9B
:1005A00009F420E0822F08958F929F92AF92BF921C
:1005B000CF92DF92EF92FF92CF938091E101813051
:1005C00069F4E091E202F091E30296AD90FF06C07B
:1005D000C091CA01C1110CC08093CA01CF91FF9094
:1005E000EF90DF90CF90BF90AF909F908F90089545
:1005F00082E0C13089F30E947F01C0907F01D090DA
:100600008001E0908101F090820160937F017093FE
:10061000800180938101909382019B01AC012C1990
:100620003D094E095F0969017A0139E6C316D10413
:10063000E104F1042CF499E6C92ED12CE12CF12C23
:100640004BE0C41644E0D406E104F10434F08AE03F
:10065000C82E84E0D82EE12CF12CC701B6010E94EF
:10066000BE0E20E030E04AE752E40E944F0F4B01FB
:100670005C016091090170E090E080E00E94BE0E94
:100680009B01AC01C501B4010E94140E9B01AC0199
:1006900060E070E080E897E40E94A70D0E948D0E54
:1006A000709384016093830160E67AEE80E090E0CD
:1006B000A70196010E940F0D3093030120930201C0
:1006C000C23009F08BCF809188029091890290937B
:1006D0008500809384001092040183E07DCFCF9247
:1006E000DF92EF92FF929C01205F3F4F70E060E04D
:1006F000FC0141915191CF01640F751F2E173F07E7
:10070000B9F790E080E00E94BC0E20E030E040E0CD
:100710005EE30E944F0F6B017C0120E030E0A901F5
:100720000E944A0F20E030E040E05FE387FD0CC00C
:10073000C701B6010E94A80D0E94860ECB01FF9052
:10074000EF90DF90CF900895C701B6010E94A70DEA
:10075000F3CF0F931F93CF93DF938EE00E94480156
:10076000C0917E010C2F10E0000F111F0B571E4F80
:10077000BC01990F880B990B39E0660F771F881F12
:10078000991F3A95D1F72FEF33E040E050E00E94F7
:100790000F0D265C3F4F4F4F5F4FF8013183208391
:1007A000CF5FC770C0937E0185E891E00E946F0320
:1007B00020910201309103018217930730F4A901BF
:1007C000481B590B4430510538F428173907A8F451
:1007D000821B930B049788F00E947F016053784F2F
:1007E0008F4F9F4F6093D4017093D5018093D601B2
:1007F0009093D70181E08093D80185E891E00E9431
:100800006F03EC019093030180930201809100013A
:1008100090910101C817D90719F18C1B9D0B029704
:10082000F8F0BE0190E080E00E94BC0E9B01AC019C
:1008300060EC71EE84E69AE40E94140E9B01AC0118
:1008400060E070E080E897E40E94A70D0E94860EA9
:100850007093840160938301D0930101C0930001E0
:100860001092CA01DF91CF911F910F910895CF92FD
:10087000DF92EF92FF920F931F93CF93DF9300D0FD
:10088000CDB7DEB769834A83880F991F0091E002D4
:100890001091E102000F111FEAE8F2E09F012A58CF
:1008A00032402017310714F41192F8CF2981FC014E
:1008B000E657FD4F21838A81808360E08091DE02CC
:1008C0000E94DE001016110604F501501109F8010E
:1008D000E657FD4FE080D090DC02C090DA0288E05D
:1008E000F82E6E2D661F6627661F8C2D0E94DE0077
:1008F000EE0C61E08D2D0E94DE0060E08D2D0E94E7
:10090000DE00FA94F110EDCFDDCF61E08091DE02E0
:100910000F900F90DF91CF911F910F91FF90EF906B
:10092000DF90CF900C94DE00EF92FF920F931F9315
:10093000CF937C018C0183E0000F111F8A95E1F7B2
:1009400006561D4FC1E0F80111928F0140E06C2F57
:10095000C7010E943704CF5FC930A9F7CF911F911B
:100960000F91FF90EF900895FC0101900020E9F7AE
:100970003197AF01481B590BBC018BEE91E00C94F1
:100980008C01CF93DF930E94B404EC0186E491E0E4
:100990000E94B4048C0F9D1FDF91CF9108950E9497
:1009A00005111F920F920FB60F9211242F933F93B0
:1009B0008F939F93AF93BF938091E3019091E40154
:1009C000A091E501B091E6013091E20123E0230F0F
:1009D0002D3758F50196A11DB11D2093E20180939A
:1009E000E3019093E401A093E501B093E6018091C7
:1009F000E7019091E801A091E901B091EA01019627
:100A0000A11DB11D8093E7019093E801A093E90136
:100A1000B093EA01BF91AF919F918F913F912F9138
:100A20000F900FBE0F901F90189526E8230F029687
:100A3000A11DB11DD2CF1F920F920FB60F9211249C
:100A40002F933F934F935F936F937F938F939F93D6
:100A5000AF93BF93EF93FF93E0910701F0910801EB
:100A60000995FF91EF91BF91AF919F918F917F91E8
:100A70006F915F914F913F912F910F900FBE0F900B
:100A80001F9018951F920F920FB60F9211242F935B
:100A90003F934F935F936F937F938F939F93AF9306
:100AA000BF93EF93FF93E0910501F0910601099543
:100AB000FF91EF91BF91AF919F918F917F916F9136
:100AC0005F914F913F912F910F900FBE0F901F900C
:100AD00018951F920F920FB60F9211242F933F93E8
:100AE0004F935F936F937F938F939F93AF93BF9336
:100AF000EF93FF938BEE91E00E940A02FF91EF913A
:100B0000BF91AF919F918F917F916F915F914F9125
:100B10003F912F910F900FBE0F901F9018951F922D
:100B20000F920FB60F9211242F938F939F93EF93F1
:100B3000FF93E091FB01F091FC018081E0910102C3
:100B4000F091020282FD1BC09081809104028F5FB0
:100B50008F7320910502821741F0E0910402F0E0CA
:100B6000E551FE4F958F80930402FF91EF919F9185
:100B70008F912F910F900FBE0F901F90189580812D
:100B8000F4CF1F920F920FB60F921124CF92DF92E3
:100B9000EF92FF922F933F934F935F936F937F93C7
:100BA0008F939F93AF93BF93EF93FF9380918802AE
:100BB000909189022091040121119BC0909385009E
:100BC0008093840081E08093040180910B0190E088
:100BD000019660910A0170E00E94720DF82E8093D8
:100BE0000B01811108C08091D10190E001968170C4
:100BF00099278093D10161E08DE00E94DE0080E0C2
:100C000090E8A0E0B0E09C01AD0104C05595479587
:100C100037952795FA94D2F769017A018091E80215
:100C20009091E902B0E0A0E082239D21A423BF219E
:100C3000892B8A2B8B2B21F061E085E00E94DE005E
:100C40008091D201882301F18091D101811117C0D7
:100C50008091E6029091E702B0E0A0E08C219D2116
:100C6000AE21BF21892B8A2B8B2B71F161E086E0AD
:100C70000E94DE0061E087E00E94DE0025C08091D6
:100C8000E4029091E502E8CF8091E6029091E702BC
:100C9000B0E0A0E08C219D21AE21BF21892B8A2BC1
:100CA0008B2B21F061E086E00E94DE008091E4025F
:100CB0009091E502B0E0A0E08C219D21AE21BF2102
:100CC000892B8A2B8B2BB1F6FF91EF91BF91AF91BE
:100CD0009F918F917F916F915F914F913F912F9154
:100CE000FF90EF90DF90CF900F900FBE0F901F906E
:100CF0001895109204012091830130918401820F94
:100D0000931F909385008093840060E08DE00E94A3
:100D1000DE0060E085E00E94DE0060E086E00E9488
:100D2000DE0060E0A8CFCF93DF931092EE01109227
:100D3000ED0188EE93E0A0E0B0E08093EF019093A6
:100D4000F001A093F101B093F2018AE191E0909358
:100D5000EC018093EB0185EC90E09093F801809397
:100D6000F70184EC90E09093FA018093F90180EC14
:100D700090E09093FC018093FB0181EC90E09093D4
:100D8000FE018093FD0182EC90E09093000280933D
:100D9000FF0186EC90E09093020280930102109292
:100DA000040210920502109206021092070285E5D5
:100DB00095E59093EB028093EA028AEA9AEA90938F
:100DC000E9028093E8028FEF9FEF9093E702809310
:100DD000E60288E898E89093E5028093E4028AE5C9
:100DE00090E00E94E00FFC019C01265A3F4FCAE0B0
:100DF000D0E04CE251E01282138214821582D78334
:100E0000C683108651834083118A72962E173F073E
:100E100091F79093E3028093E202D093DB02C093B8
:100E2000DA0288E090E09093DD028093DC0229E012
:100E300030E03093DF022093DE029093E102809352
:100E4000E00261E08AE00E940C0161E08091DC0236
:100E50000E940C0161E08091DE020E940C0161E0C1
:100E60008091DE020E94DE00D093DB02C093DA02A2
:100E7000EAE9F2E08AED92E011928E179F07E1F71E
:100E8000D0E0C0E08091E0029091E102C817D9075C
:100E900074F540E06FE0CE010E9437048091E002DB
:100EA0009091E102C817D9072CF447E06BE0CE011E
:100EB0000E94370440E069E0CE010E94370480912F
:100EC000E0029091E102C817D9071CF4CE010E94FC
:100ED00094048091E0029091E102C817D9072CF4A4
:100EE00040E06CE0CE010E9437042196CBCF84E431
:100EF0009FEF9093890280938802DF91CF910895AC
:100F0000CF93DF93CDB7DEB7A1970FB6F894DEBFCE
:100F10000FBECDBF789484B5826084BD84B58160F6
:100F200084BD85B5826085BD85B5816085BD8091B4
:100F30006E00816080936E0010928100809181002C
:100F40008260809381008091810081608093810024
:100F5000809180008160809380008091B1008460E6
:100F60008093B1008091B00081608093B000809147
:100F70007A00846080937A0080917A008260809306
:100F80007A0080917A00816080937A0080917A0063
:100F9000806880937A001092C100E091FB01F0918B
:100FA000FC0182E08083E091F701F091F80110826A
:100FB000E091F901F091FA018FEC80831092030225
:100FC000E091FF01F091000286E08083E091FD0155
:100FD000F091FE01808180618083E091FD01F091BC
:100FE000FE01808188608083E091FD01F091FE0127
:100FF000808180688083E091FD01F091FE01808115
:101000008F7D808389E491E00E94C10462E084E0E6
:101010000E940C0161E085E00E940C0161E086E025
:101020000E940C0161E087E00E940C0161E08AE00F
:101030000E940C0161E088E00E940C0161E089E0FF
:101040000E940C0161E08DE00E940C0162E082E1EF
:101050000E940C018091E2029091E30242E050E094
:1010600060E170E0885B9F4F0E9499028091E202EC
:101070009091E30250E040E062E070E0C6960E948A
:10108000990242E050E06CE070E08091E2029091C1
:10109000E3020E9499028091E2029091E30242E011
:1010A00050E063E070E042960E9499028091E20273
:1010B0009091E30242E050E06BE070E084960E9481
:1010C0009902E091E202F091E30289E190E09783D6
:1010D0008683918F808F93A782A795AF84AFE85BBB
:1010E000FF4F9783868305E811E088EAA82E81E008
:1010F000B82E99EBC92E91E0D92E25E9E22E21E0F8
:10110000F22E35E9832E31E0932E44244A9443E0B5
:10111000542E612C712C8EE00E944801BC01990F65
:10112000880B990BB9E0660F771F881F991FBA9536
:10113000D1F7A30192010E940F0D265C3F4F4F4F44
:101140005F4FD8012D933D938D0181E10E944801AD
:1011500027E030E0DC010E94860DA30192010E948D
:101160000F0D2F5F3F4F4F4F5F4FF501219331938D
:101170005F018FE00E9448012FE030E0DC010E9417
:10118000860DA30192010E940F0D2F5F3F4F4F4F1D
:101190005F4FD6012D933D936D0183E10E9448017D
:1011A0002FE230E0DC010E94860DA30192010E9433
:1011B0000F0DF701219331937F018016910609F0FD
:1011C000AACF8091E0029091E1021816190634F43A
:1011D00041E06CE090E080E00E9437048091E00202
:1011E0009091E1021816190634F441E06AE090E0AB
:1011F00080E00E9437048091E0029091E10218168D
:10120000190624F490E080E00E9494048BE591E0BC
:101210000E94C10484E00E94B5008093E10184ED46
:1012200092E09093060180930501809169008C7F84
:10123000816080936900E89A8091E101811102C088
:101240000E94A903F894109280001092810080916E
:101250008802909189029093850080938400809108
:10126000810084608093810080916F008160809311
:101270006F0078948DE691E00E94C10488248A94DE
:10128000F3E09F2EA12CB12CA7E02A2E312C84E074
:101290000E94B50091E098279093E101813011F40C
:1012A0000E94A9038091D001882309F4D9C183E168
:1012B0000E9448012BE030E0DC010E94860DA50170
:1012C00094010E940F0D8091A6019091A7012B30EF
:1012D000310539F0220F331F205D3E4FD9018D912A
:1012E0009C919093EB028093EA02F12CE12C009107
:1012F000E2021091E3020E0D1F1DD80118968C9189
:1013000018978B7F18968C931897ED91FC9101900C
:10131000F081E02DC8010995D82EF80180858695C9
:101320008170D81609F4D6C10E947F01D8011296A7
:101330006D937D938D939C93159718968C91B2E045
:101340008B27F8018087F2E1EF0EF11C2AE5E21607
:10135000F10469F60091E2021091E302C80184965B
:101360000E94BC02882389F04091CF019091D00166
:10137000992309F403C22091EA023091EB02411152
:10138000F1C13093E9022093E802D80118968C91BC
:1013900080FD07C08091CA01843019F483E08093F6
:1013A000CA01C801885B9F4F0E94BC028111109244
:1013B000CA018FE00E9448017090C901E72CF12C0E
:1013C000EE0CFF1CF701E754FE4F7F012FE030E0E9
:1013D000DC010E94860DA50194010E940F0D2F5F74
:1013E0003F4F4F4F5F4FD7012D933C9381E0870DC7
:1013F00087708093C90189EB91E00E946F0320916F
:101400000A012817190689F00E947F016053784F5E
:101410008F4F9F4F6093D4017093D5018093D60175
:101420009093D701B2E0B093D80189EB91E00E948C
:101430006F0380930A0181E10E9448017090B80116
:10144000E72CF12CEE0CFF1CF701E855FE4F7F0155
:1014500027E030E0DC010E94860DA50194010E9486
:101460000F0D2F5F3F4F4F4F5F4FD7012D933C9391
:1014700081E0870D87708093B80188EA91E00E942F
:101480006F03209109012817190689F00E947F0136
:101490006053784F8F4F9F4F6093D4017093D50165
:1014A0008093D6019093D70183E08093D80188EA96
:1014B00091E00E946F0380930901F801828D80956D
:1014C00081708093D001C80142960E94BC0288239B
:1014D00061F00E94B70C2FEF3FEF40E050E00E9418
:1014E0000F0D7093A7016093A60182E10E94B500E1
:1014F00021E0009709F420E02093D2012091E80236
:101500003091E9023093E0012093DF011092DE0177
:101510002091E6023091E7023093DD012093DC0157
:101520001092DB012091E4023091E5023093DA0160
:101530002093D9012091D801211198C170910B01FC
:10154000472F46954695469550E0F101E41BF50B73
:101550006091D301A0E86A9F90011124777002C0C6
:10156000359527957A95E2F7E752FE4F70817227FD
:101570007083892B09F436C18091D101E4E0F0E059
:10158000882311F0E1E0F0E0E41BF50BE752FE4F99
:10159000808128272083B1E06B276093D30180915D
:1015A000D001882309F428C18091EA029091EB02CE
:1015B0002091CF013DEF3203F0011124E752FE4F9D
:1015C000978386831092CE0101E010E08091E002C3
:1015D0009091E102181619066CF4F801E852FE4FDA
:1015E0004081F801E657FD4F4787602F90E080E08B
:1015F0000E9437040F5F1F4F0930110539F70E9411
:101600005A012B013C0184E1C82ED12CE12CF12C94
:101610000E945A016419750986099709683E73404A
:1016200081059105A8F3F1E0CF1AD108E108F1088E
:1016300028EE420E23E0521E611C711CC114D1041D
:10164000E104F10429F780E090E0892B09F41FCE32
:101650000E94F601882309F41ACE0E94000017CEDA
:1016600083E10E944801F090A5010F2D10E0000FCA
:10167000111F0B561E4F2FE230E0DC010E94860D39
:10168000A50194010E940F0DF8013183208381E0B0
:101690008F0D87708093A50185E991E00E946F030B
:1016A000382F292F60E170E00E94720D482F80933F
:1016B000CC01832F922F97FD0F9664E09595879527
:1016C0006A95E1F78093CF01442309F40ECE10927E
:1016D000CE010BCE0E947F01D80112962D913D9133
:1016E0004D915C9115972B013C01421A530A640AF3
:1016F000750AB301A20116968D919C91B0E0A0E00D
:10170000481759076A077B0708F41DCED8011896B9
:101710008C918170D81609F416CE0E947F01F801D1
:1017200062837383848395838085F1E08F2784604F
:10173000D80118968C930E947F01F801418452844D
:1017400063847484641975098609970965877687A7
:101750008787908B0E947F01F8016187728783875A
:101760009487F1CD413029F43093E7022093E602CB
:101770000CCE3093E5022093E40207CE9091CC0189
:10178000412C50E8552E612C712C04C0759467943F
:10179000579447949A95D2F7C20141110BC02091FA
:1017A000E8023091E902822793279093E90280931F
:1017B000E802EBCD413059F42091E6023091E70286
:1017C000822793279093E7028093E602DECD209153
:1017D000E4023091E502822793279093E5028093FB
:1017E000E402D3CDE4E0F0E0E41BF50BE752FE4F5A
:1017F000808182278083C6CE8091CD01882391F19C
:101800008091CE0191E0980F9093CE01823308F041
:10181000DBCE2091CC013091CF01822F8695869529
:10182000869590E043E0349F800D911D1124F101D5
:10183000E81BF90B8091CB01E752FE4F90E8899F9E
:10184000A0011124277002C0559547952A95E2F70B
:10185000908194279083A1E08A278093CB011092F6
:10186000CD01B2CEB1E0B093CD01AECE0E947F01EA
:101870000091D4011091D5012091D6013091D7016A
:10188000061717072807390710F41092D80120917E
:10189000D80130E050E040E019A28E010F5D1F4FEB
:1018A000CA01B9012AE030E040E050E00E94410D59
:1018B000605DF80162938F012115310541055105E5
:1018C00079F7309719F0CF010E94B40486E491E0D3
:1018D0000E94B40479CE8F929F92AF92BF92CF9222
:1018E000DF92EF92FF92CF93DF93EC0168817981D1
:1018F0008A819B81611571058105910521F464E25E
:1019000079ED8BE597E02DE133EF41E050E00E9467
:101910000F0D49015A019B01AC01A7EAB1E40E94F5
:101920002E0D6B017C01ACEEB4EFA50194010E9479
:101930003C0DC60ED71EE81EF91EF7FE06C081E05C
:10194000C81AD108E10880E8F80AC882D982EA8278
:10195000FB82C701B6019F77DF91CF91FF90EF9097
:10196000DF90CF90BF90AF909F908F9008958F920F
:101970009F92AF92BF92CF92DF92EF92FF926091CF
:101980000C0170910D0180910E0190910F01611574
:1019900071058105910521F464E279ED8BE597E00D
:1019A0002DE133EF41E050E00E940F0D49015A0153
:1019B0009B01AC01A7EAB1E40E942E0D6B017C01F2
:1019C000ACEEB4EFA50194010E943C0DC60ED71EEB
:1019D000E81EF91EF7FE06C081E0C81AD108E1082A
:1019E00080E8F80AC0920C01D0920D01E0920E013D
:1019F000F0920F01C701B6019F77FF90EF90DF9043
:101A0000CF90BF90AF909F908F90089560930C01FE
:101A100070930D0180930E0190930F010895052E90
:101A200097FB1EF400940E94260D57FD07D00E94DC
:101A3000410D07FC03D04EF40C94260D50954095B3
:101A4000309521953F4F4F4F5F4F0895909580956A
:101A5000709561957F4F8F4F9F4F08950E94630D42
:101A6000A59F900DB49F900DA49F800D911D1124F2
:101A70000895B7FF0C942E0D0E942E0D821B930B20
:101A80000895A1E21A2EAA1BBB1BFD010DC0AA1FBF
:101A9000BB1FEE1FFF1FA217B307E407F50720F0D7
:101AA000A21BB30BE40BF50B661F771F881F991F52
:101AB0001A9469F760957095809590959B01AC019B
:101AC000BD01CF010895A29FB001B39FC001A39FA4
:101AD000700D811D1124911DB29F700D811D112467
:101AE000911D089597FB072E16F4009407D077FDFB
:101AF00009D00E948D0D07FC05D03EF4909581958C
:101B00009F4F0895709561957F4F08950E94630DD2
:101B1000B7FF0895821B930B0895AA1BBB1B51E1CD
:101B200007C0AA1FBB1FA617B70710F0A61BB70B4D
:101B3000881F991F5A95A9F780959095BC01CD01F2
:101B40000895EE0FFF1F0590F491E02D0994505871
:101B5000BB27AA270E94BF0D0C94100F0E94020FF2
:101B600038F00E94090F20F039F49F3F19F426F451
:101B70000C94FF0E0EF4E095E7FB0C94F90EE92FA0
:101B80000E94210F58F3BA1762077307840795075D
:101B900020F079F4A6F50C94430F0EF4E0950B2E8B
:101BA000BA2FA02D0B01B90190010C01CA01A001AF
:101BB0001124FF27591B99F0593F50F4503E68F10A
:101BC0001A16F040A22F232F342F4427585FF3CF4B
:101BD000469537952795A795F0405395C9F77EF41C
:101BE0001F16BA0B620B730B840BBAF09150A1F065
:101BF000FF0FBB1F661F771F881FC2F70EC0BA0FEB
:101C0000621F731F841F48F4879577956795B79572
:101C1000F7959E3F08F0B0CF9395880F08F099276D
:101C2000EE0F9795879508950E94280E0C94100F3B
:101C30000E94090F58F00E94020F40F029F45F3F04
:101C400029F00C94F90E51110C94440F0C94FF0ED2
:101C50000E94210F68F39923B1F3552391F3951B4B
:101C6000550BBB27AA2762177307840738F09F5FBD
:101C70005F4F220F331F441FAA1FA9F335D00E2E2A
:101C80003AF0E0E832D091505040E695001CCAF797
:101C90002BD0FE2F29D0660F771F881FBB1F26175A
:101CA00037074807AB07B0E809F0BB0B802DBF0131
:101CB000FF2793585F4F3AF09E3F510578F00C9400
:101CC000F90E0C94440F5F3FE4F3983ED4F38695ED
:101CD00077956795B795F7959F5FC9F7880F911D21
:101CE0009695879597F90895E1E0660F771F881F0D
:101CF000BB1F621773078407BA0720F0621B730BC0
:101D0000840BBA0BEE1F88F7E09508950E948D0EA4
:101D10006894B1110C94440F08950E94290F88F023
:101D20009F5798F0B92F9927B751B0F0E1F0660F9F
:101D3000771F881F991F1AF0BA95C9F714C0B130E0
:101D400091F00E94430FB1E008950C94430F672F68
:101D5000782F8827B85F39F0B93FCCF3869577950F
:101D60006795B395D9F73EF49095809570956195F8
:101D70007F4F8F4F9F4F0895E89409C097FB3EF423
:101D800090958095709561957F4F8F4F9F4F9923C8
:101D9000A9F0F92F96E9BB279395F6958795779546
:101DA0006795B795F111F8CFFAF4BB0F11F460FF06
:101DB0001BC06F5F7F4F8F4F9F4F16C0882311F05E
:101DC00096E911C0772321F09EE8872F762F05C072
:101DD000662371F096E8862F70E060E02AF09A950D
:101DE000660F771F881FDAF7880F9695879597F902
:101DF000089597F99F6780E870E060E008959FEF8D
:101E000080EC089500240A94161617061806090691
:101E1000089500240A941216130614060506089560
:101E2000092E0394000C11F4882352F0BB0F40F4E8
:101E3000BF2B11F460FF04C06F5F7F4F8F4F9F4F28
:101E4000089557FD9058440F551F59F05F3F71F0AA
:101E50004795880F97FB991F61F09F3F79F0879511
:101E60000895121613061406551FF2CF4695F1DF9A
:101E700008C0161617061806991FF1CF869571052A
:101E8000610508940895E894BB2766277727CB015E
:101E900097F908950E94BC0F08F48FEF08950E94EF
:101EA000620F0C94100F0E94020F38F00E94090F6D
:101EB00020F0952311F00C94F90E0C94FF0E1124D0
:101EC0000C94440F0E94210F70F3959FC1F3950F5E
:101ED00050E0551F629FF001729FBB27F00DB11DAE
:101EE000639FAA27F00DB11DAA1F649F6627B00D3E
:101EF000A11D661F829F2227B00DA11D621F739F27
:101F0000B00DA11D621F839FA00D611D221F749F34
:101F10003327A00D611D231F849F600D211D822F7B
:101F2000762F6A2F11249F5750409AF0F1F08823A2
:101F30004AF0EE0FFF1FBB1F661F771F881F9150CF
:101F40005040A9F79E3F510580F00C94F90E0C9477
:101F5000440F5F3FE4F3983ED4F3869577956795F9
:101F6000B795F795E7959F5FC1F7FE2B880F911DF9
:101F70009695879597F90895990F0008550FAA0B24
:101F8000E0E8FEEF16161706E807F907C0F012168C
:101F90001306E407F50798F0621B730B840B950B8F
:101FA00039F40A2661F0232B242B252B21F40895E4
:101FB0000A2609F4A140A6958FEF811D811D089581
:101FC0000F931F93CF93DF938230910510F482E03B
:101FD00090E0E091EE02F091EF0230E020E0B0E01E
:101FE000A0E0309799F42115310509F44AC0281B67
:101FF000390B24303105D8F58A819B816115710533
:1020000089F1FB0193838283FE0111C040815181DC
:102010000281138148175907E0F04817590799F4CE
:10202000109761F012960C93129713961C933296A8
:10203000CF01DF91CF911F910F9108950093EE0290
:102040001093EF02F4CF2115310551F042175307D9
:1020500038F0A901DB019A01BD01DF01F801C1CF10
:10206000EF01F9CF9093EF028093EE02CDCFFE0106
:10207000E20FF31F81939193225031093983288312
:10208000D7CF2091EC023091ED02232B41F4209127
:102090001201309113013093ED022093EC02209154
:1020A0001001309111012115310541F42DB73EB7D2
:1020B0004091140150911501241B350BE091EC0265
:1020C000F091ED02E217F307A0F42E1B3F0B281747
:1020D000390778F0AC014E5F5F4F2417350748F0A1
:1020E0004E0F5F1F5093ED024093EC02819391934A
:1020F0009FCFF0E0E0E09CCFCF93DF930097E9F033
:10210000FC01329713821282A091EE02B091EF028D
:10211000ED0130E020E01097A1F420813181820FA1
:10212000931F2091EC023091ED022817390709F036
:1021300061C0F093ED02E093EC02DF91CF9108953E
:10214000EA01CE17DF07E8F54A815B819E01411560
:102150005105B1F7E901FB83EA8349915991C40F15
:10216000D51FEC17FD0761F4808191810296840FE1
:10217000951FE90199838883828193819B838A8358
:10218000F0E0E0E012968D919C9113970097B9F5DD
:102190002D913C911197CD010296820F931F2091B2
:1021A000EC023091ED022817390739F6309751F5D6
:1021B0001092EF021092EE02B093ED02A093EC02A7
:1021C000BCCFD383C28340815181840F951FC81730
:1021D000D90761F44E5F5F4F88819981480F591F7D
:1021E000518340838A819B819383828321153105AA
:1021F00009F0B0CFF093EF02E093EE029ECFFD0125
:10220000DC01C0CF13821282D7CF81E090E0F89436
:082210000C940A11F894FFCFB1
:1022180077003601018B018B01010F0F01000000CF
:102228000000F0028000000000002C028C01B901BF
:102238007902EA01C801DC0100000000CA02C602F6
:102248000000FFFFAAAA8888555522221111CCCC7C
:102258009393B0B0C4C40D0A0053746172742E2EE7
:102268002E6C6574277320676F21004D6174726945
:102278007820736574757020646F6E650054696D9D
:0E228800657220736574757020646F6E65005A
:00000001FF
