:100000000C9462000C94C6050C949F050C948A0015
:100010000C948A000C948A000C948A000C948A0038
:100020000C948A000C948A000C948A000C948A0028
:100030000C948A000C9445060C948A000C948A0057
:100040000C9455050C948A000C9413060C94ED0541
:100050000C948A000C948A000C948A000C948A00F8
:100060000C948A000C948A000000000024002700F1
:100070002A0000000000250028002B0000000000DE
:1000800023002600290004040404040404040202DA
:100090000202020203030303030301020408102007
:1000A0004080010204081020010204081020000012
:1000B0000008000201000003040700000000000027
:1000C00000008E0611241FBECFEFD8E0DEBFCDBFEB
:1000D00011E0A0E0B1E0EEEDF4E202C005900D9277
:1000E000A438B107D9F723E0A4E8B1E001C01D921C
:1000F000AF31B207E1F710E0C2E6D0E004C02197CB
:10010000FE010E94560FC136D107C9F70E94800731
:100110000C946D120C940000833081F028F481302F
:1001200099F08230A9F008958730A9F08830C9F09D
:100130008430B1F4809180008F7D03C08091800075
:100140008F7780938000089584B58F7784BD08955C
:1001500084B58F7DFBCF8091B0008F778093B00006
:1001600008958091B0008F7DF9CFCF93DF93282F32
:1001700030E0F901E255FF4F8491F901E656FF4F57
:10018000D491F901EA57FF4FC491CC23A1F081111A
:100190000E948C00EC2FF0E0EE0FFF1FE458FF4FA1
:1001A000A591B491EC91ED2381E090E009F480E019
:1001B000DF91CF91089580E090E0FACF1F93CF9325
:1001C000DF93282F30E0F901E255FF4F8491F901C8
:1001D000E656FF4FD491F901EA57FF4FC491CC2363
:1001E000A9F0162F81110E948C00EC2FF0E0EE0F89
:1001F000FF1FEE58FF4FA591B4918FB7F894EC9183
:10020000111108C0D095DE23DC938FBFDF91CF9111
:100210001F910895DE2BF8CFCF93DF9390E0FC0180
:10022000E656FF4F24918A579F4FFC018491882303
:10023000C9F090E0880F991FFC01E859FF4FA59184
:10024000B491FC01EE58FF4FC591D49161110DC0DE
:100250009FB7F8948C91209582238C9388812823D2
:1002600028839FBFDF91CF910895623051F49FB7EB
:10027000F8943C91822F809583238C93E8812E2BD8
:10028000EFCF8FB7F894EC912E2B2C938FBFEACF42
:100290008E50806480937C0080917A00806480938B
:1002A0007A0080917A0086FDFCCF80917800909151
:1002B000790008953FB7F894809114029091150247
:1002C000A0911602B091170226B5A89B05C02F3F3A
:1002D00019F00196A11DB11D3FBFBA2FA92F982F6C
:1002E0008827BC01CD01620F711D811D911D42E067
:1002F000660F771F881F991F4A95D1F708952FB76A
:10030000F894609110027091110280911202909104
:1003100013022FBF08951F93CF93DF93EC01162F85
:10032000E881F9810280F381E02D42E050E00995F7
:10033000198B1886E881F9810190F081E02DCE01BA
:100340000995882319F08885836088870E947F013A
:100350006A837B838C839D83DF91CF911F91089566
:100360000895AF92BF92CF92DF92EF92FF920F93D8
:100370001F93CF93DF936C017B018B01040F151F3B
:10038000EB015E01AE18BF08C017D10759F06991A3
:10039000D601ED91FC910190F081E02DC601099507
:1003A000892B79F7C501DF91CF911F910F91FF90B4
:1003B000EF90DF90CF90BF90AF900895FC01538DE8
:1003C000448D252F30E0842F90E0821B930B54172F
:1003D00010F0CF96089501970895FC01918D828DBC
:1003E000981761F0A28DAE0FBF2FB11D5D968C9155
:1003F000928D9F5F9F73928F90E008958FEF9FEF94
:100400000895FC01918D828D981731F0828DE80F4F
:10041000F11D858D90E008958FEF9FEF0895FC0109
:10042000918D228D892F90E0805C9F4F821B9109D6
:100430008F739927089588E192E00E940F0221E0CE
:10044000892B09F420E0822F089580E090E0892B29
:1004500029F00E941B0281110C9400000895FC01F8
:10046000A48DA80FB92FB11DA35ABF4F2C91848D15
:1004700090E001968F739927848FA689B7892C9372
:10048000A089B1898C91837080648C93938D848DC5
:10049000981306C00288F389E02D80818F7D8083C8
:1004A0000895EF92FF920F931F93CF93DF93EC0188
:1004B00081E0888F9B8D8C8D98131AC0E889F9890B
:1004C000808185FF15C09FB7F894EE89FF8960830E
:1004D000E889F98980818370806480839FBF81E08F
:1004E00090E0DF91CF911F910F91FF90EF900895D1
:1004F000F62E0B8D10E00F5F1F4F0F731127E02EAC
:100500008C8D8E110CC00FB607FCFACFE889F989E3
:10051000808185FFF5CFCE010E942F02F1CFEB8DB8
:10052000EC0FFD2FF11DE35AFF4FF0829FB7F894B7
:100530000B8FEA89FB8980818062CFCFCF93DF93D5
:10054000EC01888D8823B9F0AA89BB89E889F989EB
:100550008C9185FD03C0808186FD0DC00FB607FC20
:10056000F7CF8C9185FFF2CF808185FFEDCFCE0153
:100570000E942F02E9CFDF91CF910895FC01808581
:1005800080FD04C082FB882780F9089580E00895EB
:10059000862F642F0C940C01FC0181890E94B50008
:1005A00021E0892B09F420E0822F08950F931F93F7
:1005B000CF93DF938091B5029091B602909385001E
:1005C0008093840081E08093020180910E02882351
:1005D00021F08091080281118CC0EDE0F1E0C7E0CC
:1005E000D1E020E131E0819169918F010150110941
:1005F00090E0019670E00E94420FD8018C932E1774
:100600003F0789F761E08DE00E94DE0020910D0137
:1006100080E090E8A0E0B0E004C0B595A79597957C
:1006200087952A95D2F74091170350911803052E0C
:10063000000C660B770B84239523A623B723892B05
:100640008A2B8B2B21F061E085E00E94DE00209157
:100650000E0180E090E8A0E0B0E004C0B595A79559
:10066000979587952A95D2F74091150350911603D7
:10067000052E000C660B770B84239523A623B72346
:100680002091F501222381F0892B8A2B8B2B89F174
:1006900061E086E00E94DE0061E087E0DF91CF91BB
:1006A0001F910F910C94DE00892B8A2B8B2B21F04C
:1006B00061E086E00E94DE0020910F0180E090E87A
:1006C000A0E0B0E004C0B595A795979587952A95C9
:1006D000D2F74091130350911403052E000C660BC2
:1006E000770B84239523A623B723892B8A2B8B2B67
:1006F00099F6DF91CF911F910F910895CF92DF92DC
:10070000EF92FF92CF93DF93D0910E02D13019F583
:1007100082E00E94B500892BF1F0C0911001C63033
:1007200008F510928A01109289011092020110922C
:100730000802D0910D02D11102C00E94D60281E0C0
:10074000809308028D2F90E001966C2F70E00E943C
:10075000420F80930D02DF91CF91FF90EF90DF90D9
:10076000CF9008950E947F016B017C0110920802D6
:100770000E94D602D0930802809185019091860153
:10078000A0918701B0918801A7019601281B390B20
:100790004A0B5B0BCA01B9012CEF2C0F30E050E083
:1007A00040E00E94D30E2093040230930502409350
:1007B0000602509307022C0D3D1D4E1D5F1D209318
:1007C000090230930A0240930B0250930C02C0922C
:1007D0008501D0928601E0928701F0928801C55090
:1007E000C0930D02B8CFCF92DF92EF92FF929C019F
:1007F000285E3F4F70E060E0FC0141915191CF01D4
:10080000640F751F2E173F07B9F7072E000C880BD2
:10081000990B0E948E1020E030E040E451E40E94E9
:10082000E40F6B017C0120E030E0A9010E941A1165
:1008300020E030E040E05FE387FD0CC0C701B60177
:100840000E94780F0E945610CB01FF90EF90DF902E
:10085000CF900895C701B6010E94770FF3CF1F9381
:10086000CF93DF938EE00E94480110918401C12F45
:10087000D0E0CC0FDD1FC557DE4FBC01990F880BB0
:10088000990B39E0660F771F881F991F3A95D1F7AA
:100890002FEF33E040E050E00E94D30E265C3F4F44
:1008A0004F4F5F4F3983288381E0810F6CE00E94B6
:1008B000360F909384018BE891E00E94F303EC01E2
:1008C00080910B0190910C01C817D9070CF04BC017
:1008D0008C1B9D0B03978CF00E947F0168517C4F0D
:1008E0008F4F9F4F6093F7017093F8018093F90148
:1008F0009093FA0181E08093FB01D0930C01C093A7
:100900000B0180910001909101018C1B9D0B97FFC1
:1009100003C091958195910902970CF1BE010D2EAE
:10092000000C880B990B0E948E109B01AC0160ECAF
:1009300071EE84E69AE40E94E40F9B01AC0160E052
:1009400070E080E897E40E94770F0E945610709341
:100950008A0160938901D0930101C0930001DF9166
:10096000CF911F9108958C179D073CF69E01281B7F
:10097000390BC901AFCFCF92DF92EF92FF920F9365
:100980001F93CF93DF9300D0CDB7DEB769834A833F
:10099000880F991F00910F0310911003000F111F72
:1009A000E9EBF2E09F01295B32402017310714F494
:1009B0001192F8CF2981FC01E754FD4F21838A81F0
:1009C000808360E080910D030E94DE001016110606
:1009D00004F501501109F801E754FD4FE080D09073
:1009E0000B03C090090388E0F82E6E2D661F662762
:1009F000661F8C2D0E94DE00EE0C61E08D2D0E94A2
:100A0000DE0060E08D2D0E94DE00FA94F110EDCF43
:100A1000DDCF61E080910D030F900F90DF91CF91BA
:100A20001F910F91FF90EF90DF90CF900C94DE001C
:100A3000EF92FF920F931F93CF937C018C0183E081
:100A4000000F111F8A95E1F707531D4FC1E0F80110
:100A500011928F0140E06C2FC7010E94BB04CF5F51
:100A6000C930A9F7CF911F910F91FF90EF90089592
:100A7000FC0101900020E9F73197AF01481B590BA9
:100A8000BC0188E192E00C94B101CF93DF930E9406
:100A90003805EC018BE491E00E9438058C0F9D1F16
:100AA000DF91CF9108950E9468121F920F920FB6A6
:100AB0000F9211242F933F938F939F93AF93BF93E4
:100AC0008091100290911102A0911202B091130234
:100AD00030910F0223E0230F2D3758F50196A11D09
:100AE000B11D20930F028093100290931102A093E6
:100AF0001202B09313028091140290911502A091FA
:100B00001602B09117020196A11DB11D8093140227
:100B100090931502A0931602B0931702BF91AF9164
:100B20009F918F913F912F910F900FBE0F901F902B
:100B3000189526E8230F0296A11DB11DD2CF1F9252
:100B40000F920FB60F9211242F933F934F935F9301
:100B50006F937F938F939F93AF93BF93EF93FF9385
:100B6000E0910501F09106010995FF91EF91BF9188
:100B7000AF919F918F917F916F915F914F913F9135
:100B80002F910F900FBE0F901F9018951F920F92EC
:100B90000FB60F9211242F933F934F935F936F9350
:100BA0007F938F939F93AF93BF93EF93FF93E091C6
:100BB0000301F09104010995FF91EF91BF91AF916D
:100BC0009F918F917F916F915F914F913F912F9165
:100BD0000F900FBE0F901F9018951F920F920FB697
:100BE0000F9211242F933F934F935F936F937F93B3
:100BF0008F939F93AF93BF93EF93FF9388E192E01E
:100C00000E942F02FF91EF91BF91AF919F918F9121
:100C10007F916F915F914F913F912F910F900FBEF8
:100C20000F901F9018951F920F920FB60F921124DC
:100C30002F938F939F93EF93FF93E0912802F0916E
:100C400029028081E0912E02F0912F0282FD1BC0CB
:100C50009081809131028F5F8F73209132028217D1
:100C600041F0E0913102F0E0E85EFD4F958F809316
:100C70003102FF91EF919F918F912F910F900FBEB5
:100C80000F901F9018958081F4CF1F920F920FB68E
:100C90000F9211242F933F934F935F936F937F9302
:100CA0008F939F93AF93BF93EF93FF938091020134
:100CB000811113C00E94D602FF91EF91BF91AF91B5
:100CC0009F918F917F916F915F914F913F912F9164
:100CD0000F900FBE0F901F901895109202018091F7
:100CE000890190918A012091B7023091B802820F58
:100CF000931F909385008093840060E08DE00E94B4
:100D0000DE0060E085E00E94DE0060E086E00E9498
:100D1000DE0060E087E00E94DE00CECFCF93DF935D
:100D200010921B0210921A0288EE93E0A0E0B0E04D
:100D300080931C0290931D02A0931E02B0931F0289
:100D40008FE191E0909319028093180285EC90E076
:100D5000909325028093240284EC90E090932702E4
:100D60008093260280EC90E09093290280932802E1
:100D700081EC90E090932B0280932A0282EC90E029
:100D800090932D0280932C0286EC90E090932F029A
:100D900080932E021092310210923202109233028E
:100DA0001092340285E595E590931A038093190318
:100DB0008AEA9AEA90931803809317038FEF9FEFC4
:100DC000909316038093150388E898E89093140392
:100DD0008093130388E490E00E944311FC019C017E
:100DE000285B3F4FCAE0D0E041E351E0128213821A
:100DF00014821582D783C683108651834083118A5B
:100E000072962E173F0791F7909312038093110368
:100E1000D0930A03C093090388E090E090930C03F9
:100E200080930B0329E030E030930E0320930D03F1
:100E30009093100380930F0361E08AE00E940C01FD
:100E400061E080910B030E940C0161E080910D0331
:100E50000E940C0161E080910D030E94DE00D0939E
:100E60000A03C0930903E9ECF2E0119283E0E93050
:100E7000F807D9F7D0E0C0E080910F0390911003FC
:100E8000C817D90774F540E06FE0CE010E94BB049B
:100E900080910F0390911003C817D9072CF447E0F5
:100EA0006BE0CE010E94BB0440E069E0CE010E94ED
:100EB000BB0480910F0390911003C817D9071CF44D
:100EC000CE010E94180580910F0390911003C8175E
:100ED000D9072CF440E06CE0CE010E94BB042196BF
:100EE000CBCF8BEB90E09093B8028093B70285E470
:100EF0009FEF9093B6028093B502DF91CF91089552
:100F0000CF93DF93CDB7DEB7A1970FB6F894DEBFCE
:100F10000FBECDBF789484B5826084BD84B58160F6
:100F200084BD85B5826085BD85B5816085BD8091B4
:100F30006E00816080936E0010928100809181002C
:100F40008260809381008091810081608093810024
:100F5000809180008160809380008091B1008460E6
:100F60008093B1008091B00081608093B000809147
:100F70007A00846080937A0080917A008260809306
:100F80007A0080917A00816080937A0080917A0063
:100F9000806880937A001092C100E0912802F0915D
:100FA000290282E08083E0912402F09125021082E0
:100FB000E0912602F09127028FEC8083109230029C
:100FC000E0912C02F0912D0286E08083E0912A02CC
:100FD000F0912B02808180618083E0912A02F09160
:100FE0002B02808188608083E0912A02F0912B029D
:100FF000808180688083E0912A02F0912B028081B9
:101000008F7D80838EE491E00E94450562E084E05C
:101010000E940C0160E082E00E940C0161E085E02A
:101020000E940C0161E086E00E940C0161E087E013
:101030000E940C0161E08AE00E940C0161E088E0FE
:101040000E940C0161E089E00E940C0161E08DE0EA
:101050000E940C0162E082E10E940C018091110368
:101060009091120360E170E0C6960E948B016CE0E3
:1010700070E080911103909112030E948B01809186
:1010800011039091120363E070E042960E948B017D
:1010900080911103909112036BE070E084960E949E
:1010A0008B01E0911103F091120389E190E09783A5
:1010B0008683918F808F93A782A795AF84AF0BE82B
:1010C00011E0FEEB8F2EF1E09F2EA7EDAA2EA1E0FE
:1010D000BA2EB3EAEB2EB1E0FB2E83EAC82E81E0F4
:1010E000D82E44244A9493E0592E612C712C8EE022
:1010F0000E944801BC01990F880B990BE9E0660F2B
:10110000771F881F991FEA95D1F7A30192010E94CA
:10111000D30E265C3F4F4F4F5F4FD8012D933D9329
:101120008D0181E10E94480127E030E0DC010E944E
:101130005C0FA30192010E94D30E2F5F3F4F4F4FD0
:101140005F4FF401219331934F018FE00E944801DA
:101150002FE030E0DC010E945C0FA30192010E94AD
:10116000D30E2F5F3F4F4F4F5F4FD5012D933D93D0
:101170005D0183E10E9448012FE230E0DC010E9422
:101180005C0FA30192010E94D30EF70121933193CA
:101190007F01C016D10609F0AACF80910F0390916C
:1011A00010031816190634F441E06CE090E080E07A
:1011B0000E94BB0480910F0390911003181619062A
:1011C00034F441E06AE090E080E00E94BB0480914A
:1011D0000F03909110031816190624F490E080E094
:1011E0000E94180580E691E00E94450584E00E9477
:1011F000B50091E0892780930E028EE793E09093EB
:10120000040180930301809169008C7F8160809349
:101210006900E89A80910E02811102C00E942F0499
:10122000F894109280001092810010928500109224
:1012300084008091810084608093810080916F00A0
:10124000816080936F00789482E791E00E94450569
:1012500088248A9473E0972EA12CB12C8091F401FC
:10126000882309F46CC283E10E9448012BE030E03E
:10127000DC010E945C0FA50194010E94D30E8091B5
:10128000BC019091BD012B30310539F0220F331F85
:101290002B5C3E4FD9018D919C9190931A038093C2
:1012A000190384E00E94B50091E0982790930E0204
:1012B000813011F40E942F04F12CE12C00911103D4
:1012C000109112030E0D1F1DD80118968C911897BE
:1012D0008B7F18968C931897ED91FC910190F0817B
:1012E000E02DC8010995D82EF8018085869581707A
:1012F000D81609F449C20E947F01D80112966D9355
:101300007D938D939C93159718968C91B2E08B27C3
:10131000F8018087F2E1EF0EF11C28E4E216F104F7
:1013200069F60091110310911203C80184960E947E
:10133000BE02F090F301882379F08091F4018823B4
:1013400009F472C28091190390911A03F11064C2DA
:101350009093180380931703C8010E94BE0288234C
:1013600031F010920D0110920E0110920F01C80180
:10137000C6960E94BE028823B1F081E08F0D837073
:101380008093F3010E947F0168517C4F8F4F9F4FE4
:101390006093F7017093F8018093F9019093FA013B
:1013A00084E08093FB018FE00E9448017090EF0180
:1013B000E72CF12CEE0CFF1CB70169527E4F7B012C
:1013C0002FE030E0DC010E945C0FA50194010E9437
:1013D000D30E2F5F3F4F4F4F5F4FD7012D933C935D
:1013E00081E0870D6CE00E94360F9093EF0187ED4E
:1013F00091E00E94F303782E6090F301862D90E037
:10140000FC01E95FFE4F7F0180817816E9F00E94C0
:101410007F0168517C4F8F4F9F4F6093F70170930E
:10142000F8018093F9019093FA01F2E0F093FB0147
:1014300033E0432E641024C27092070170920801B9
:101440007092090170920A0181E10E944801709036
:10145000D601E72CF12CEE0CFF1CF701E254FE4FF5
:101460007F0127E030E0DC010E945C0FA5019401C0
:101470000E94D30E2F5F3F4F4F4F5F4FD7012D93E9
:101480003C9381E0870D6CE00E94360F9093D6016B
:101490008EEB91E00E94F303F82E80911001F81674
:1014A00089F00E947F0168517C4F8F4F9F4F60935E
:1014B000F7017093F8018093F9019093FA0183E0AA
:1014C0008093FB01F0921001F801828D809581706C
:1014D0008093F401C80142960E94BE02882361F005
:1014E0000E947B0E2FEF3FEF40E050E00E94D30EB2
:1014F0007093BD016093BC0182E10E94B50021E0C0
:10150000892B09F420E02093F5012091FB012111A2
:10151000BAC18091170390911803909303028093AE
:10152000020210920102809115039091160390938C
:1015300000028093FF011092FE01809113039091AD
:1015400014039093FD018093FC0180910D01982F6D
:10155000969596959695E7E0F0E0E91BF1094091A4
:10156000F60150E8459F90011124E450FE4F87702A
:10157000B90102C0759567958A95E2F78081862743
:10158000808380910E01982F969596959695E4E02C
:10159000F0E0E91BF1098770B90102C07595679504
:1015A0008A95E2F7CB015091F501E450FE4F90810E
:1015B00089278083552309F408C381E08427809319
:1015C000F6018091F401882309F417C3809119036F
:1015D00090911A032091F3013DEF3203F0011124A1
:1015E000E450FE4F9783868301E010E080910F0363
:1015F00090911003181619066CF4F801E550FE4F8F
:101600004081F801E754FD4F4787602F90E080E06C
:101610000E94BB040F5F1F4F0930110539F78091FD
:101620001001863008F45AC080910E02813009F012
:1016300055C020910D02222309F450C030E050E043
:1016400040E019A28E010F5D1F4FCA01B9012AE0C7
:1016500030E040E050E00E94050F605DD8016E93DD
:101660008D01211531054105510579F7109719F0C4
:10167000CD010E9438058BE491E00E9438050E945C
:101680007F014090090250900A0260900B02709016
:101690000C02641575058605970504F11092080281
:1016A0000E94D602B1E0B093080280910D028150F1
:1016B00080930D028091040290910502A091060290
:1016C000B0910702840D951DA61DB71D80930902D8
:1016D00090930A02A0930B02B0930C020E945A014D
:1016E0006B017C018AE0482E512C612C712C0E94E8
:1016F0005A016C197D098E099F09683E7340810566
:101700009105A8F3E1E04E1A510861087108F8EE5E
:10171000CF0EF3E0DF1EE11CF11C41145104610403
:10172000710429F780E090E0892B09F497CD0E949D
:101730001B02882309F492CD0E9400008FCD83E123
:101740000E944801F090BB010F2D10E0000F111F07
:101750000D551E4F2FE030E0DC010E945C0FA5010B
:1017600094010E94D30EF8013183208381E08F0D14
:101770006CE00E94360F9093BB0183EA91E00E94D7
:10178000F3038093F1018DCD0E947F01D801129661
:101790002D913D914D915C9115972B013C01421A81
:1017A000530A640A750AB301A20116968D919C91A1
:1017B000B0E0A0E0481759076A077B0708F4AACDF4
:1017C000D80118968C918170D81609F4A3CD0E9487
:1017D0007F01F80162837383848395838085F1E0C0
:1017E0008F278460D80118968C930E947F01F8019E
:1017F0004184528463847484641975098609970945
:10180000658776878787908B0E947F01F8016187C3
:101810007287838794877ECD31E0F3122CC090933A
:1018200016038093150398CD8091F10140E050E8B4
:1018300060E070E004C075956795579547958A9567
:10184000D2F7CA01F11007C0209117033091180395
:10185000822793277DCD51E0F51207C02091150313
:101860003091160382279327DACF2091130330910A
:1018700014038227932790931403809313036CCD52
:10188000D7017C92E1CD213031F420900B013090D2
:101890000C0130E014C0233009F057C080911001D2
:1018A00030E022242394312C813049F0282E312C31
:1018B00031E0863020F0F4E02F1A310832E0109247
:1018C000FC011092FD011092FE011092FF01109296
:1018D0000002109201021092020210920302C10152
:1018E00064E670E00E94420F6330710509F48DC018
:1018F0000CF07AC06130710509F48DC06230710559
:1019000009F486C0233009F4FFC0C10164E670E029
:101910000E94420F6AE070E00E94420F6A30710537
:1019200008F088C0FB01E556F34F909102028091C8
:1019300000020C94560F0F0D340D3A0D440D4B0D53
:10194000520D5C0D5E0D680D770D223041F4E09173
:10195000F301F0E0E95FFE4F2080312C9ACF243074
:1019600009F097CF2091F301233021F58FEF809379
:10197000FC018093FD018093FF018093000280931E
:101980000202809303021092FE01109201020E9453
:101990007F010091F7011091F8012091F901309138
:1019A000FA01061717072807390708F01DCE10920D
:1019B000FB011ACE1092FC011092FD011092FE0163
:1019C0001092FF0110920002109201021092020286
:1019D000109203023DEF3203F0011124E450FE4F58
:1019E0008FEF87838683D3CF6530710541F054F044
:1019F0006630710509F086CF80E88093FE0180E8AB
:101A00008093FF0180E88093000280E880930102C8
:101A100080E88093020280E88093030273CF9E6384
:101A200090930202909101029262909301028E6360
:101A300080930002C1016AE070E00E94420F8A3088
:101A4000910508F077C0FC01E65DF24F9091FE0130
:101A50000C94560F910D9E0DA30DAB0DB00DB50D51
:101A6000BD0DBF0DC80DD70D986090930202982F41
:101A70009061DBCF9E6290930202909101029A6284
:101A8000909301028A63D4CF9A629093020290915C
:101A900001029A62CACF9863909302029091010268
:101AA0009860C3CF9A6390930202909101029A6268
:101AB000909301028E62BCCF9E63F5CF90629093AB
:101AC0000202982F9062909301028E63809300022D
:101AD000809102028E6380930202809101028A62E9
:101AE00080930102809100028E63809300028091B6
:101AF00002028A6380930202809101028A628093CB
:101B000001028091000293CF809100028461313004
:101B100009F48ECF323009F08DCF809100028860B9
:101B200087CF9E639093FE0182E28093FD018EE356
:101B30008093FC01222309F408CD29CF986090936B
:101B4000FE0180E1F2CF9E629093FE018AE28093D3
:101B5000FD018AE3EDCF9A629093FE018AE2E5CF20
:101B600098639093FE0188E0E0CF9A639093FE0122
:101B70008AE28093FD018EE2DBCF9E63F7CF906215
:101B80009093FE0180E28093FD018EE38093FC013F
:101B90008091FE018E638093FE018091FD018A6237
:101BA0008093FD018091FC018E638093FC01809104
:101BB000FE018A638093FE018091FD018A62809319
:101BC000FD018091FC018E63B3CF90910F01892FAD
:101BD000869586958695E1E0F0E0E81BF109E450F2
:101BE000FE4F9770D90102C0B595A7959A95E2F777
:101BF000CD01908189278083E0CC8091F2018823F8
:101C000051F12091F1013091F301822F8695869553
:101C1000869590E043E0349F800D911D1124E7E00C
:101C2000F0E0E81BF90B8091F001E450FE4F60E812
:101C3000869FA0011124277002C0559547952A95CB
:101C4000E2F790819427908371E087278093F001D9
:101C50001092F201C9CC81E08093F201C5CC8F9241
:101C60009F92AF92BF92CF92DF92EF92FF92CF936B
:101C7000DF93EC01688179818A819B81611571050F
:101C80008105910521F464E279ED8BE597E02DE182
:101C900033EF41E050E00E94D30E49015A019B010D
:101CA000AC01A7EAB1E40E94F20E6B017C01ACEE3C
:101CB000B4EFA50194010E94000FC60ED71EE81EC6
:101CC000F91EF7FE06C081E0C81AD108E10880E8D5
:101CD000F80AC882D982EA82FB82C701B6019F77DF
:101CE000DF91CF91FF90EF90DF90CF90BF90AF90BA
:101CF0009F908F9008958F929F92AF92BF92CF92B4
:101D0000DF92EF92FF926091110170911201809128
:101D1000130190911401611571058105910521F45C
:101D200064E279ED8BE597E02DE133EF41E050E09F
:101D30000E94D30E49015A019B01AC01A7EAB1E40C
:101D40000E94F20E6B017C01ACEEB4EFA501940190
:101D50000E94000FC60ED71EE81EF91EF7FE06C031
:101D600081E0C81AD108E10880E8F80AC0921101A0
:101D7000D0921201E0921301F0921401C701B60152
:101D80009F77FF90EF90DF90CF90BF90AF909F90A4
:101D90008F90089560931101709312018093130145
:101DA000909314010895052E97FB1EF400940E9451
:101DB000EA0E57FD07D00E94050F07FC03D04EF432
:101DC0000C94EA0E50954095309521953F4F4F4F1A
:101DD0005F4F089590958095709561957F4F8F4FD7
:101DE0009F4F08950E94270FA59F900DB49F900DBF
:101DF000A49F800D911D11240895B7FF0C94F20E3D
:101E00000E94F20E821B930B0895A1E21A2EAA1BC8
:101E1000BB1BFD010DC0AA1FBB1FEE1FFF1FA2179A
:101E2000B307E407F50720F0A21BB30BE40BF50B97
:101E3000661F771F881F991F1A9469F76095709520
:101E4000809590959B01AC01BD01CF010895A29FA3
:101E5000B001B39FC001A39F700D811D1124911D7E
:101E6000B29F700D811D1124911D0895991B79E079
:101E700004C0991F961708F0961B881F7A95C9F71A
:101E80008095089597FB072E16F4009407D077FDF0
:101E900009D00E94630F07FC05D03EF49095819510
:101EA0009F4F0895709561957F4F0895EE0FFF1F26
:101EB0000590F491E02D09940E94270FB7FF089533
:101EC000821B930B0895AA1BBB1B51E107C0AA1FDD
:101ED000BB1FA617B70710F0A61BB70B881F991FCB
:101EE0005A95A9F780959095BC01CD010895505859
:101EF000BB27AA270E948F0F0C94E0100E94D210DB
:101F000038F00E94D91020F039F49F3F19F426F4DC
:101F10000C94CF100EF4E095E7FB0C94C910E92F58
:101F20000E94F11058F3BA176207730784079507E8
:101F300020F079F4A6F50C9413110EF4E0950B2E15
:101F4000BA2FA02D0B01B90190010C01CA01A0010B
:101F50001124FF27591B99F0593F50F4503E68F166
:101F60001A16F040A22F232F342F4427585FF3CFA7
:101F7000469537952795A795F0405395C9F77EF478
:101F80001F16BA0B620B730B840BBAF09150A1F0C1
:101F9000FF0FBB1F661F771F881FC2F70EC0BA0F47
:101FA000621F731F841F48F4879577956795B795CF
:101FB000F7959E3F08F0B0CF9395880F08F09927CA
:101FC000EE0F9795879508950E94F80F0C94E010F6
:101FD0000E94D91058F00E94D21040F029F45F3FBF
:101FE00029F00C94C91051110C9414110C94CF10B9
:101FF0000E94F11068F39923B1F3552391F3951BD7
:10200000550BBB27AA2762177307840738F09F5F19
:102010005F4F220F331F441FAA1FA9F335D00E2E86
:102020003AF0E0E832D091505040E695001CCAF7F3
:102030002BD0FE2F29D0660F771F881FBB1F2617B6
:1020400037074807AB07B0E809F0BB0B802DBF018D
:10205000FF2793585F4F3AF09E3F510578F00C945C
:10206000C9100C9414115F3FE4F3983ED4F38695A5
:1020700077956795B795F7959F5FC9F7880F911D7D
:102080009695879597F90895E1E0660F771F881F69
:10209000BB1F621773078407BA0720F0621B730B1C
:1020A000840BBA0BEE1F88F7E09508950E945D102F
:1020B0006894B1110C94141108950E94F91088F0DD
:1020C0009F5798F0B92F9927B751B0F0E1F0660FFC
:1020D000771F881F991F1AF0BA95C9F714C0B1303D
:1020E00091F00E941311B1E008950C941311672F21
:1020F000782F8827B85F39F0B93FCCF3869577956C
:102100006795B395D9F73EF4909580957095619554
:102110007F4F8F4F9F4F0895E89409C097FB3EF47F
:1021200090958095709561957F4F8F4F9F4F992324
:10213000A9F0F92F96E9BB279395F69587957795A2
:102140006795B795F111F8CFFAF4BB0F11F460FF62
:102150001BC06F5F7F4F8F4F9F4F16C0882311F0BA
:1021600096E911C0772321F09EE8872F762F05C0CE
:10217000662371F096E8862F70E060E02AF09A9569
:10218000660F771F881FDAF7880F9695879597F95E
:10219000089597F99F6780E870E060E008959FEFE9
:1021A00080EC089500240A941616170618060906EE
:1021B000089500240A9412161306140605060895BD
:1021C000092E0394000C11F4882352F0BB0F40F445
:1021D000BF2B11F460FF04C06F5F7F4F8F4F9F4F85
:1021E000089557FD9058440F551F59F05F3F71F007
:1021F0004795880F97FB991F61F09F3F79F087956E
:102200000895121613061406551FF2CF4695F1DFF6
:1022100008C0161617061806991FF1CF8695710586
:10222000610508940895E894BB2766277727CB01BA
:1022300097F908950E941F1108F48FEF0895990FE0
:102240000008550FAA0BE0E8FEEF16161706E80780
:10225000F907C0F012161306E407F50798F0621BA1
:10226000730B840B950B39F40A2661F0232B242B76
:10227000252B21F408950A2609F4A140A6958FEF95
:10228000811D811D08950F931F93CF93DF9382309B
:10229000910510F482E090E0E0911D03F0911E039F
:1022A00030E020E0B0E0A0E0309799F4211531054E
:1022B00009F44AC0281B390B24303105D8F58A812E
:1022C0009B816115710589F1FB0193838283FE0176
:1022D00011C0408151810281138148175907E0F0F4
:1022E0004817590799F4109761F012960C931297BA
:1022F00013961C933296CF01DF91CF911F910F91CE
:10230000089500931D0310931E03F4CF211531058A
:1023100051F04217530738F0A901DB019A01BD01C2
:10232000DF01F801C1CFEF01F9CF90931E03809335
:102330001D03CDCFFE01E20FF31F81939193225035
:10234000310939832883D7CF20911B0330911C0397
:10235000232B41F4209117013091180130931C0375
:1023600020931B0320911501309116012115310591
:1023700041F42DB73EB74091190150911A01241B29
:10238000350BE0911B03F0911C03E217F307A0F457
:102390002E1B3F0B2817390778F0AC014E5F5F4FBB
:1023A0002417350748F04E0F5F1F50931C034093CE
:1023B0001B03819391939FCFF0E0E0E09CCFCF93FC
:1023C000DF930097E9F0FC01329713821282A0910B
:1023D0001D03B0911E03ED0130E020E01097A1F441
:1023E00020813181820F931F20911B0330911C03A8
:1023F0002817390709F061C0F0931C03E0931B0311
:10240000DF91CF910895EA01CE17DF07E8F54A8101
:102410005B819E0141155105B1F7E901FB83EA8318
:1024200049915991C40FD51FEC17FD0761F48081C4
:1024300091810296840F951FE90199838883828197
:1024400093819B838A83F0E0E0E012968D919C91CA
:1024500013970097B9F52D913C911197CD010296F4
:10246000820F931F20911B0330911C0328173907FB
:1024700039F6309751F510921E0310921D03B09358
:102480001C03A0931B03BCCFD383C2834081518123
:10249000840F951FC817D90761F44E5F5F4F88817D
:1024A0009981480F591F518340838A819B8193836F
:1024B00082832115310509F0B0CFF0931E03E0931C
:1024C0001D039ECFFD01DC01C0CF13821282D7CF46
:0E24D00081E090E0F8940C946D12F894FFCF28
:1024DE00770001B001B0011010101036010F0F0F70
:1024EE00010100000000001F0380000000000051E9
:1024FE0002B101DE019E020F02ED01010200000099
:10250E0000CC02C8020000FFFFAAAA8888555522F7
:10251E00221111CCCC9393B0B0C4C40D0A005374E5
:10252E006172742E2E2E6C6574277320676F2100D6
:10253E004D617472697820736574757020646F6E66
:10254E00650054696D657220736574757020646FD3
:04255E006E650000A6
:00000001FF
