:100000000C9462000C94C4050C949D050C948A0019
:100010000C948A000C948A000C948A000C948A0038
:100020000C948A000C948A000C948A000C948A0028
:100030000C948A000C9443060C948A000C948A0059
:100040000C9453050C948A000C9411060C94EB0547
:100050000C948A000C948A000C948A000C948A00F8
:100060000C948A000C948A000000000024002700F1
:100070002A0000000000250028002B0000000000DE
:1000800023002600290004040404040404040202DA
:100090000202020203030303030301020408102007
:1000A0004080010204081020010204081020000012
:1000B0000008000201000003040700000000000027
:1000C00000008C0611241FBECFEFD8E0DEBFCDBFED
:1000D00011E0A0E0B1E0E8ECF4E202C005900D927E
:1000E000AE37B107D9F722E0AEE7B1E001C01D920B
:1000F000AA3FB207E1F710E0C2E6D0E004C02197C2
:10010000FE010E94DE0EC136D107C9F70E947E07AC
:100110000C9462120C940000833081F028F481303A
:1001200099F08230A9F008958730A9F08830C9F09D
:100130008430B1F4809180008F7D03C08091800075
:100140008F7780938000089584B58F7784BD08955C
:1001500084B58F7DFBCF8091B0008F778093B00006
:1001600008958091B0008F7DF9CFCF93DF93282F32
:1001700030E0F901E255FF4F8491F901E656FF4F57
:10018000D491F901EA57FF4FC491CC23A1F081111A
:100190000E948C00EC2FF0E0EE0FFF1FE458FF4FA1
:1001A000A591B491EC91ED2381E090E009F480E019
:1001B000DF91CF91089580E090E0FACF1F93CF9325
:1001C000DF93282F30E0F901E255FF4F8491F901C8
:1001D000E656FF4FD491F901EA57FF4FC491CC2363
:1001E000A9F0162F81110E948C00EC2FF0E0EE0F89
:1001F000FF1FEE58FF4FA591B4918FB7F894EC9183
:10020000111108C0D095DE23DC938FBFDF91CF9111
:100210001F910895DE2BF8CFCF93DF9390E0FC0180
:10022000E656FF4F24918A579F4FFC018491882303
:10023000C9F090E0880F991FFC01E859FF4FA59184
:10024000B491FC01EE58FF4FC591D49161110DC0DE
:100250009FB7F8948C91209582238C9388812823D2
:1002600028839FBFDF91CF910895623051F49FB7EB
:10027000F8943C91822F809583238C93E8812E2BD8
:10028000EFCF8FB7F894EC912E2B2C938FBFEACF42
:100290008E50806480937C0080917A00806480938B
:1002A0007A0080917A0086FDFCCF80917800909151
:1002B000790008953FB7F8948091EF019091F00193
:1002C000A091F101B091F20126B5A89B05C02F3F86
:1002D00019F00196A11DB11D3FBFBA2FA92F982F6C
:1002E0008827BC01CD01620F711D811D911D42E067
:1002F000660F771F881F991F4A95D1F708952FB76A
:10030000F8946091EB017091EC018091ED01909176
:10031000EE012FBF08951F93CF93DF93EC01162FAB
:10032000E881F9810280F381E02D42E050E00995F7
:10033000198B1886E881F9810190F081E02DCE01BA
:100340000995882319F08885836088870E947F013A
:100350006A837B838C839D83DF91CF911F91089566
:100360000895AF92BF92CF92DF92EF92FF920F93D8
:100370001F93CF93DF936C017B018B01040F151F3B
:10038000EB015E01AE18BF08C017D10759F06991A3
:10039000D601ED91FC910190F081E02DC601099507
:1003A000892B79F7C501DF91CF911F910F91FF90B4
:1003B000EF90DF90CF90BF90AF900895FC01538DE8
:1003C000448D252F30E0842F90E0821B930B54172F
:1003D00010F0CF96089501970895FC01918D828DBC
:1003E000981761F0A28DAE0FBF2FB11D5D968C9155
:1003F000928D9F5F9F73928F90E008958FEF9FEF94
:100400000895FC01918D828D981731F0828DE80F4F
:10041000F11D858D90E008958FEF9FEF0895FC0109
:10042000918D228D892F90E0805C9F4F821B9109D6
:100430008F739927089583EF91E00E940F0221E0C6
:10044000892B09F420E0822F089580E090E0892B29
:1004500029F00E941B0281110C9400000895FC01F8
:10046000A48DA80FB92FB11DA35ABF4F2C91848D15
:1004700090E001968F739927848FA689B7892C9372
:10048000A089B1898C91837080648C93938D848DC5
:10049000981306C00288F389E02D80818F7D8083C8
:1004A0000895EF92FF920F931F93CF93DF93EC0188
:1004B00081E0888F9B8D8C8D98131AC0E889F9890B
:1004C000808185FF15C09FB7F894EE89FF8960830E
:1004D000E889F98980818370806480839FBF81E08F
:1004E00090E0DF91CF911F910F91FF90EF900895D1
:1004F000F62E0B8D10E00F5F1F4F0F731127E02EAC
:100500008C8D8E110CC00FB607FCFACFE889F989E3
:10051000808185FFF5CFCE010E942F02F1CFEB8DB8
:10052000EC0FFD2FF11DE35AFF4FF0829FB7F894B7
:100530000B8FEA89FB8980818062CFCFCF93DF93D5
:10054000EC01888D8823B9F0AA89BB89E889F989EB
:100550008C9185FD03C0808186FD0DC00FB607FC20
:10056000F7CF8C9185FFF2CF808185FFEDCFCE0153
:100570000E942F02E9CFDF91CF910895FC01808581
:1005800080FD04C082FB882780F9089580E00895EB
:10059000862F642F0C940C01FC0181890E94B50008
:1005A00021E0892B09F420E0822F0895CF92DF9279
:1005B000EF92FF928091900290919102909385002A
:1005C0008093840081E0809302018091E901882377
:1005D00021F08091E30181118AC080910A0190E0AD
:1005E00001966091070170E00E94CA0EF82E809378
:1005F0000A01811108C08091CF0190E001968170BD
:1006000099278093CF0161E08DE00E94DE0080E0B9
:1006100090E8A0E0B0E09C01AD0104C0559547957D
:1006200037952795FA94D2F769017A018091F20201
:100630009091F302092E000CAA0BBB0B82239D2183
:10064000A423BF21892B8A2B8B2B21F061E085E02D
:100650000E94DE008091D001882329F18091CF0192
:1006600081111CC08091F0029091F102092E000CC2
:10067000AA0BBB0B8C219D21AE21BF21892B8A2B7C
:100680008B2BA9F161E086E00E94DE0061E087E04B
:10069000FF90EF90DF90CF900C94DE008091EE02FF
:1006A0009091EF02E3CF8091F0029091F102092E38
:1006B000000CAA0BBB0B8C219D21AE21BF21892BE5
:1006C0008A2B8B2B21F061E086E00E94DE00809176
:1006D000EE029091EF02092E000CAA0BBB0B8C21AD
:1006E0009D21AE21BF21892B8A2B8B2B79F6FF9080
:1006F000EF90DF90CF900895CF92DF92EF92FF922C
:10070000CF93DF93D091E901D13019F582E00E94B7
:10071000B500892BF1F0C0910B01C63008F510929D
:10072000840110928301109202011092E301D09192
:10073000E801D11102C00E94D60281E08093E3015A
:100740008D2F90E001966C2F70E00E94CA0E80936E
:10075000E801DF91CF91FF90EF90DF90CF90089567
:100760000E947F016B017C011092E3010E94D6027E
:10077000D093E30180917F0190918001A09181014C
:10078000B0918201A7019601281B390B4A0B5B0B24
:10079000CA01B9012CEF2C0F30E050E040E00E947C
:1007A000670E2093DF013093E0014093E101509305
:1007B000E2012C0D3D1D4E1D5F1D2093E401309381
:1007C000E5014093E6015093E701C0927F01D0928A
:1007D0008001E0928101F0928201C550C093E8014E
:1007E000B8CFCF92DF92EF92FF929C01205F3F4FF4
:1007F00070E060E0FC0141915191CF01640F751FE1
:100800002E173F07B9F7072E000C880B990B0E9493
:10081000161020E030E040E05EE30E94A7106B017C
:100820007C0120E030E0A9010E94A21020E030E02D
:1008300040E05FE387FD0CC0C701B6010E94000FD6
:100840000E94DE0FCB01FF90EF90DF90CF900895D4
:10085000C701B6010E94FF0EF3CF0F931F93CF93F2
:10086000DF938EE00E944801C0917E010C2F10E0C2
:10087000000F111F0B571E4FBC01990F880B990BCE
:1008800039E0660F771F881F991F3A95D1F72FEF30
:1008900033E040E050E00E94670E265C3F4F4F4F30
:1008A0005F4FF80131832083CF5FC770C0937E0113
:1008B00085E891E00E94F103EC018091080190919C
:1008C0000901C817D9070CF04CC08C1B9D0B03976E
:1008D0008CF00E947F0168517C4F8F4F9F4F609337
:1008E000D2017093D3018093D4019093D50181E01C
:1008F0008093D601D0930901C09308018091000133
:10090000909101018C1B9D0B97FF03C091958195E0
:10091000910902970CF1BE010D2E000C880B990B6A
:100920000E9416109B01AC0160EC71EE84E69AE423
:100930000E946C0F9B01AC0160E070E080E897E4DE
:100940000E94FF0E0E94DE0F70938401609383016A
:10095000D0930101C0930001DF91CF911F910F91BE
:1009600008958C179D0734F69E01281B390BC90189
:10097000AECFCF92DF92EF92FF920F931F93CF9360
:10098000DF9300D0CDB7DEB769834A83880F991F04
:100990000091EA021091EB02000F111FE4E9F2E06E
:1009A0009F01245932402017310714F41192F8CFD7
:1009B0002981FC01EC56FD4F21838A81808360E010
:1009C0008091E8020E94DE001016110604F5015025
:1009D0001109F801EC56FD4FE080D090E602C0907E
:1009E000E40288E0F82E6E2D661F6627661F8C2DA8
:1009F0000E94DE00EE0C61E08D2D0E94DE0060E0C2
:100A00008D2D0E94DE00FA94F110EDCFDDCF61E074
:100A10008091E8020F900F90DF91CF911F910F917D
:100A2000FF90EF90DF90CF900C94DE00EF92FF925A
:100A30000F931F93CF937C018C0183E0000F111F54
:100A40008A95E1F70C551D4FC1E0F80111928F0115
:100A500040E06C2FC7010E94B904CF5FC930A9F7ED
:100A6000CF911F910F91FF90EF900895FC0101909D
:100A70000020E9F73197AF01481B590BBC0183EF08
:100A800091E00C94B101CF93DF930E943605EC0105
:100A900086E491E00E9436058C0F9D1FDF91CF9177
:100AA00008950E945D121F920F920FB60F921124AB
:100AB0002F933F938F939F93AF93BF938091EB01BD
:100AC0009091EC01A091ED01B091EE013091EA011D
:100AD00023E0230F2D3758F50196A11DB11D20935A
:100AE000EA018093EB019093EC01A093ED01B093A8
:100AF000EE018091EF019091F001A091F101B09190
:100B0000F2010196A11DB11D8093EF019093F001B8
:100B1000A093F101B093F201BF91AF919F918F919A
:100B20003F912F910F900FBE0F901F90189526E8C0
:100B3000230F0296A11DB11DD2CF1F920F920FB6A7
:100B40000F9211242F933F934F935F936F937F9353
:100B50008F939F93AF93BF93EF93FF93E091050122
:100B6000F09106010995FF91EF91BF91AF919F918F
:100B70008F917F916F915F914F913F912F910F9046
:100B80000FBE0F901F9018951F920F920FB60F92E5
:100B900011242F933F934F935F936F937F938F9382
:100BA0009F93AF93BF93EF93FF93E0910301F09175
:100BB00004010995FF91EF91BF91AF919F918F91A2
:100BC0007F916F915F914F913F912F910F900FBE49
:100BD0000F901F9018951F920F920FB60F9211242D
:100BE0002F933F934F935F936F937F938F939F9335
:100BF000AF93BF93EF93FF9383EF91E00E942F0297
:100C0000FF91EF91BF91AF919F918F917F916F91E4
:100C10005F914F913F912F910F900FBE0F901F90BA
:100C200018951F920F920FB60F9211242F938F9346
:100C30009F93EF93FF93E0910302F0910402808170
:100C4000E0910902F0910A0282FD1BC0908180911F
:100C50000C028F5F8F7320910D02821741F0E0919B
:100C60000C02F0E0ED50FE4F958F80930C02FF9147
:100C7000EF919F918F912F910F900FBE0F901F902A
:100C800018958081F4CF1F920F920FB60F92112406
:100C90002F933F934F935F936F937F938F939F9384
:100CA000AF93BF93EF93FF9380910201811113C023
:100CB0000E94D602FF91EF91BF91AF919F918F91CA
:100CC0007F916F915F914F913F912F910F900FBE48
:100CD0000F901F90189510920201809183019091BE
:100CE00084012091920230919302820F931F90937E
:100CF00085008093840060E08DE00E94DE0060E06B
:100D000085E00E94DE0060E086E00E94DE0060E098
:100D100087E00E94DE00CECFCF93DF931092F601E2
:100D20001092F50188EE93E0A0E0B0E08093F70127
:100D30009093F801A093F901B093FA018AE191E050
:100D40009093F4018093F30185EC90E0909300027E
:100D50008093FF0184EC90E0909302028093010263
:100D600080EC90E0909304028093030281EC90E089
:100D7000909306028093050282EC90E09093080223
:100D80008093070286EC90E090930A028093090218
:100D900010920C0210920D0210920E0210920F028D
:100DA00085E595E59093F5028093F4028AEA9AEA44
:100DB0009093F3028093F2028FEF9FEF9093F102F2
:100DC0008093F00288E898E89093EF028093EE0217
:100DD00088E490E00E943811FC019C01285B3F4FA1
:100DE000CAE0D0E04CE251E01282138214821582F4
:100DF000D783C683108651834083118A72962E173B
:100E00003F0791F79093ED028093EC02D093E502B7
:100E1000C093E40288E090E09093E7028093E602BA
:100E200029E030E03093E9022093E8029093EB024E
:100E30008093EA0261E08AE00E940C0161E0809107
:100E4000E6020E940C0161E08091E8020E940C0120
:100E500061E08091E8020E94DE00D093E502C09339
:100E6000E402E4EAF2E0119282E0E43EF807D9F706
:100E7000D0E0C0E08091EA029091EB02C817D90758
:100E800074F540E06FE0CE010E94B9048091EA025F
:100E90009091EB02C817D9072CF447E06BE0CE0124
:100EA0000E94B90440E069E0CE010E94B90480913B
:100EB000EA029091EB02C817D9071CF4CE010E94F8
:100EC00016058091EA029091EB02C817D9072CF41D
:100ED00040E06CE0CE010E94B9042196CBCF8BEBB1
:100EE00090E0909393028093920285E49FEF909319
:100EF000910280939002DF91CF910895CF93DF9379
:100F0000CDB7DEB7A1970FB6F894DEBF0FBECDBF49
:100F1000789484B5826084BD84B5816084BD85B5D4
:100F2000826085BD85B5816085BD80916E008160E0
:100F300080936E0010928100809181008260809386
:100F40008100809181008160809381008091800088
:100F50008160809380008091B10084608093B100B3
:100F60008091B00081608093B00080917A008460AD
:100F700080937A0080917A00826080937A008091D9
:100F80007A00816080937A0080917A0080688093F3
:100F90007A001092C100E0910302F091040282E015
:100FA0008083E091FF01F09100021082E091010244
:100FB000F09102028FEC808310920B02E091070205
:100FC000F091080286E08083E0910502F09106022C
:100FD000808180618083E0910502F091060280812A
:100FE00088608083E0910502F0910602808180682C
:100FF0008083E0910502F091060280818F7D8083DD
:1010000089E491E00E94430562E084E00E940C01C3
:1010100060E082E00E940C0161E085E00E940C012A
:1010200061E086E00E940C0161E087E00E940C0113
:1010300061E08AE00E940C0161E088E00E940C01FE
:1010400061E089E00E940C0161E08DE00E940C01EA
:1010500062E082E10E940C018091EC029091ED022D
:1010600060E170E0C6960E948B016CE070E08091B8
:10107000EC029091ED020E948B018091EC02909124
:10108000ED0263E070E042960E948B018091EC02D9
:101090009091ED026BE070E084960E948B01E091EC
:1010A000EC02F091ED0289E190E097838683918FC5
:1010B000808F93A782A795AF84AF05E811E0B8EAC7
:1010C000AB2EB1E0BB2E89EBC82E81E0D82E95E97E
:1010D000E92E91E0F92E25E9822E21E0922E44247A
:1010E0004A9433E0532E612C712C8EE00E9448010B
:1010F000BC01990F880B990BA9E0660F771F881F19
:10110000991FAA95D1F7A30192010E94670E265C50
:101110003F4F4F4F5F4FD8012D933D938D0181E19C
:101120000E94480127E030E0DC010E94E40EA301A8
:1011300092010E94670E2F5F3F4F4F4F5F4FF501A7
:10114000219331935F018FE00E9448012FE030E04E
:10115000DC010E94E40EA30192010E94670E2F5F42
:101160003F4F4F4F5F4FD6012D933D936D0183E16C
:101170000E9448012FE230E0DC010E94E40EA3014E
:1011800092010E94670EF701219331937F0180162F
:10119000910609F0AACF8091EA029091EB0218160D
:1011A000190634F441E06CE090E080E00E94B9045C
:1011B0008091EA029091EB021816190634F441E08E
:1011C0006AE090E080E00E94B9048091EA02909188
:1011D000EB021816190624F490E080E00E94160530
:1011E0008BE591E00E94430584E00E94B50091E008
:1011F00089278093E9018CE793E090930401809321
:101200000301809169008C7F816080936900E89A76
:101210008091E901811102C00E942D04F89410927E
:1012200080001092810010928500109284008091BD
:10123000810084608093810080916F008160809341
:101240006F0078948DE691E00E94430588248A948B
:10125000F3E09F2EA12CB12C8091CE01882309F4BC
:101260002CC283E10E9448012BE030E0DC010E94A7
:10127000E40EA50194010E94670E8091A601909151
:10128000A7012B30310539F0220F331F205D3E4F6F
:10129000D9018D919C919093F5028093F40284E0A2
:1012A0000E94B50091E098279093E901813011F4F4
:1012B0000E942D04F12CE12C0091EC021091ED0222
:1012C0000E0D1F1DD80118968C9118978B7F1896BC
:1012D0008C931897ED91FC910190F081E02DC8015D
:1012E0000995D82EF801808586958170D81609F465
:1012F00018C20E947F01D80112966D937D938D9341
:101300009C93159718968C91B2E08B27F8018087F3
:10131000F2E1EF0EF11C08E4E016F10469F6E0904A
:10132000EC02F090ED02C70184960E94BE02882371
:1013300089F04091CD019091CE01992309F445C2E5
:101340002091F4023091F502411133C23093F3023F
:101350002093F202C7010E94BE02811110920A017D
:101360008FE00E9448017090C901072D10E0000F26
:10137000111F07541E4F2FE030E0DC010E94E40EE5
:10138000A50194010E94670E2F5F3F4F4F4F5F4FA3
:10139000D8012D933C9381E0870D87708093C9011C
:1013A00089EB91E00E94F103182F80910701181733
:1013B00089F00E947F0168517C4F8F4F9F4F60934F
:1013C000D2017093D3018093D4019093D501B2E000
:1013D000B093D6011093070181E10E9448017090FB
:1013E000B801072D10E0000F111F08551E4F27E010
:1013F00030E0DC010E94E40EA50194010E94670E1A
:101400002F5F3F4F4F4F5F4FF8013183208381E0C3
:10141000870D87708093B80188EA91E00E94F103FC
:10142000182F80910B01181789F00E947F016851D5
:101430007C4F8F4F9F4F6093D2017093D301809365
:10144000D4019093D50183E08093D60110930B01D2
:10145000D7015A968C91809581708093CE01C701F7
:1014600042960E94BE02882361F00E940F0E2FEF69
:101470003FEF40E050E00E94670E7093A701609339
:10148000A60182E10E94B50021E0892B09F420E049
:101490002093D0012091D6012111CBC18091F2027D
:1014A0009091F3029093DE018093DD011092DC01B4
:1014B0008091F0029091F1029093DB018093DA0128
:1014C0001092D9018091EE029091EF029093D80191
:1014D0008093D70190910A01292F2695269526956C
:1014E00030E067E070E0621B730B4091D10100E8CF
:1014F000409FF00111249770DF0102C0B595A795B8
:101500009A95E2F7CD01FB01E952FE4F50815A272F
:1015100050835091D001552309F4F5C25091CF0169
:101520005111FAC2E4E0F0E0E21BF30BE952FE4F86
:10153000908189278083B1E04B274093D10180912E
:10154000CE01882309F4EDC28091F4029091F50256
:101550002091CD010DEF0203F0011124E952FE4F5D
:101560009783868301E010E08091EA029091EB027C
:10157000181619066CF4F801EA52FE4F4081F80182
:10158000EC56FD4F4787602F90E080E00E94B90441
:101590000F5F1F4F0930110539F780910B0186301D
:1015A00008F45AC08091E901813009F055C02091BA
:1015B000E801222309F450C030E050E040E019A2D5
:1015C0008E010F5D1F4FCA01B9012AE030E040E0F3
:1015D00050E00E94990E605DD8016E938D01211537
:1015E00031054105510579F7109719F0CD010E9499
:1015F000360586E491E00E9436050E947F01409006
:10160000E4015090E5016090E6017090E7016415F7
:1016100075058605970504F11092E3010E94D60234
:10162000B1E0B093E3018091E80181508093E8013B
:101630008091DF019091E001A091E101B091E20180
:10164000840D951DA61DB71D8093E4019093E501BF
:10165000A093E601B093E7010E945A016B017C015F
:101660008AE0482E512C612C712C0E945A016C1971
:101670007D098E099F09683E734081059105A8F395
:10168000E1E04E1A510861087108F8EECF0EF3E060
:10169000DF1EE11CF11C411451046104710429F79F
:1016A00080E090E0892B09F4D7CD0E941B028823AB
:1016B00009F4D2CD0E940000CFCD83E10E94480101
:1016C000F090A5010F2D10E0000F111F0B561E4FBB
:1016D0002FE230E0DC010E94E40EA50194010E949B
:1016E000670EF8013183208381E08F0D877080932E
:1016F000A50185E991E00E94F103382F292F60E1CF
:1017000070E00E94CA0E8093CB01832F922F97FD29
:101710000F9664E0959587956A95E1F78093CD01E2
:10172000BECD0E947F01D80112962D913D914D9121
:101730005C9115972B013C01421A530A640A750A01
:10174000B301A20116968D919C91B0E0A0E04817DC
:1017500059076A077B0708F4DBCDD80118968C91EE
:101760008170D81609F4D4CD0E947F01F8016283FC
:101770007383848395838085F1E08F278460D8010B
:1017800018968C930E947F01F801418452846384EF
:101790007484641975098609970965877687878730
:1017A000908B0E947F01F8016187728783879487FD
:1017B000AFCD413029F43093F1022093F002CACD2D
:1017C0003093EF022093EE02C5CD9091CB01412CD6
:1017D00050E8552E612C712C04C075946794579471
:1017E00047949A95D2F7C20141110BC02091F202A1
:1017F0003091F302822793279093F3028093F202B1
:10180000A9CD413059F42091F0023091F1028227A4
:1018100093279093F1028093F0029CCD2091EE02E9
:101820003091EF02822793279093EF028093EE028C
:1018300091CD213031F4209008013090090130E041
:1018400014C0233009F056C080910B0130E02224EF
:101850002394312C813049F0282E312C31E0863010
:1018600020F0B4E02B1A310832E01092D701109228
:10187000D8011092D9011092DA011092DB01109276
:10188000DC011092DD011092DE01C10164E670E01E
:101890000E94CA0E6330710509F443C094F56130AB
:1018A000710509F444C06230710509F43DC023306C
:1018B00009F4B6C0C10164E670E00E94CA0E6AE095
:1018C00070E00E94CA0E6A30710508F03FC0FB014B
:1018D000E059F34F9091DD018091DB010C94DE0E15
:1018E0009B0CC00CC60CD00CD70CDE0CE80CEA0C20
:1018F000F40C030D223009F0A2CF20900701312C07
:101900009ECF6530710539F04CF06630710579F67F
:1019100080E88093D90180E88093DA0180E88093A1
:10192000DB0180E88093DC0180E88093DD0180E8C2
:101930008093DE01BCCF9E639093DD019091DC012A
:1019400092629093DC018E638093DB01C1016AE0B7
:1019500070E00E94CA0E8A30910508F077C0FC0141
:10196000EA54F34F9091D9010C94DE0E1D0D3C0DFD
:10197000410D490D4E0D530D5B0D5D0D660D750D41
:1019800098609093DD01982F9061DBCF9E629093D9
:10199000DD019091DC019A629093DC018A63D4CFDF
:1019A0009A629093DD019091DC019A62CACF9863AC
:1019B0009093DD019091DC019860C3CF9A6390937E
:1019C000DD019091DC019A629093DC018E62BCCFC4
:1019D0009E63F5CF90629093DD01982F9062909373
:1019E000DC018E638093DB018091DD018E63809347
:1019F000DD018091DC018A628093DC018091DB0152
:101A00008E638093DB018091DD018A638093DD0129
:101A10008091DC018A628093DC018091DB0193CFAD
:101A20008091DB018461313009F48ECF323009F0CE
:101A30008DCF8091DB01886087CF9E639093D90121
:101A400082E28093D8018EE38093D701222309F4A8
:101A500041CD0E947F010091D2011091D3012091CC
:101A6000D4013091D501061717072807390708F068
:101A700079CD1092D60176CD98609093D90180E10E
:101A8000E0CF9E629093D9018AE28093D8018AE3E5
:101A9000DBCF9A629093D9018AE2D3CF9863909377
:101AA000D90188E0CECF9A639093D9018AE28093DE
:101AB000D8018EE2C9CF9E63F7CF90629093D9018F
:101AC00080E28093D8018EE38093D7018091D90181
:101AD0008E638093D9018091D8018A628093D80166
:101AE0008091D7018E638093D7018091D9018A6359
:101AF0008093D9018091D8018A628093D801809126
:101B0000D7018E63A1CFE4E0F0E0E21BF30BE952D2
:101B1000FE4F908198279083E8EDF1E0E21BF30BF4
:101B200007CD8091CC01882351F12091CB013091D8
:101B3000CD01822F86958695869590E013E0319FA2
:101B4000800D911D1124E7E0F0E0E81BF90B809176
:101B5000CA01E952FE4F30E8839FA001112427708B
:101B600002C0559547952A95E2F790819427908376
:101B700041E084278093CA011092CC01F3CC81E02C
:101B80008093CC01EFCC8F929F92AF92BF92CF9275
:101B9000DF92EF92FF92CF93DF93EC01688179811E
:101BA0008A819B81611571058105910521F464E2AB
:101BB00079ED8BE597E02DE133EF41E050E00E94B5
:101BC000670E49015A019B01AC01A7EAB1E40E94EA
:101BD000860E6B017C01ACEEB4EFA50194010E946E
:101BE000940EC60ED71EE81EF91EF7FE06C081E051
:101BF000C81AD108E10880E8F80AC882D982EA82C6
:101C0000FB82C701B6019F77DF91CF91FF90EF90E4
:101C1000DF90CF90BF90AF909F908F9008958F925C
:101C20009F92AF92BF92CF92DF92EF92FF9260911C
:101C30000C0170910D0180910E0190910F016115C1
:101C400071058105910521F464E279ED8BE597E05A
:101C50002DE133EF41E050E00E94670E49015A0147
:101C60009B01AC01A7EAB1E40E94860E6B017C01E6
:101C7000ACEEB4EFA50194010E94940EC60ED71EDF
:101C8000E81EF91EF7FE06C081E0C81AD108E10877
:101C900080E8F80AC0920C01D0920D01E0920E018A
:101CA000F0920F01C701B6019F77FF90EF90DF9090
:101CB000CF90BF90AF909F908F90089560930C014C
:101CC00070930D0180930E0190930F010895052EDE
:101CD00097FB1EF400940E947E0E57FD07D00E94D1
:101CE000990E07FC03D04EF40C947E0E509540954F
:101CF000309521953F4F4F4F5F4F089590958095B8
:101D0000709561957F4F8F4F9F4F08950E94BB0E36
:101D1000A59F900DB49F900DA49F800D911D11243F
:101D20000895B7FF0C94860E0E94860E821B930BBB
:101D30000895A1E21A2EAA1BBB1BFD010DC0AA1F0C
:101D4000BB1FEE1FFF1FA217B307E407F50720F024
:101D5000A21BB30BE40BF50B661F771F881F991F9F
:101D60001A9469F760957095809590959B01AC01E8
:101D7000BD01CF010895A29FB001B39FC001A39FF1
:101D8000700D811D1124911DB29F700D811D1124B4
:101D9000911D089597FB072E16F4009407D077FD48
:101DA00009D00E94EB0E07FC05D03EF4909581957A
:101DB0009F4F0895709561957F4F0895EE0FFF1F17
:101DC0000590F491E02D09940E94BB0EB7FF089591
:101DD000821B930B0895AA1BBB1B51E107C0AA1FCE
:101DE000BB1FA617B70710F0A61BB70B881F991FBC
:101DF0005A95A9F780959095BC01CD01089550584A
:101E0000BB27AA270E94170F0C9468100E945A1033
:101E100038F00E94611020F039F49F3F19F426F445
:101E20000C9457100EF4E095E7FB0C945110E92F39
:101E30000E94791058F3BA17620773078407950751
:101E400020F079F4A6F50C949B100EF4E0950B2E7F
:101E5000BA2FA02D0B01B90190010C01CA01A001FC
:101E60001124FF27591B99F0593F50F4503E68F157
:101E70001A16F040A22F232F342F4427585FF3CF98
:101E8000469537952795A795F0405395C9F77EF469
:101E90001F16BA0B620B730B840BBAF09150A1F0B2
:101EA000FF0FBB1F661F771F881FC2F70EC0BA0F38
:101EB000621F731F841F48F4879577956795B795C0
:101EC000F7959E3F08F0B0CF9395880F08F09927BB
:101ED000EE0F9795879508950E94800F0C946810D7
:101EE0000E94611058F00E945A1040F029F45F3FA0
:101EF00029F00C94511051110C949C100C94571013
:101F00000E94791068F39923B1F3552391F3951B3F
:101F1000550BBB27AA2762177307840738F09F5F0A
:101F20005F4F220F331F441FAA1FA9F335D00E2E77
:101F30003AF0E0E832D091505040E695001CCAF7E4
:101F40002BD0FE2F29D0660F771F881FBB1F2617A7
:101F500037074807AB07B0E809F0BB0B802DBF017E
:101F6000FF2793585F4F3AF09E3F510578F00C944D
:101F700051100C949C105F3FE4F3983ED4F3869587
:101F800077956795B795F7959F5FC9F7880F911D6E
:101F90009695879597F90895E1E0660F771F881F5A
:101FA000BB1F621773078407BA0720F0621B730B0D
:101FB000840BBA0BEE1F88F7E09508950E94E50F99
:101FC0006894B1110C949C1008950E94811088F0BF
:101FD0009F5798F0B92F9927B751B0F0E1F0660FED
:101FE000771F881F991F1AF0BA95C9F714C0B1302E
:101FF00091F00E949B10B1E008950C949B10672F04
:10200000782F8827B85F39F0B93FCCF3869577955C
:102010006795B395D9F73EF4909580957095619545
:102020007F4F8F4F9F4F0895E89409C097FB3EF470
:1020300090958095709561957F4F8F4F9F4F992315
:10204000A9F0F92F96E9BB279395F6958795779593
:102050006795B795F111F8CFFAF4BB0F11F460FF53
:102060001BC06F5F7F4F8F4F9F4F16C0882311F0AB
:1020700096E911C0772321F09EE8872F762F05C0BF
:10208000662371F096E8862F70E060E02AF09A955A
:10209000660F771F881FDAF7880F9695879597F94F
:1020A000089597F99F6780E870E060E008959FEFDA
:1020B00080EC089500240A941616170618060906DF
:1020C000089500240A9412161306140605060895AE
:1020D000092E0394000C11F4882352F0BB0F40F436
:1020E000BF2B11F460FF04C06F5F7F4F8F4F9F4F76
:1020F000089557FD9058440F551F59F05F3F71F0F8
:102100004795880F97FB991F61F09F3F79F087955E
:102110000895121613061406551FF2CF4695F1DFE7
:1021200008C0161617061806991FF1CF8695710577
:10213000610508940895E894BB2766277727CB01AB
:1021400097F908950E94141108F48FEF08950E94E2
:10215000BA100C9468100E945A1038F00E94611056
:1021600020F0952311F00C9451100C945710112469
:102170000C949C100E94791070F3959FC1F3950FF9
:1021800050E0551F629FF001729FBB27F00DB11DFB
:10219000639FAA27F00DB11DAA1F649F6627B00D8B
:1021A000A11D661F829F2227B00DA11D621F739F74
:1021B000B00DA11D621F839FA00D611D221F749F82
:1021C0003327A00D611D231F849F600D211D822FC9
:1021D000762F6A2F11249F5750409AF0F1F08823F0
:1021E0004AF0EE0FFF1FBB1F661F771F881F91501D
:1021F0005040A9F79E3F510580F00C9451100C946B
:102200009C105F3FE4F3983ED4F3869577956795ED
:10221000B795F795E7959F5FC1F7FE2B880F911D46
:102220009695879597F90895990F0008550FAA0B71
:10223000E0E8FEEF16161706E807F907C0F01216D9
:102240001306E407F50798F0621B730B840B950BDC
:1022500039F40A2661F0232B242B252B21F4089531
:102260000A2609F4A140A6958FEF811D811D0895CE
:102270000F931F93CF93DF938230910510F482E088
:1022800090E0E091F802F091F90230E020E0B0E057
:10229000A0E0309799F42115310509F44AC0281BB4
:1022A000390B24303105D8F58A819B816115710580
:1022B00089F1FB0193838283FE0111C0408151812A
:1022C0000281138148175907E0F04817590799F41C
:1022D000109761F012960C93129713961C933296F6
:1022E000CF01DF91CF911F910F9108950093F802D4
:1022F0001093F902F4CF2115310551F0421753071D
:1023000038F0A901DB019A01BD01DF01F801C1CF5D
:10231000EF01F9CF9093F9028093F802CDCFFE013F
:10232000E20FF31F8193919322503109398328835F
:10233000D7CF2091F6023091F702232B41F4209160
:102340001201309113013093F7022093F60220918D
:102350001001309111012115310541F42DB73EB71F
:102360004091140150911501241B350BE091F602A8
:10237000F091F702E217F307A0F42E1B3F0B28178A
:10238000390778F0AC014E5F5F4F2417350748F0EE
:102390004E0F5F1F5093F7024093F6028193919383
:1023A0009FCFF0E0E0E09CCFCF93DF930097E9F080
:1023B000FC01329713821282A091F802B091F902C7
:1023C000ED0130E020E01097A1F420813181820FEF
:1023D000931F2091F6023091F7022817390709F070
:1023E00061C0F093F702E093F602DF91CF91089578
:1023F000EA01CE17DF07E8F54A815B819E014115AE
:102400005105B1F7E901FB83EA8349915991C40F62
:10241000D51FEC17FD0761F4808191810296840F2E
:10242000951FE90199838883828193819B838A83A5
:10243000F0E0E0E012968D919C9113970097B9F52A
:102440002D913C911197CD010296820F931F2091FF
:10245000F6023091F7022817390739F6309751F50F
:102460001092F9021092F802B093F702A093F602CC
:10247000BCCFD383C28340815181840F951FC8177D
:10248000D90761F44E5F5F4F88819981480F591FCA
:10249000518340838A819B819383828321153105F7
:1024A00009F0B0CFF093F902E093F8029ECFFD015E
:1024B000DC01C0CF13821282D7CF81E090E0F89484
:0824C0000C946212F894FFCFA6
:1024C800770001B001B0010F36010F0101000000D3
:1024D8000000FA028000000000005102B101DE0194
:1024E8009E020F02ED01010200000000CC02C802AA
:1024F8000000FFFFAAAA8888555522221111CCCCCA
:102508009393B0B0C4C40D0A0053746172742E2E34
:102518002E6C6574277320676F21004D6174726992
:102528007820736574757020646F6E650054696DEA
:0E253800657220736574757020646F6E6500A7
:00000001FF
