:100000000C9462000C94F6040C94CF040C948A00B7
:100010000C948A000C948A000C948A000C948A0038
:100020000C948A000C948A000C948A000C948A0028
:100030000C948A000C9475050C948A000C948A0028
:100040000C9485040C948A000C9443050C941D05B3
:100050000C948A000C948A000C948A000C948A00F8
:100060000C948A000C948A000000000024002700F1
:100070002A0000000000250028002B0000000000DE
:1000800023002600290004040404040404040202DA
:100090000202020203030303030301020408102007
:1000A0004080010204081020010204081020000012
:1000B0000008000201000003040700000000000027
:1000C0000000470611241FBECFEFD8E0DEBFCDBF32
:1000D00011E0A0E0B1E0E6E3F0E202C005900D928D
:1000E000AC37B107D9F722E0ACE7B1E001C01D920F
:1000F000A93EB207E1F710E0C2E6D0E004C02197C4
:10010000FE010E94B00CC136D107C9F70E94340726
:100110000C9419100C940000833081F028F4813085
:1001200099F08230A9F008958730A9F08830C9F09D
:100130008430B1F4809180008F7D03C08091800075
:100140008F7780938000089584B58F7784BD08955C
:1001500084B58F7DFBCF8091B0008F778093B00006
:1001600008958091B0008F7DF9CFCF93DF93282F32
:1001700030E0F901E255FF4F8491F901E656FF4F57
:10018000D491F901EA57FF4FC491CC23A1F081111A
:100190000E948C00EC2FF0E0EE0FFF1FE458FF4FA1
:1001A000A591B491EC91ED2381E090E009F480E019
:1001B000DF91CF91089580E090E0FACF1F93CF9325
:1001C000DF93282F30E0F901E255FF4F8491F901C8
:1001D000E656FF4FD491F901EA57FF4FC491CC2363
:1001E000A9F0162F81110E948C00EC2FF0E0EE0F89
:1001F000FF1FEE58FF4FA591B4918FB7F894EC9183
:10020000111108C0D095DE23DC938FBFDF91CF9111
:100210001F910895DE2BF8CFCF93DF9390E0FC0180
:10022000E656FF4F24918A579F4FFC018491882303
:10023000C9F090E0880F991FFC01E859FF4FA59184
:10024000B491FC01EE58FF4FC591D49161110DC0DE
:100250009FB7F8948C91209582238C9388812823D2
:1002600028839FBFDF91CF910895623051F49FB7EB
:10027000F8943C91822F809583238C93E8812E2BD8
:10028000EFCF8FB7F894EC912E2B2C938FBFEACF42
:100290008E50806480937C0080917A00806480938B
:1002A0007A0080917A0086FDFCCF80917800909151
:1002B000790008953FB7F8948091E0019091E101B1
:1002C000A091E201B091E30126B5A89B05C02F3FA4
:1002D00019F00196A11DB11D3FBFBA2FA92F982F6C
:1002E0008827BC01CD01620F711D811D911D42E067
:1002F000660F771F881F991F4A95D1F708952FB76A
:10030000F8946091DC017091DD018091DE019091A3
:10031000DF012FBF08950895AF92BF92CF92DF9271
:10032000EF92FF920F931F93CF93DF936C017B01AA
:100330008B01040F151FEB015E01AE18BF08C0173B
:10034000D10759F06991D601ED91FC910190F081AE
:10035000E02DC6010995892B79F7C501DF91CF9171
:100360001F910F91FF90EF90DF90CF90BF90AF90D3
:100370000895FC01538D448D252F30E0842F90E0AB
:10038000821B930B541710F0CF9608950197089590
:10039000FC01918D828D981761F0A28DAE0FBF2F59
:1003A000B11D5D968C91928D9F5F9F73928F90E0AF
:1003B00008958FEF9FEF0895FC01918D828D98171E
:1003C00031F0828DE80FF11D858D90E008958FEF5B
:1003D0009FEF0895FC01918D228D892F90E0805C24
:1003E0009F4F821B91098F739927089584EE91E0A6
:1003F0000E94EA0121E0892B09F420E0822F089570
:1004000080E090E0892B29F00E94F60181110C9484
:1004100000000895FC01A48DA80FB92FB11DA35AA7
:10042000BF4F2C91848D90E001968F739927848F14
:10043000A689B7892C93A089B1898C918370806437
:100440008C93938D848D981306C00288F389E02DD8
:1004500080818F7D80830895EF92FF920F931F9389
:10046000CF93DF93EC0181E0888F9B8D8C8D981367
:100470001AC0E889F989808185FF15C09FB7F89473
:10048000EE89FF896083E889F989808183708064BF
:1004900080839FBF81E090E0DF91CF911F910F910A
:1004A000FF90EF900895F62E0B8D10E00F5F1F4F19
:1004B0000F731127E02E8C8D8E110CC00FB607FC28
:1004C000FACFE889F989808185FFF5CFCE010E94B6
:1004D0000A02F1CFEB8DEC0FFD2FF11DE35AFF4F18
:1004E000F0829FB7F8940B8FEA89FB898081806244
:1004F000CFCFCF93DF93EC01888D8823B9F0AA8901
:10050000BB89E889F9898C9185FD03C0808186FDCE
:100510000DC00FB607FCF7CF8C9185FFF2CF80811D
:1005200085FFEDCFCE010E940A02E9CFDF91CF9186
:1005300008951F93CF93DF93EC01162FE881F98183
:100540000280F381E02D0995198B1886E881F981E5
:100550000190F081E02DCE010995882319F088855E
:10056000836088870E947F016A837B838C839D835D
:10057000DF91CF911F910895FC01808580FD04C01B
:1005800082FB882780F9089580E00895862F642FE4
:100590000C940C01FC0181890E94B50021E0892B9B
:1005A00009F420E0822F0895CF92DF92EF92FF921C
:1005B000CF938091DA01813069F4E091DB02F09110
:1005C000DC0296AD90FF06C0C091C801C11108C001
:1005D0008093C801CF91FF90EF90DF90CF90089566
:1005E00082E0C130A9F30E947F01C0907D01D090CC
:1005F0007E01E0907F01F090800160937D01709317
:100600007E0180937F01909380016C197D098E0992
:100610009F09693671058105910524F469E670E04A
:1006200080E090E06B3024E072078105910524F0B2
:100630006AE074E080E090E00E94CD0D20E030E0C0
:100640004AE752E40E945E0E6B017C016091070153
:1006500070E090E080E00E94CD0D9B01AC01C701ED
:10066000B6010E94230D9B01AC0160E070E080E8C0
:1006700097E40E94B60C0E949C0D709382016093D7
:100680008101C23009F0A6CF80918102909182024F
:1006900090938500809384001092020183E098CFAC
:1006A000CF92DF92EF92FF929C01205F3F4F70E06C
:1006B00060E0FC0141915191CF01640F751F2E172D
:1006C0003F07B9F790E080E00E94CB0D20E030E0DA
:1006D00040E05EE30E945E0E6B017C0120E030E0B2
:1006E000A9010E94590E20E030E040E05FE387FD61
:1006F0000CC0C701B6010E94B70C0E94950DCB013A
:10070000FF90EF90DF90CF900895C701B6010E944F
:10071000B60CF3CF0F931F93CF938EE00E94480146
:10072000C0917C010C2F10E0000F111F0D571E4FC0
:10073000BC01990F880B990B39E0660F771F881F52
:10074000991F3A95D1F72FEF33E040E050E00E9437
:100750001E0C265C3F4F4F4F5F4FF80131832083C3
:10076000CF5FC770C0937C0183E891E00E94500383
:100770008C0180910001909101010817190719F16E
:10078000801B910B0297F8F0B80190E080E00E9486
:10079000CB0D9B01AC0160EC71EE84E69AE40E9403
:1007A000230D9B01AC0160E070E080E897E40E94BB
:1007B000B60C0E94950D7093820160938101109395
:1007C0000101009300011092C801CF911F910F9178
:1007D0000895CF92DF92EF92FF920F931F93CF93E2
:1007E000DF9300D0CDB7DEB769834A83880F991FA6
:1007F0000091D9021091DA02000F111FE3E8F2E034
:100800009F01235832402017310714F41192F8CF7A
:100810002981FC01ED57FD4F21838A81808360E0AF
:100820008091D7020E94DE001016110604F50150D7
:100830001109F801ED57FD4FE080D090D502C0902E
:10084000D30288E0F82E6E2D661F6627661F8C2D5A
:100850000E94DE00EE0C61E08D2D0E94DE0060E063
:100860008D2D0E94DE00FA94F110EDCFDDCF61E016
:100870008091D7020F900F90DF91CF911F910F9130
:10088000FF90EF90DF90CF900C94DE00EF92FF92FC
:100890000F931F93CF937C018C0183E0000F111FF6
:1008A0008A95E1F70D561D4FC1E0F80111928F01B5
:1008B00040E06C2FC7010E94E903CF5FC930A9F760
:1008C000CF911F910F91FF90EF900895CF93DF93F9
:1008D000FC0101900020E9F73197AF01481B590B4B
:1008E000BC0184EE91E00E948C01EC0142E050E0FA
:1008F00064E471E084EE91E00E948C018C0F9D1FF6
:10090000DF91CF9108950E9414101F920F920FB69D
:100910000F9211242F933F938F939F93AF93BF9385
:100920008091DC019091DD01A091DE01B091DF01A9
:100930003091DB0123E0230F2D3758F50196A11DDF
:10094000B11D2093DB018093DC019093DD01A09326
:10095000DE01B093DF018091E0019091E101A0916F
:10096000E201B091E3010196A11DB11D8093E00168
:100970009093E101A093E201B093E301BF91AF91A5
:100980009F918F913F912F910F900FBE0F901F90CD
:10099000189526E8230F0296A11DB11DD2CF1F92F4
:1009A0000F920FB60F9211242F933F934F935F93A3
:1009B0006F937F938F939F93AF93BF93EF93FF9327
:1009C000E0910501F09106010995FF91EF91BF912A
:1009D000AF919F918F917F916F915F914F913F91D7
:1009E0002F910F900FBE0F901F9018951F920F928E
:1009F0000FB60F9211242F933F934F935F936F93F2
:100A00007F938F939F93AF93BF93EF93FF93E09167
:100A10000301F09104010995FF91EF91BF91AF910E
:100A20009F918F917F916F915F914F913F912F9106
:100A30000F900FBE0F901F9018951F920F920FB638
:100A40000F9211242F933F934F935F936F937F9354
:100A50008F939F93AF93BF93EF93FF9384EE91E0B7
:100A60000E940A02FF91EF91BF91AF919F918F91E8
:100A70007F916F915F914F913F912F910F900FBE9A
:100A80000F901F9018951F920F920FB60F9211247E
:100A90002F938F939F93EF93FF93E091F401F09145
:100AA000F5018081E091FA01F091FB0182FD1BC00C
:100AB00090818091FD018F5F8F732091FE018217DD
:100AC00041F0E091FD01F0E0EC51FE4F958F8093F5
:100AD000FD01FF91EF919F918F912F910F900FBE8C
:100AE0000F901F9018958081F4CF1F920F920FB630
:100AF0000F921124CF92DF92EF92FF922F933F93A8
:100B00004F935F936F937F938F939F93AF93BF9315
:100B1000EF93FF93809181029091820220910201D4
:100B200021119BC0909385008093840081E0809385
:100B300002018091090190E001966091080170E046
:100B40000E94810CF82E80930901811108C08091C8
:100B5000CF0190E00196817099278093CF0161E0E9
:100B60008DE00E94DE0080E090E8A0E0B0E09C0113
:100B7000AD0104C05595479537952795FA94D2F75E
:100B800069017A018091E1029091E202B0E0A0E077
:100B900082239D21A423BF21892B8A2B8B2B21F01B
:100BA00061E085E00E94DE008091D001882301F1A0
:100BB0008091CF01811117C08091DF029091E002F6
:100BC000B0E0A0E08C219D21AE21BF21892B8A2B92
:100BD0008B2B71F161E086E00E94DE0061E087E02E
:100BE0000E94DE0025C08091DD029091DE02E8CFF8
:100BF0008091DF029091E002B0E0A0E08C219D2185
:100C0000AE21BF21892B8A2B8B2B21F061E086E05E
:100C10000E94DE008091DD029091DE02B0E0A0E053
:100C20008C219D21AE21BF21892B8A2B8B2BB1F6E4
:100C3000FF91EF91BF91AF919F918F917F916F91B4
:100C40005F914F913F912F91FF90EF90DF90CF9068
:100C50000F900FBE0F901F901895109202012091D7
:100C6000810130918201820F931F909385008093C0
:100C7000840060E08DE00E94DE0060E085E00E947C
:100C8000DE0060E086E00E94DE0060E0A8CFCF9347
:100C9000DF931092E7011092E60188EE93E0A0E066
:100CA000B0E08093E8019093E901A093EA01B0934A
:100CB000EB0188E191E09093E5018093E40185ECFC
:100CC00090E09093F1018093F00184EC90E0909398
:100CD000F3018093F20180EC90E09093F501809312
:100CE000F40181EC90E09093F7018093F60182EC9F
:100CF00090E09093F9018093F80186EC90E0909356
:100D0000FB018093FA011092FD011092FE011092F6
:100D1000FF011092000285E595E59093E40280932F
:100D2000E3028AEA9AEA9093E2028093E1028FEF6B
:100D30009FEF9093E0028093DF0288E898E8909319
:100D4000DE028093DD028AE590E00E94EF0EFC0156
:100D50009C01265A3F4FCAE0D0E04AE251E012829D
:100D6000138214821582D783C683108651834083F1
:100D7000118A72962E173F0791F79093DC028093A9
:100D8000DB02D093D402C093D30288E090E090932A
:100D9000D6028093D50229E030E03093D802209328
:100DA000D7029093DA028093D90261E08AE00E9430
:100DB0000C0161E08091D5020E940C0161E08091FC
:100DC000D7020E940C0161E08091D7020E94DE00F0
:100DD000D093D402C093D302E3E9F2E083ED92E032
:100DE00011928E179F07E1F7D0E0C0E08091D90201
:100DF0009091DA02C817D90774F540E06FE0CE0190
:100E00000E94E9038091D9029091DA02C817D907AC
:100E10002CF447E06BE0CE010E94E90340E069E07A
:100E2000CE010E94E9038091D9029091DA02C8179D
:100E3000D9071CF4CE010E9446048091D9029091FA
:100E4000DA02C817D9072CF440E06CE0CE010E940A
:100E5000E9032196CBCF84E49FEF909382028093A5
:100E60008102DF91CF910895789484B5826084BD2A
:100E700084B5816084BD85B5826085BD85B581609E
:100E800085BD80916E00816080936E00109281001C
:100E900080918100826080938100809181008160D7
:100EA0008093810080918000816080938000809198
:100EB000B10084608093B1008091B0008160809324
:100EC000B00080917A00846080937A0080917A00EB
:100ED000826080937A0080917A00816080937A00AA
:100EE00080917A00806880937A001092C100E0912E
:100EF000F401F091F50182E08083E091F001F0913E
:100F0000F1011082E091F201F091F3018FEC808306
:100F10001092FC01E091F801F091F90186E08083E4
:100F2000E091F601F091F701808180618083E0918A
:100F3000F601F091F701808188608083E091F601ED
:100F4000F091F701808180688083E091F601F09153
:100F5000F70180818F7D808387E491E00E946604A1
:100F600062E084E00E940C0161E085E00E940C01D7
:100F700061E086E00E940C0161E087E00E940C01C4
:100F800061E08AE00E940C0161E088E00E940C01AF
:100F900061E089E00E940C0161E08DE00E940C019B
:100FA00062E082E10E940C018091DB029091DC0200
:100FB00042E050E060E170E0885B9F4F0E94990240
:100FC0008091DB029091DC0250E040E062E070E052
:100FD000C6960E94990242E050E06CE070E0809179
:100FE000DB029091DC020E9499028091DB029091D9
:100FF000DC0242E050E063E070E042960E94990219
:101000008091DB029091DC0242E050E06BE070E006
:1010100084960E949902E091DB02F091DC0289E162
:1010200090E097838683918F808F93A782A795AF57
:1010300084AFE85BFF4F97838683C3E8D1E0B6EACD
:10104000CB2EB1E0DB2E17EBE12E11E0F12E03E900
:1010500011E083E9A82E81E0B82E44244A9493E05D
:10106000592E612C712C8EE00E944801BC01990F11
:10107000880B990BA9E0660F771F881F991FAA9507
:10108000D1F7A30192010E941E0C265C3F4F4F4FE7
:101090005F4F2993399381E10E94480127E030E0B6
:1010A000DC010E94950CA30192010E941E0C2F5F8F
:1010B0003F4F4F4F5F4FF601219331936F018FE008
:1010C0000E9448012FE030E0DC010E94950CA30152
:1010D00092010E941E0C2F5F3F4F4F4F5F4FF70151
:1010E000219331937F0183E10E9448012FE230E098
:1010F000DC010E94950CA30192010E941E0CF801D4
:10110000219331938F01AC16BD0609F0ACCF8091CD
:10111000D9029091DA021816190634F441E06CE015
:1011200090E080E00E94E9038091D9029091DA0278
:101130001816190634F441E06AE090E080E00E945D
:10114000E9038091D9029091DA021816190624F465
:1011500090E080E00E94460489E591E00E946604E8
:1011600084E00E94B5008093DA0184ED92E09093D0
:10117000040180930301809169008C7F81608093DA
:101180006900E89A8091DA01811102C00E948A0305
:10119000F8941092800010928100809181029091C9
:1011A0008202909385008093840080918100846006
:1011B0008093810080916F00816080936F007894AC
:1011C0008BE691E00E946604CC24CA94F3E0DF2E03
:1011D000E12CF12C22242394312C84E00E94B500D0
:1011E00091E098279093DA01813011F40E948A03EC
:1011F0008091CE01882309F48BC183E10E944801CC
:101200002BE030E0DC010E94950CA70196010E94C2
:101210001E0C8091A4019091A5012B30310539F06D
:10122000220F331FF901E25DFE4F8081918190937F
:10123000E4028093E30210E000E0C091DB02D09171
:10124000DC02C00FD11F88858B7F8887E881F981F8
:101250000190F081E02DCE010995782E8885869544
:101260008170781609F48CC10E947F016A837B83A8
:101270008C839D838885F2E08F2788870E5E1F4FC1
:101280000A351105D1F6C091DB02D091DC02CE0106
:1012900084960E94BC02882389F02091CD01809120
:1012A000CE01882309F4AEC18091E3029091E4025B
:1012B0002111A1C19093E2028093E102888580FD13
:1012C00007C08091C801843019F453E05093C801DD
:1012D000CE01885B9F4F0E94BC0281111092C80111
:1012E0008FE00E9448017090C701072D10E0000FA9
:1012F000111F09541E4F2FE030E0DC010E94950CB5
:10130000A70196010E941E0C2F5F3F4F4F4F5F4F6A
:10131000F8013183208381E0870D87708093C701B6
:1013200087EB91E00E9450038093080181E10E94C5
:1013300048017090B601072D10E0000F111F0A55EB
:101340001E4F27E030E0DC010E94950CA7019601BA
:101350000E941E0C2F5F3F4F4F4F5F4FF8013183AC
:10136000208381E0870D87708093B60186EA91E043
:101370000E945003809307018A8D8095817080932D
:10138000CE01CE0142960E94BC02882361F00E94E9
:10139000C60B2FEF3FEF40E050E00E941E0C709311
:1013A000A5016093A40182E10E94B50021E00097AD
:1013B00009F420E02093D0012091E1023091E20273
:1013C0003093D9012093D8011092D7012091DF02E8
:1013D0003091E0023093D6012093D5011092D401D0
:1013E0002091DD023091DE023093D3012093D201AF
:1013F00070910901472F46954695469550E0E7E0E4
:10140000F0E0E41BF50B6091D101A0E86A9F900128
:101410001124777002C0359527957A95E2F7EE5240
:10142000FE4F708172277083892B09F41EC1809151
:10143000CF01E4E0F0E08111F101E41BF50BEE5285
:10144000FE4F808128272083E1E06E276093D10141
:101450008091CE01882309F412C18091E30290911A
:10146000E4022091CD013DEF3203F0011124EE5250
:10147000FE4F978386831092CC01C1E0D0E080912B
:10148000D9029091DA02181619066CF4FE01EF5297
:10149000FE4F4081FE01ED57FD4F47876C2F90E0D6
:1014A00080E00E94E9032196C930D10541F70E94EE
:1014B0005A014B015C018AE0482E512C612C712CA1
:1014C0000E945A01681979098A099B09683E73408C
:1014D00081059105A8F381E0481A51086108710857
:1014E00098EE890E93E0991EA11CB11C4114510481
:1014F0006104710429F7E0E0F0E0EF2B09F46DCE10
:101500000E94F601882309F465CE0E94000062CE95
:1015100083E10E9448011091A301C12FD0E0CC0FBC
:10152000DD1FCD56DE4F2FE230E0DC010E94950C2E
:10153000A70196010E941E0C398328831F5F177034
:101540001093A30183E991E00E945003382F292FC3
:1015500060E170E00E94810C482F8093CA01832FC4
:10156000922F97FD0F9654E0959587955A95E1F740
:101570008093CD01442309F45ECE1092CC015BCE62
:101580000E947F018A809B80AC80BD80AB01BC0142
:10159000481959096A097B098E819F81B0E0A0E052
:1015A000481759076A077B0708F468CE8885817059
:1015B000781609F463CE0E947F016A837B838C8353
:1015C0009D83888521E08227846088870E947F012F
:1015D00049845A846B847C84641975098609970947
:1015E0006D877E878F87988B0E947F0169877A87B6
:1015F0008B879C8743CE213099F59093E0028093AE
:10160000DF025CCE8091CA0140E050E860E070E00B
:1016100004C075956795579547958A95D2F7CA0185
:1016200021110BC04091E1025091E2024827592755
:101630005093E2024093E10241CE213059F42091CF
:10164000DF023091E002242739273093E002209313
:10165000DF0234CE2091DD023091DE028227932713
:101660009093DE028093DD0229CEE4E0F0E0E41BFB
:10167000F50BEE52FE4F808182278083DDCE809174
:10168000CB01882399F18091CC0191E0980F909340
:10169000CC01823308F0F1CE2091CA013091CD0106
:1016A000822F86958695869590E043E0349F800D45
:1016B000911D1124E7E0F0E0E81BF90B3091C9011E
:1016C000EE52FE4F50E8359FC0011124277002C032
:1016D000959587952A95E2F790818927808361E027
:1016E00036273093C9011092CB01C7CE71E07093B9
:1016F000CB01C3CE8F929F92AF92BF92CF92DF92D7
:10170000EF92FF92CF93DF93EC01688179818A8118
:101710009B81611571058105910521F464E279EDE4
:101720008BE597E02DE133EF41E050E00E941E0C85
:1017300049015A019B01AC01A7EAB1E40E943D0CAA
:101740006B017C01ACEEB4EFA50194010E944B0C3F
:10175000C60ED71EE81EF91EF7FE06C081E0C81AA5
:10176000D108E10880E8F80AC882D982EA82FB82BF
:10177000C701B6019F77DF91CF91FF90EF90DF9087
:10178000CF90BF90AF909F908F9008958F929F922F
:10179000AF92BF92CF92DF92EF92FF9260910A01D7
:1017A00070910B0180910C0190910D0161157105F3
:1017B0008105910521F464E279ED8BE597E02DE157
:1017C00033EF41E050E00E941E0C49015A019B0199
:1017D000AC01A7EAB1E40E943D0C6B017C01ACEEC8
:1017E000B4EFA50194010E944B0CC60ED71EE81E53
:1017F000F91EF7FE06C081E0C81AD108E10880E8AA
:10180000F80AC0920A01D0920B01E0920C01F0920A
:101810000D01C701B6019F77FF90EF90DF90CF9049
:10182000BF90AF909F908F90089560930A0170933E
:101830000B0180930C0190930D010895052E97FBE9
:101840001EF400940E94350C57FD07D00E94500CE6
:1018500007FC03D04EF40C94350C50954095309510
:1018600021953F4F4F4F5F4F08959095809570950C
:1018700061957F4F8F4F9F4F08950E94720CA59FD7
:10188000900DB49F900DA49F800D911D112408957B
:10189000B7FF0C943D0C0E943D0C821B930B0895E6
:1018A000A1E21A2EAA1BBB1BFD010DC0AA1FBB1F64
:1018B000EE1FFF1FA217B307E407F50720F0A21BD6
:1018C000B30BE40BF50B661F771F881F991F1A9443
:1018D00069F760957095809590959B01AC01BD016D
:1018E000CF010895A29FB001B39FC001A39F700DC7
:1018F000811D1124911DB29F700D811D1124911D18
:10190000089597FB072E16F4009407D077FD09D0B1
:101910000E949C0C07FC05D03EF4909581959F4F4A
:101920000895709561957F4F08950E94720CB7FFDE
:101930000895821B930B0895AA1BBB1B51E107C09E
:10194000AA1FBB1FA617B70710F0A61BB70B881F4F
:10195000991F5A95A9F780959095BC01CD010895DE
:10196000EE0FFF1F0590F491E02D09945058BB270E
:10197000AA270E94CE0C0C941F0E0E94110E38F064
:101980000E94180E20F039F49F3F19F426F40C94AD
:101990000E0E0EF4E095E7FB0C94080EE92F0E9462
:1019A000300E58F3BA17620773078407950720F0C3
:1019B00079F4A6F50C94520E0EF4E0950B2EBA2F86
:1019C000A02D0B01B90190010C01CA01A001112445
:1019D000FF27591B99F0593F50F4503E68F11A16F1
:1019E000F040A22F232F342F4427585FF3CF469582
:1019F00037952795A795F0405395C9F77EF41F16A4
:101A0000BA0B620B730B840BBAF09150A1F0FF0F6D
:101A1000BB1F661F771F881FC2F70EC0BA0F621F59
:101A2000731F841F48F4879577956795B795F79549
:101A30009E3F08F0B0CF9395880F08F09927EE0FDE
:101A40009795879508950E94370D0C941F0E0E945C
:101A5000180E58F00E94110E40F029F45F3F29F053
:101A60000C94080E51110C94530E0C940E0E0E94FF
:101A7000300E68F39923B1F3552391F3951B550B61
:101A8000BB27AA2762177307840738F09F5F5F4F51
:101A9000220F331F441FAA1FA9F335D00E2E3AF090
:101AA000E0E832D091505040E695001CCAF72BD0A8
:101AB000FE2F29D0660F771F881FBB1F26173707F9
:101AC0004807AB07B0E809F0BB0B802DBF01FF272B
:101AD00093585F4F3AF09E3F510578F00C94080EF2
:101AE0000C94530E5F3FE4F3983ED4F386957795BC
:101AF0006795B795F7959F5FC9F7880F911D9695E4
:101B0000879597F90895E1E0660F771F881FBB1F3F
:101B1000621773078407BA0720F0621B730B840BEC
:101B2000BA0BEE1F88F7E09508950E949C0D68940B
:101B3000B1110C94530E08950E94380E88F09F57EF
:101B400098F0B92F9927B751B0F0E1F0660F771FE1
:101B5000881F991F1AF0BA95C9F714C0B13091F0D7
:101B60000E94520EB1E008950C94520E672F782F08
:101B70008827B85F39F0B93FCCF38695779567959C
:101B8000B395D9F73EF490958095709561957F4F08
:101B90008F4F9F4F0895E89409C097FB3EF49095AE
:101BA0008095709561957F4F8F4F9F4F9923A9F036
:101BB000F92F96E9BB279395F695879577956795C5
:101BC000B795F111F8CFFAF4BB0F11F460FF1BC009
:101BD0006F5F7F4F8F4F9F4F16C0882311F096E99C
:101BE00011C0772321F09EE8872F762F05C066234A
:101BF00071F096E8862F70E060E02AF09A95660F03
:101C0000771F881FDAF7880F9695879597F90895BB
:101C100097F99F6780E870E060E008959FEF80EC9F
:101C2000089500240A941616170618060906089542
:101C300000240A9412161306140605060895092EA8
:101C40000394000C11F4882352F0BB0F40F4BF2B17
:101C500011F460FF04C06F5F7F4F8F4F9F4F089557
:101C600057FD9058440F551F59F05F3F71F047954D
:101C7000880F97FB991F61F09F3F79F08795089532
:101C8000121613061406551FF2CF4695F1DF08C051
:101C9000161617061806991FF1CF8695710561056E
:101CA00008940895E894BB2766277727CB0197F916
:101CB00008950E94CB0E08F48FEF08950E94710ED4
:101CC0000C941F0E0E94110E38F00E94180E20F086
:101CD000952311F00C94080E0C940E0E11240C9404
:101CE000530E0E94300E70F3959FC1F3950F50E094
:101CF000551F629FF001729FBB27F00DB11D639FBE
:101D0000AA27F00DB11DAA1F649F6627B00DA11D63
:101D1000661F829F2227B00DA11D621F739FB00D09
:101D2000A11D621F839FA00D611D221F749F332779
:101D3000A00D611D231F849F600D211D822F762F12
:101D40006A2F11249F5750409AF0F1F088234AF0EF
:101D5000EE0FFF1FBB1F661F771F881F915050405B
:101D6000A9F79E3F510580F00C94080E0C94530E79
:101D70005F3FE4F3983ED4F3869577956795B795E2
:101D8000F795E7959F5FC1F7FE2B880F911D9695FC
:101D9000879597F90895990F0008550FAA0BE0E869
:101DA000FEEF16161706E807F907C0F0121613061D
:101DB000E407F50798F0621B730B840B950B39F45D
:101DC0000A2661F0232B242B252B21F408950A26C3
:101DD00009F4A140A6958FEF811D811D08950F93F1
:101DE0001F93CF93DF938230910510F482E090E04F
:101DF000E091E702F091E80230E020E0B0E0A0E0FE
:101E0000309799F42115310509F44AC0281B390B84
:101E100024303105D8F58A819B816115710589F1DE
:101E2000FB0193838283FE0111C0408151810281B5
:101E3000138148175907E0F04817590799F410978C
:101E400061F012960C93129713961C933296CF0161
:101E5000DF91CF911F910F9108950093E7021093A6
:101E6000E802F4CF2115310551F04217530738F03D
:101E7000A901DB019A01BD01DF01F801C1CFEF012A
:101E8000F9CF9093E8028093E702CDCFFE01E20FF5
:101E9000F31F819391932250310939832883D7CF3F
:101EA0002091E5023091E602232B41F420911001AC
:101EB000309111013093E6022093E50220910E014A
:101EC00030910F012115310541F42DB73EB74091F6
:101ED000120150911301241B350BE091E502F091A2
:101EE000E602E217F307A0F42E1B3F0B2817390771
:101EF00078F0AC014E5F5F4F2417350748F04E0F66
:101F00005F1F5093E6024093E502819391939FCF28
:101F1000F0E0E0E09CCFCF93DF930097E9F0FC0185
:101F2000329713821282A091E702B091E802ED018C
:101F300030E020E01097A1F420813181820F931FBF
:101F40002091E5023091E6022817390709F061C0B7
:101F5000F093E602E093E502DF91CF910895EA0164
:101F6000CE17DF07E8F54A815B819E0141155105D7
:101F7000B1F7E901FB83EA8349915991C40FD51F59
:101F8000EC17FD0761F4808191810296840F951F03
:101F9000E90199838883828193819B838A83F0E01E
:101FA000E0E012968D919C9113970097B9F52D91D1
:101FB0003C911197CD010296820F931F2091E5026B
:101FC0003091E6022817390739F6309751F510920B
:101FD000E8021092E702B093E602A093E502BCCFBC
:101FE000D383C28340815181840F951FC817D907BD
:101FF00061F44E5F5F4F88819981480F591F51836B
:1020000040838A819B81938382832115310509F066
:10201000B0CFF093E802E093E7029ECFFD01DC0130
:10202000C0CF13821282D7CF81E090E0F8940C9455
:062030001910F894FFCF27
:102036007700018B018B01010F0F010000000000EA
:10204600E9028000000000002C028C01B90179022F
:10205600EA01C801DC0100000000CA02C602000055
:10206600FFFFAAAA8888555522221111CCCC93933A
:10207600B0B0C4C40D0A0053746172742E2E2E6C57
:102086006574277320676F21004D6174726978202B
:10209600736574757020646F6E650054696D657242
:0C20A60020736574757020646F6E650017
:00000001FF
